:020000040000FA
:100000000C944B090C9473090C9473090C947309A8
:100010000C9473090C9473090C9473090C94730970
:100020000C9473090C9473090C9473090C94730960
:100030000C9473090C9473090C9473090C94730950
:100040000C94B91E0C9473090C94871E0C94611EB9
:100050000C9473090C9473090C9473090C94730930
:100060000C94031F0C94730900000000003E5B4FCA
:100070005B3E3E6B4F6B3E1C3E7C3E1C183C7E3C08
:10008000181C577D571C1C5E7F5E1C00183C180016
:10009000FFE7C3E7FF0018241800FFE7DBE7FF30A6
:1000A000483A060E2629792926407F050507407F14
:1000B00005253F5A3CE73C5A7F3E1C1C08081C1C87
:1000C0003E7F14227F22145F5F005F5F06097F017D
:1000D0007F006689956A606060606094A2FFA29468
:1000E00008047E040810207E201008082A1C080836
:1000F0001C2A08081E101010100C1E0C1E0C303884
:100100003E3830060E3E0E06000000000000005F84
:1001100000000007000700147F147F14242A7F2AA0
:100120001223130864623649562050000807030062
:10013000001C2241000041221C002A1C7F1C2A08AE
:10014000083E080800807030000808080808000011
:1001500060600020100804023E5149453E00427F85
:10016000400072494949462141494D331814127FD4
:100170001027454545393C4A494931412111090774
:100180003649494936464949291E000014000000F5
:1001900040340000000814224114141414140041C7
:1001A00022140802015909063E415D594E7C121184
:1001B000127C7F494949363E414141227F414141BC
:1001C0003E7F494949417F090909013E4141517337
:1001D0007F0808087F00417F41002040413F017FA8
:1001E000081422417F404040407F021C027F7F0470
:1001F00008107F3E4141413E7F090909063E4151B9
:10020000215E7F09192946264949493203017F01A8
:10021000033F4040403F1F2040201F3F4038403FA9
:10022000631408146303047804036159494D4300BF
:100230007F4141410204081020004141417F0402F6
:10024000010204404040404000030708002054548D
:1002500078407F284444383844444428384444286B
:100260007F385454541800087E090218A4A49C78BE
:100270007F0804047800447D40002040403D007F1A
:100280001028440000417F40007C047804787C08FA
:100290000404783844444438FC18242418182424CE
:1002A00018FC7C08040408485454542404043F44B3
:1002B000243C4040207C1C2040201C3C4030403CE2
:1002C00044281028444C9090907C4464544C440042
:1002D00008364100000077000000413608000201A6
:1002E0000204023C2623263C1EA1A161123A404092
:1002F000207A38545455592155557941225454780F
:1003000042215554784020545579400C1E527212A7
:100310003955555559395454545939555454580030
:1003200000457C410002457D420001457C407D1234
:1003300011127DF0282528F07C5455450020545496
:100340007C547C0A097F4932494949323A44444441
:100350003A324A4848303A4141217A3A424020787C
:10036000009DA0A07D3D4242423D3D4040403D3C7D
:1003700024FF2424487E4943662B2FFC2F2BFF09A2
:1003800029F620C0887E0903205454794100004496
:100390007D413048484A32384040227A007A0A0A81
:1003A000727D0D19317D2629292F282629292926F4
:1003B00030484D4020380808080808080808382F39
:1003C00010C8ACBA2F102834FA00007B00000814C3
:1003D0002A142222142A14085500550055AA55AA99
:1003E00055AAFF55FF55FF000000FF00101010FF39
:1003F00000141414FF001010FF00FF1010F010F094
:10040000141414FC001414F700FF0000FF00FF1484
:1004100014F404FC141417101F10101F101F1414D0
:10042000141F00101010F0000000001F101010101A
:100430001F10101010F010000000FF10101010100E
:1004400010101010FF10000000FF140000FF00FF4C
:1004500000001F10170000FC04F4141417101714E8
:1004600014F404F40000FF00F7141414141414140A
:10047000F700F7141414171410101F101F1414147D
:10048000F4141010F010F000001F101F0000001FE7
:1004900014000000FC140000F010F01010FF10FF1A
:1004A000141414FF141010101F00000000F010FFAF
:1004B000FFFFFFFFF0F0F0F0F0FFFFFF0000000093
:1004C00000FFFF0F0F0F0F0F3844443844FC4A4A17
:1004D0004A347E02020606027E027E0263554941CC
:1004E000633844443C04407E201E2006027E020203
:1004F00099A5E7A5991C2A492A1C4C7201724C3017
:100500004A4D4D303048784830BC625A463D3E49ED
:100510004949007E0101017E2A2A2A2A2A44445F91
:10052000444440514A444040444A51400000FF0185
:1005300003E080FF000008086B6B08361236243693
:10054000060F090F060000181800000010100030F8
:1005500040FF0101001F01011E00191D1712003C80
:100560003C3C3C000000000000000000250028008A
:100570002B00040404040404040402020202020224
:100580000303030303030102040810204080010257
:1005900004081020010204081020000000080002D6
:1005A00001000003040700000000000000004920D3
:1005B00072656C79206F6E20676F6F6420696E665C
:1005C0006F726D6174696F6E2066726F6D207265F7
:1005D0006D6F746520757365727300004F722070C3
:1005E0006F73742061206C696E6B20746F206120C2
:1005F000766964656F20286F722070686F746F73FE
:100600002900506F73742061636375726174652093
:100610006465736372697074696F6E206F662070B1
:10062000726F626C656D20746F20466F72756D001D
:1006300073686F756C6420776F726B2E202049662B
:1006400020746865726520697320612070726F6222
:100650006C656D2C20206D616B65206E6F74657309
:10066000206F6E20706170657200416C6C20636F4A
:100670006C6F7572732C20746578742C20646972A9
:10068000656374696F6E732C20726F746174696F27
:100690006E732C207363726F6C6C730052756E20D6
:1006A000746865206578616D706C65732F67726121
:1006B00070686963746573745F6B627620736B65D1
:1006C000746368000020782000504F525452414912
:1006D00054206973200045646974206D63756669F0
:1006E000656E645F7370656369616C2E6820666F08
:1006F00072205553455F4F50454E534D4152545F04
:10070000534849454C445F50494E4F555400456449
:100710006974206D63756669656E645F7368696589
:100720006C642E6820666F72205553455F535045A8
:100730004349414C004564697420746865207069C0
:100740006E20646566696E657320696E204C434453
:100750005F49445F7265616472656720746F206DE4
:1007600061746368004E6F74652074686174204F13
:1007700050454E2D534D41525420626F6172647347
:10078000206861766520646966662070696E6F75A1
:100790007400006F7220746F204973737565732045
:1007A0006F6E2047697448756200746F2061206D18
:1007B00065737361676520696E20446973706C614D
:1007C000797320746F706963206F6E204172647555
:1007D000696E6F20466F72756D00436F70792D5092
:1007E0006173746520746865206F7574707574200A
:1007F00066726F6D207468652053657269616C2044
:100800005465726D696E616C0072756E204C434464
:100810005F49445F726561647265672E696E6F201F
:1008200066726F6D206578616D706C65732F00491D
:100830006620796F7572204944206973206E6F7449
:1008400020737570706F72746564004E65772063F5
:100850006F6E74726F6C6C6572732061707065611D
:1008600072206F6E2045626179206F6674656E003C
:1008700000652E672E2023646566696E65205355DA
:1008800050504F52545F383334374400746F2065F2
:100890006E61626C6520737570706F727420666F24
:1008A00072207468697320494400796F75206D6106
:1008B00079206E65656420746F2065646974204DCD
:1008C0004355465249454E445F6B62762E637070C5
:1008D000006C6F6F6B20757020494420696E206535
:1008E00078747261732F6D6375667269656E645F8B
:1008F000686F775F746F2E74787400546869732022
:100900004944206973206E6F7420737570706F7224
:10091000746564000054727920746F20666F72638E
:1009200065204944203D2030780050726F6261623A
:100930006C7920612077726974652D6F6E6C7920F7
:100940004D6567613235363020536869656C6400E7
:100950005250312D525034206F72205250312D524E
:1009600050352063616E206F6E6C7920626520388F
:100970002D626974005250312D52503720696D70CC
:100980006C6965732031362D62697420627574203C
:100990006974206D6967687420626520382D62690A
:1009A00074004F6674656E206120726F77206F66E9
:1009B000207265736973746F722D7061636B73203D
:1009C0006E6561722074686520313878320048693C
:1009D0006E742E202041204D6567613235363020FF
:1009E000536869656C6420686173206120313878D0
:1009F00032206D616C652068656164657200652EEA
:100A0000672E205553455F4D4547415F3842495455
:100A10005F534849454C4400652E672E2055534589
:100A20005F4D4547415F31364249545F5348494520
:100A30004C440023646566696E6520617070726F56
:100A4000707269617465205350454349414C206977
:100A50006E206D6375667269656E645F7370656341
:100A600069616C2E680023646566696E6520555364
:100A7000455F5350454349414C20696E206D637575
:100A8000667269656E645F736869656C642E680080
:100A900050726F6261626C7920612077726974654F
:100AA0002D6F6E6C79204D6567613235363020537D
:100AB0006869656C6400002E002E004D4355465257
:100AC00049454E445F6B62762076657273696F6E3E
:100AD0003A2000007466742E7265616449442829C6
:100AE0002066696E64733A204944203D20307800C6
:100AF000005468657265206172652046415173201B
:100B0000696E206578747261732F6D6375667269A2
:100B1000656E645F686F775F746F2E7478740044DD
:100B20006961676E6F7365207768657468657220A8
:100B30007468697320636F6E74726F6C6C65722079
:100B4000697320737570706F727465640011007F33
:100B500096290001007F9628003A0155C002101026
:100B6000C10141C50400228040360168B00100B1D6
:100B700002B011B40102B60302023BB701C63A014A
:100B800055F704A9512C82B701C6E808408A000035
:100B90002919A533C0020D0DC1024300C20100C5D1
:100BA0000400480048B40100B60302023BE00F0F06
:100BB000211C0B0E08499838091103141000E10F8D
:100BC0000F2F2B0C0E06477637071104231E00B09B
:100BD0000100B30402000000B40100D00307421872
:100BE000D103000710D2020102D3020102D4020194
:100BF00002C005123B000211C103101088C5010399
:100C0000C60102C80C003236450616377577540CFB
:100C100000CC0100F603010100CF03008130ED0498
:100C200064031281E803851078CB05392C00340267
:100C3000F70120EA020000B00100B102001BB4017C
:100C400000C00121C10111C5023F3CC701B53601F9
:100C500048F20100260101E00F0F26240B0E095473
:100C6000A8460C17090F0700E10F00191B04100715
:100C70002A473903060630380F360100B80101C093
:100C8000010EB00100C10410100202C006003500C0
:100C9000000102C50104D2020104CA0100EA018078
:100CA000B903FF83577F967F96B60125C006505043
:100CB000013C1E08B4070240002A2A0D787F01F289
:100CC0000B1616030808080810041616FD03110277
:100CD00035B2050C0C003333B70135BB012BC00115
:100CE00004C20201FFC30111C40120C6010FD002DA
:100CF000A4A1E00ED000050E150D374347091512CB
:100D00001619E10ED000050D0C062D44400E1C18DE
:100D100016193A01557F0A06000700B1020012B405
:100D20000102B60400202700CA0101CB0103C00163
:100D3000137F14C501CCC60100C70104C80103CC50
:100D40000106CD011CF9021515F3030A020AF60388
:100D5000011000FA00FB00E2031E0254E001017FD3
:100D60000AE001037F0A01007F64E60303FFFFB08E
:100D7000072400031F01DF00B40803A0002E300089
:100D80000F00B607020D0010100008BA010FB802DC
:100D90000701F001007F01280011007F642900BED7
:100DA0000606F001F00000D0010DB00103E2013FA2
:100DB000C00122E20100B00100C0010AB001000040
:100DC000000000000000000000000000000000FF24
:100DD000FF0F0000040062080008080003000C0177
:100DE000030B5A020306090303171004030023052B
:100DF000030017060309630703090C08030C100915
:100E0000033222100016001100010112000000132D
:100E100000010000013003010137020301000D80D1
:100E20000200610201B0C1FFFF32000100000102B7
:100E300000000103003010090001000C00000090C8
:100E40000000800F000000100200001102EF0012ED
:100E500002000013028F01000500000105000002DE
:100E6000055F000104010004040000FFFF320007D9
:100E7000000001FFFF32000002000001020000003C
:100E8000000000000000000000000000000100A4BD
:100E9000000100FFFF0A006000002708000808307A
:100EA00000140231001537320004063300160E34E8
:100EB0000011223500001536000785370007143869
:100EC00000031439002000900015001000100411D8
:100ED000003702290046002A0046000700000012E1
:100EE00000890113000011FFFF96001200B90101F3
:100EF0000000010200000203003010090001000A96
:100F00000000000D0000000E003000610001006ACA
:100F1000000000800000008100000082005F00925D
:100F200000000193000107FFFF500007000001E5EA
:100F300000F07801000001020000020300301004FC
:100F40000000000500000008000702090000000A78
:100F50000000000C0000000D0000000F0000001059
:100F6000000000110007001200000013000000073D
:100F7000000100FFFFC8001000901611002702FFBB
:100F8000FF320012000D00FFFF3200130000122993
:100F9000000A002B000D00FFFF320020000000219E
:100FA000000000300000003100040432000300356E
:100FB0000005043600080837000704380003033929
:100FC0000007073C0004053D000808600000276199
:100FD0000001006A00000080000000810000008223
:100FE00000000083000000840000008500000090E5
:100FF0000010009200000007003301E500008000AF
:10100000000100010000010200000703003010048D
:1010100000000008000202090000000A0000000CA5
:101020000000000D0000000F000000100000001183
:101030000007001200000013000000FFFF32001044
:1010400000B01711000700FFFF0A0012003A01FF6D
:10105000FF0A001300001A29000C00FFFF0A0030ED
:10106000000000310005053200040035000600369E
:101070000007073700050138000200390007073C68
:101080000004073D000708600000A7610001006A36
:10109000000000210000002000000080000000810E
:1010A0000000008200000083000000840000008532
:1010B00000000090001000920000009300030095D3
:1010C000001001970000009800000007007301FF66
:1010D000FF32000100000102000007030030100889
:1010E000000203090000000A0008001000000011BF
:1010F0000005001200000013000000FFFF64001054
:1011000000B012FFFF320011000700FFFF32001293
:10111000008C001300001729002000FFFF32003070
:1011200000000031000601320001013500060136E1
:101130000003023700000038000707390004023CB2
:101140000006013D000301600000A761000100905E
:1011500000300007003301FFFF3200150030009A15
:1011600000100011002000100028341200020013AB
:10117000003810FFFF280012001200FFFF280010A7
:1011800000203413004530FFFF46003000000031DE
:101190000002043200070333000403340004003566
:1011A0000001043600070737000503380010063930
:1011B00000100601000001020000030300301008C7
:1011C0000008080A00080060000027610001009084
:1011D000003E019200000193000001A0000030A336
:1011E000001000070001000700210007002300078E
:1011F0000033000700330111001A001200213113DF
:10120000006C001400494210000008FFFF0A0011A2
:10121000001A01FFFF0A0011001A03FFFF0A001164
:10122000001A07FFFF0A0011001A0FFFFF0A001142
:10123000003A0FFFFF1E0001002801020000010319
:1012400000301007001210080003030B0000110CFF
:101250000000000F0001181500200050000101518E
:101260000003065200080453000000540005065510
:1012700000060456000303570003035800100059EA
:1012800000001007001200FFFF28000700130007EE
:10129000001700001E2011241FBECFEFD8E0DEBFD4
:1012A000CDBF11E0A0E0B1E0ECEDF6E402C00590A6
:1012B0000D92A23CB107D9F723E0A2ECB1E001C046
:1012C0001D92A231B207E1F719E0CBE4D9E004C0E6
:1012D0002197FE010E946123CA34D107C9F70E94F9
:1012E00071200C946C230C940000AF92BF92CF92AB
:1012F000DF92EF92FF920F931F93CF93DF936C01D6
:101300007B018B01040F151FEB015E01AE18BF08B6
:10131000C017D10759F06991D601ED91FC91019068
:10132000F081E02DC6010995892B79F7C501DF9180
:10133000CF911F910F91FF90EF90DF90CF90BF90D2
:10134000AF900895FC01538D448D252F30E0842FFC
:1013500090E0821B930B541710F0CF9608950197DD
:101360000895FC01918D828D981761F0A28DAE0FCA
:10137000BF2FB11D5D968C91928D9F5F9F73928F51
:1013800090E008958FEF9FEF0895FC01918D828D7D
:10139000981731F0828DE80FF11D858D90E008954A
:1013A0008FEF9FEF0895FC01918D228D892F90E0A2
:1013B000805C9F4F821B91098F739927089580E469
:1013C00092E00E94D30921E0892B09F420E0822FCA
:1013D000089580E090E0892B29F00E94DF098111B7
:1013E0000C9400000895FC01A48DA80FB92FB11D25
:1013F000A35ABF4F2C91848D90E001968F7399274B
:10140000848FA689B7892C93A089B1898C91837028
:1014100080648C93938D848D981306C00288F38921
:10142000E02D80818F7D80830895EF92FF920F934E
:101430001F93CF93DF93EC0181E0888F9B8D8C8D80
:1014400098131AC0E889F989808185FF15C09FB774
:10145000F894EE89FF896083E889F9898081837037
:10146000806480839FBF81E090E0DF91CF911F91E6
:101470000F91FF90EF900895F62E0B8D10E00F5F07
:101480001F4F0F731127E02E8C8D8E110CC00FB6DD
:1014900007FCFACFE889F989808185FFF5CFCE0175
:1014A0000E94F309F1CFEB8DEC0FFD2FF11DE35AF4
:1014B000FF4FF0829FB7F8940B8FEA89FB898081F8
:1014C0008062CFCF0F931F93CF93DF938C01D0E037
:1014D000C0E0F801EC0FFD1F6491662341F080E449
:1014E00092E00E94150A892B11F02196F2CFCE01CD
:1014F000DF91CF911F910F910895CF93DF93EC016E
:10150000888D8823B9F0AA89BB89E889F9898C91EB
:1015100085FD03C0808186FD0DC00FB607FCF7CFA7
:101520008C9185FFF2CF808185FFEDCFCE010E94A7
:10153000F309E9CFDF91CF91089590E0FC01E656E1
:10154000FA4F2491FC01EA57FA4F3491FC01EE580E
:10155000FA4FE491EE23C9F0222339F0233001F150
:10156000A8F4213019F1223029F1F0E0EE0FFF1F2D
:10157000E859FA4FA591B4918FB7F894EC916111A5
:1015800026C030953E233C938FBF08952730A9F0A5
:101590002830C9F0243049F7809180008F7D03C046
:1015A000809180008F7780938000DFCF84B58F7724
:1015B00084BDDBCF84B58F7DFBCF8091B0008F776A
:1015C0008093B000D2CF8091B0008F7DF9CF3E2BB9
:1015D000DACF3FB7F8948091380290913902A09108
:1015E0003A02B0913B0226B5A89B05C02F3F19F0E7
:1015F0000196A11DB11D3FBFBA2FA92F982F882793
:10160000BC01CD01620F711D811D911D42E0660F6D
:10161000771F881F991F4A95D1F708958F929F923F
:10162000AF92BF92CF92DF92EF92FF926B017C015B
:101630000E94E90A4B015C01C114D104E104F104E8
:10164000B9F00E94E90A681979098A099B09683E7C
:1016500073408105910580F321E0C21AD108E108A9
:10166000F10888EE880E83E0981EA11CB11CE4CF1F
:10167000FF90EF90DF90CF90BF90AF909F908F90B2
:1016800008952091E901260F3327331F21323105B8
:10169000ECF420910D02FC0190E080E0243069F030
:1016A00082E00895A091E9012191AC0147535E4F7A
:1016B000A40FB52FB11D2C930196861798F3809136
:1016C000E901680F6093E90180E0089581E00895E1
:1016D00008958FEF9FEF08958FEF9FEF089580910A
:1016E000C20190E09195819591090895CF93DF9380
:1016F000CB01EA01642F0E94410BCE01DF91CF9113
:101700000895CF93DF931F92CDB7DEB7698361E071
:10171000CE0101960E94410B81E090E00F90DF9195
:10172000CF9108950895FC016370668B8481958143
:1017300026813781613039F0633029F091878087C5
:10174000338722870895318720879387828708957A
:101750002F923F924F925F926F927F928F929F92C1
:10176000AF92BF92CF92DF92EF92FF920F931F93AF
:10177000CF93DF93CDB7DEB76A970FB6F894DEBF8D
:101780000FBECDBF9A8F898F7A8369834A01D22E8B
:1017900018870F833701BC2CDC0159962D913C91A1
:1017A0005A972115310509F015C118968D919C9114
:1017B0001997681779070CF0D7C11A968D919C91EB
:1017C000481759070CF0D0C14C2C512CB6E0CB9ED9
:1017D000600D711D11247C876B87161617060CF09F
:1017E000C3C1EA2DF0E0FA87E98793E0EE0FFF1F0F
:1017F0009A95E1F7F88BEF87CF01840F951F1816A4
:1018000019060CF0B1C1A98DBA8D58968C91811131
:1018100004C0BFEABD1508F4D394A98DBA8DED912B
:10182000FC9111970284F385E02DCD010995B5E077
:10183000DB9EC0011124E981FA81FC83EB83312C0A
:10184000212C9C0128593F4F388F2F8B4A2D50E077
:101850005E8B4D8BEF89F88DE20DF31D44919E82D6
:101860008D82D12CC12C69817A81620D731D7A8B96
:10187000698B842F90E09C8B8B8BE98DFA8DA081F6
:10188000B18140FF82C0F1E0BF126FC0AF126DC0E6
:101890001C96ED91FC912F813885A4014C0D5D1DA6
:1018A00069897A89898D9A8D0995EB89FC89F595E5
:1018B000E7954E2F5FEFC51AD50A6D817E818D8920
:1018C0009E89680F791F7E836D8398E0C916D104C5
:1018D00081F6AFEF2A1A3A0AEB81FC81E40DF51D7F
:1018E000FC83EB83F5E02F16310409F0B3CF2F8191
:1018F000388526153705B9F0A98DBA8DED91FC9183
:10190000B1E0BB1257C0AB1255C069817A816B5FE1
:101910007F4F0088F189E02D830128E030E0A401A9
:10192000898D9A8D0995A98DBA8DED91FC911197AC
:101930000688F789E02DCD016A960FB6F894DEBFD0
:101940000FBECDBFDF91CF911F910F91FF90EF9010
:10195000DF90CF90BF90AF909F908F907F906F90CF
:101960005F904F903F902F9009941E96ED91FC91BF
:10197000EF80F88409851A8592014D815E816B8123
:101980007C81898D9A8D099590CF2F813885261578
:10199000370509F48ACF31E0B31207C0A31205C09E
:1019A0001C96ED91FC91930178CF1E96ED91FC91E0
:1019B0007301E0CF6B857C85641975090684F78512
:1019C000E02D73010F8518899201A401898D9A8DEC
:1019D0000995A9CFF9013496949132974591549184
:1019E000D91AB7E0DB9E400D511D1124F901259154
:1019F00034913C8B2B8BFA0125903490FA0132966E
:101A0000749031963491398B32966490319644902B
:101A100041E04C1518F04A1508F07FC0662D062CE1
:101A2000000C770B7C836B83842D042C000C990BAA
:101A30009E838D83A98DBA8DED91FC9111970284BF
:101A4000F385E02DCD010995512CD12CC12CEA2D27
:101A5000F0E0FA87E9872B2D30E03C872B87A40143
:101A6000440D511D47FC5A95588F4F8B69817A81DF
:101A7000660D711D67FC7A957E876D877989C7161B
:101A800008F051CF2C2D30E04D815E81420F531F65
:101A9000A985BA854A9FC0014B9F900D5A9F900D12
:101AA0001124FC01E80DF91DF88BEF87852D612CC1
:101AB0004F89588D420F531F5E8B4D8B671408F072
:101AC00050C044244394480E877041F4C1010196EC
:101AD000EB89FC89E20DF31DD4901C01D7FE19C0DF
:101AE000A98DBA8DED91FC91662D70E0B1E0BB122D
:101AF00019C0AB1217C02D853E85620F731F048479
:101B0000F585E02D2F8138854D895E89898D9A8DE7
:101B10000995DD0C6394842DD1CF1E821D821C8219
:101B20001B8288CF4B815C81640F751FAB85BC85A0
:101B30006A9FC0016B9F900D7A9F900D112469815F
:101B40007A81680F791F0684F785E02DEF80F8848D
:101B500009851A859D014F855889898D9A8D09952A
:101B6000D8CF570CC3948ACF6A960FB6F894DEBFCD
:101B70000FBECDBFDF91CF911F910F91FF90EF90DE
:101B8000DF90CF90BF90AF909F908F907F906F909D
:101B90005F904F903F902F9008958F929F92AF92B9
:101BA000CF92EF92FF920F931F93CF93DF93EC01AD
:101BB000262F898D9A8D009709F051C06A30D1F493
:101BC0001D861C868D8948E0849F900111248E8596
:101BD0009F85820F931F9F878E8781E090E0DF9122
:101BE000CF911F910F91FF90EF90CF90AF909F906A
:101BF0008F9008956D3089F3CC88AD888F898823C4
:101C0000C1F08C859D8536E0C39E800D911D112409
:101C1000488559854817590764F44E855F851D86A8
:101C20001C8638E0A39EC0011124840F951F9F8756
:101C30008E87EA88FB88088919894E855F856C85BF
:101C40007D85CE010E94A80B2C898C859D8546E060
:101C5000249F800D911D11249D878C87BECF6A30F3
:101C600069F41D861C86FC013896E4912D898E85C9
:101C70009F85E29F800D911D1124ADCF6D3009F439
:101C8000ACCFFC0134963491631708F4A6CF32969A
:101C9000E491E61708F4A1CFFC0132968590949068
:101CA000462F431B342F47E0349F800C911C112496
:101CB000F401329634913196E4913323A9F1EE2365
:101CC00099F1CC88F4013596E491AD884F8944238D
:101CD00001F10E2E000CFF0BE30FF11DCE9EA001B3
:101CE000CF9E500D11246C857D85460F571F68854A
:101CF0007985641775076CF44E855F851D861C8693
:101D0000FC013896E491AE9E400D511D11245F8771
:101D10004E87EA88FB88088919894E855F856C851E
:101D20007D85CE010E94A80BF4013496E4912C89A4
:101D30008C859D85E29F800D911D11248DCF6F9222
:101D40007F928F929F92AF92BF92CF92DF92EF924B
:101D5000FF920F931F93CF93DF93EC016B015A0116
:101D600039014801E881F9810284F385E02D099564
:101D7000E881F9810288F389E02D87019301A501AB
:101D8000B601CE010995A501480D591D41505109D3
:101D9000E881F9810288F389E02D9301B601CE0133
:101DA0000995E881F9810088F189E02D9401A50168
:101DB000B601CE010995C60CD71CB6016150710958
:101DC000E881F9810088F189E02D9401A501CE0117
:101DD0000995E881F9810688F789E02DCE01DF9128
:101DE000CF911F910F91FF90EF90DF90CF90BF9018
:101DF000AF909F908F907F906F9009946F927F9299
:101E00008F929F92AF92BF92CF92DF92EF92FF920A
:101E10000F931F93CF93DF935C01EB016A0149019C
:101E200038018701DC01ED91FC916217730719F508
:101E3000641675062CF0962D872D3A01C92ED82EE2
:101E40009601261937092F5F3F4F048CF58DE02D41
:101E5000A301BE01C5010995DF91CF911F910F919B
:101E6000FF90EF90DF90CF90BF90AF909F908F90BA
:101E70007F906F9008954615570591F42617370700
:101E800024F0892D4B01C22FD82F9E012819390922
:101E90002F5F3F4F068CF78DE02DA601B401DACFFE
:101EA0000284F385E02D0995D501ED91FC9104881C
:101EB000F589E02D83019401A601BE01C5010995B4
:101EC000D501ED91FC910688F789E02DC501DF91E0
:101ED000CF911F910F91FF90EF90DF90CF90BF9027
:101EE000AF909F908F907F906F900994EF92FF92A8
:101EF0000F931F93DC011A960D911C911B97189656
:101F00002D913C911997ED91FC9100A0F1A1E02D4C
:101F10007B0150E040E070E060E009951F910F9177
:101F2000FF90EF9008954F925F926F927F928F9201
:101F30009F92AF92BF92CF92DF92EF92FF920F9358
:101F40001F93CF93DF936C012B015A013901480194
:101F5000DC01ED91FC910284F385E02D0995E2010D
:101F6000640C751CD601ED91FC91C615D7055CF487
:101F70000088F189E02D87019401A501BE01C60109
:101F800009952196EFCF0688F789E02DC601DF91EC
:101F9000CF911F910F91FF90EF90DF90CF90BF9066
:101FA000AF909F908F907F906F905F904F9009942B
:101FB0008F929F92AF92BF92CF92DF92EF92FF9259
:101FC0000F931F93CF93DF93EC015B014A016901EB
:101FD000E881F9810284F385E02D099595012C0DA6
:101FE0003D1D21503109E881F9810488F589E02DF2
:101FF00078018401A401B501CE010995E881F98138
:102000000688F789E02DCE01DF91CF911F910F91C6
:10201000FF90EF90DF90CF90BF90AF909F908F9008
:1020200009948F929F92AF92BF92CF92DF92EF92DC
:10203000FF920F931F93CF93DF93EC015B014A0153
:1020400069017801E881F9810284F385E02D099521
:10205000C80CD91C860101501109E881F981048856
:10206000F589E02D9501A401B501CE010995E8811E
:10207000F9810688F789E02DCE01DF91CF911F917C
:102080000F91FF90EF90DF90CF90BF90AF909F9017
:102090008F900994EF92FF920F931F93DC01ED91C3
:1020A000FC9100A0F1A1E02D09951F910F91FF90E7
:1020B000EF9008950F931F93DC01ED91FC91068C36
:1020C000F78DE02D09951F910F9108950F931F93A0
:1020D000DC01ED91FC91048CF58DE02D09951F91AB
:1020E0000F910895DC01ED91FC910084F185E02DC4
:1020F00009942F923F924F925F926F927F928F92AC
:102100009F92AF92BF92CF92DF92EF92FF920F9386
:102110001F93CF93DF9300D000D000D0CDB7DEB7B0
:102120003C016A013E832D83FC82EB825801A41A94
:10213000B50AB7FE03C0B194A194B1088D809E800A
:10214000861A970A97FE03C09194819491088A1485
:102150009B045CF0902F812F0D811E819D838E83C7
:102160009C2D8D2D6B01692F782F0C151D055CF0B2
:102170009D818E817E836D83692F782F902F812F93
:102180008601C92ED82E1601201A310A2B012D8165
:102190003E81421A530A57FE03C05194419451089C
:1021A000710137FE03C03FEFE31AF30AF594E79499
:1021B0008D819E81861797075CF5A1E0B0E0BA8318
:1021C000A983C016D1064CF1D301ED91FC91048492
:1021D000F585E02D2B813C81A8016D817E818A14DB
:1021E0009B041CF04D815E81B801C3010995E41880
:1021F000F508F7FE0AC02D813E8189819A81280F5A
:10220000391F3E832D83E20CF31C0F5F1F4FD9CF84
:102210002FEF3FEF3A832983D4CF26960FB6F89459
:10222000DEBF0FBECDBFDF91CF911F910F91FF9009
:10223000EF90DF90CF90BF90AF909F908F907F9066
:102240006F905F904F903F902F9008950F931F9342
:10225000CF93DF93EC018B01FE0194913196649151
:1022600022969F3799F470E090E080E00E940E0B78
:1022700060E0E62FF0E032960E1B1F0B10161106E1
:102280005CF3DF91CF911F910F910895439842988D
:1022900085B18C7F292F2370822B85B98BB18370F8
:1022A0009C7F892B8BB94198419A30E020E026171A
:1022B000A8F4FE01E20FF31FE491429A85B18C7FEE
:1022C0009E2F9370892B85B98BB18370EC7FE82B9F
:1022D000EBB94198419A2F5F3F4FE9CFC60FD11D0F
:1022E000439AC7CF4398429825B12C7F392F33703A
:1022F000232B25B92BB123709C7F922B9BB941983E
:10230000419A95B19C7F282F2370922B95B99BB150
:1023100093708C7F892B8BB94198419A429AFA012C
:10232000615078F0219195B19C7F822F8370982B1A
:1023300095B98BB183702C7F822B8BB94198419AD0
:10234000EFCF439A08954398429825B12C7F392FB7
:102350003370232B25B92BB123709C7F922B9BB913
:102360004198419A95B19C7F282F2370922B95B963
:102370009BB193708C7F892B8BB94198419A429A7B
:1023800085B18C7F972F9370892B85B98BB1837022
:102390007C7F782B7BB94198419A85B18C7F962FB1
:1023A0009370892B85B98BB183706C7F682B6BB967
:1023B0004198419A439A089581E080933F0284B105
:1023C000836084B98AB18C6F8AB9389A399A3A9AFB
:1023D0003B9A3C9A439A409A419A449A62E370E04D
:1023E00080E090E00E940E0B449864E670E080E08C
:1023F00090E00E940E0B449A64E670E080E090E06A
:102400000E940E0B70E060E080EB90E00C94A31152
:102410001F93CF93DF93C82F162F80913F02811116
:1024200002C00E94DC114398429885B18C7F85B927
:102430008BB183708BB94198419A95B19C7F8C2F59
:102440008370982B95B98BB18370CC7F8C2B8BB913
:102450004198419A429A84B18C7F84B98AB1837041
:102460008AB961E070E080E090E00E940E0B61E0CC
:1024700070E080E090E00E940E0B409A40984098F7
:102480004098C3B1D9B1409A61E070E080E090E03B
:102490000E940E0B409A40984098409883B199B1A1
:1024A000409A115020F7409A439A24B1236024B9EE
:1024B0002AB12C6F2AB9C370DC7FCD2B83709C7F2F
:1024C000892B9C2FDF91CF911F9108950F931F931C
:1024D000CF93DF938C0160E00E940812EC0161E071
:1024E000C8010E9408128C01BE0190E080E0CB017F
:1024F0007727662730E020E0602B712B822B932B0F
:10250000DF91CF911F910F910895FF920F931F9329
:10251000CF93DF938C0160E00E940812EC0161E030
:10252000C8010E940812F82E62E0C8010E94081239
:10253000AE0170E060E0742F66275527442700E065
:1025400030E020E0402B5F29622B732B292F30E0F5
:10255000C901B0E0A0E08A019B01082B192B2A2BAE
:102560003B2BC901B801DF91CF911F910F91FF90D3
:102570000895CF93DF9300D01F92CDB7DEB760E010
:1025800090E080E00E940812BC018830944541F13F
:10259000603284E5780721F16938794809F4EBC0A5
:1025A00060E087E690E00E94081267E473E88734F1
:1025B0009744B1F08FEE90E00E948512673283E974
:1025C000780771F081EA90E00E946612613091E62E
:1025D000790709F4D3C06F3F760749F466E275E1E5
:1025E000CB010F900F900F90DF91CF91089561155F
:1025F0008FEF780719F460E275E1F2CF6115704F43
:1026000009F4BFC08FEB90E00E948512673523E884
:10261000720731F3613884E9780711F3613195E18C
:102620007907F1F2603225E1720729F3663285E11C
:102630007807A1F2613895E1790791F2611574414B
:1026400009F4A2C084ED90E00E946612603183E537
:10265000780731F287ED90E00E946612613390E8CE
:10266000790709F4BDCF8EEF90E00E946612672FC4
:10267000782F892F9927633520E2720709F4B0CFAC
:1026800084E090E00E946612262F622F833E31F490
:102690006115710549F560E073EEA2CF811124C088
:1026A000611580E8780701F58091000190910101A2
:1026B000A091020189839A83AB83AE014F5F5F4F84
:1026C00063E089EB90E00E94721160E080ED90E0A1
:1026D0000E94081269E970E0893909F481CF8039D4
:1026E000B9F460E970E97CCF663295E1790709F4C5
:1026F00075CF603F29E8720709F449C0623585E863
:10270000780709F447C061319CEA790709F468CF7A
:1027100083ED90E00E946612672F782F892F99270A
:10272000633621E9720709F45BCF83ED90E00E94E4
:102730006612872F693292E3790709F451CF8359E2
:10274000823008F44DCF783909F44ACF773709F44D
:1027500047CF763109F444CF633D710509F440CF8A
:10276000633D760709F43CCF60E090E080E00E9492
:102770000812BC0135CF69E872E132CF63E679E136
:102780002FCF61EA75E02CCF64E178E629CF65E3CD
:1027900077E726CF69E877E723CF0F931F93CF938F
:1027A000DF93EC018B01FE0185919491FE0132963D
:1027B0002496659174918F3F980771F490E080E0C2
:1027C0000E940E0B045011091016110664F3DF91DC
:1027D000CF911F910F9108950E94A311F3CFFC0197
:1027E000262F358D868D82958170982F9627692F9B
:1027F00070E072A361A330FF0CC0821307C080E2B7
:1028000090E050E040E060E00C94721181E290E0D2
:10281000F8CF878D90A1833927E7920741F058F4CC
:10282000843521E0920791F080329445C1F46260D2
:1028300081E094E012C0863223E99207C1F3893027
:1028400025EB9207A1F38532924949F4660F771F71
:10285000660F771F636187E090E00C94A31181E617
:1028600090E0FBCF8F929F92AF92BF92CF92DF9278
:10287000EF92FF920F931F93CF93DF9300D000D07E
:10288000CDB7DEB77C014B015A016901FC01878D90
:1028900090A18632954151F4F701868980FF06C0E8
:1028A000C801841B950B81F50F5F1F4FF701858DC4
:1028B00080FF31C085A599828A82DB82CC82AE01FD
:1028C0004F5F5F4F64E090E00E947211F70181A9B1
:1028D000B982AA821B830C83AE014F5F5F4F64E015
:1028E00090E00E9472110F900F900F900F90DF9167
:1028F000CF911F910F91FF90EF90DF90CF90BF90FD
:10290000AF909F908F9008952617370779F6C80EDD
:10291000D91E8A01CBCFB40187A190A50E94A31133
:10292000B501F70181A592A50E94A311C814D9048D
:1029300019F40A151B05B9F2F701858D85FF08C04A
:10294000868980FF1EC0102F0027A02AB12A85018A
:10295000B401F70185A596A50E94A311B501F70161
:1029600081A992A90E94A311B601F70187A590A998
:102970000E94A311B801F70183A994A90E94A31191
:10298000B2CFDC2CCC248C289D286401E1CFAF92FF
:10299000BF92CF92DF92EF92FF920F931F93CF934C
:1029A000DF93EC0180913D02882349F0C701880F35
:1029B000991F8E739927E1ECEE22E82AF92A37FF56
:1029C00005C0620F731F319521953109260F371FFE
:1029D00077FF02C070E060E0888599852817390785
:1029E0000CF4C9016C01C61AD70A17FF05C0400FC5
:1029F000511F119501951109040F151F57FF02C0B2
:102A000050E040E02A853B85021713070CF498013B
:102A10005901A41AB50A8901015011099C012150DC
:102A20003109CE010E943214439842983BA58CA5EF
:102A300025B12C7F982F9370292B25B99BB19370CA
:102A40008C7F982B9BB94198419A95B19C7F832F9D
:102A50008370982B95B98BB183703C7F832B8BB996
:102A60004198419A429ACA14DB042CF09A2D8B2D7E
:102A70005601C92ED82E8F2DA70193E05695479564
:102A80009A95E1F74C7F5E2D550F550F550F6F2D21
:102A900063707F2D7C7FEE2DE3702E2D2C7FE22E38
:102AA000887F1C141D040CF03FC090913E029501DC
:102AB000992311F195B19C7F95B99BB19370982B97
:102AC0009BB94198419A95B19C7F95B99BB1937000
:102AD000942B9BB94198419A95B19C7F95B99BB134
:102AE0009370952B9BB94198419A2150310911F768
:102AF00091E0C91AD108D5CF95B19C7F962B95B995
:102B00009BB19370972B9BB94198419A95B19C7F4B
:102B10009E2B95B99BB193709E299BB94198419A80
:102B20002150310949F7E4CF439A8D8D80FF08C0C9
:102B30008F8D98A18632954191F48E8980FF0FC0C8
:102B40000A851B85015011092885398521503109D5
:102B500050E040E070E060E0CE010E943214DF916E
:102B6000CF911F910F91FF90EF90DF90CF90BF908A
:102B7000AF900895EF92FF920F931F93CF93DF933F
:102B80007C01E90177FD6DC057FD6BC0FC018085BC
:102B90009185681779070CF064C082859385481782
:102BA00059070CF05EC080913D02882341F0C901B5
:102BB000880F991F8E739927C17CC82BD92B8A0146
:102BC0009B01C7010E94321480913E02882309F4C0
:102BD0004FC043984298F70133A584A525B12C7FB7
:102BE000982F9370292B25B99BB193708C7F982BCC
:102BF0009BB94198419A95B19C7F832F8370982B04
:102C000095B98BB183703C7F832B8BB94198419AE6
:102C1000429A85B18C7F85B99BB18D2F887F937047
:102C2000892B8BB94198419A85B18C7F85B92BB19D
:102C3000CE0133E0969587953A95E1F78C7F237026
:102C4000822B8BB94198419A85B18C7F85B98BB124
:102C5000CC0FCC0FCC0F8370C82BCBB94198419AC5
:102C6000439ADF91CF911F910F91FF90EF900895BC
:102C7000BE01F70183A594A5DF91CF911F910F911C
:102C8000FF90EF900C94A311EF92FF920F931F937C
:102C9000CF93DF93CDB7DEB72A970FB6F894DEBF98
:102CA0000FBECDBF7C01862F8370F701868B962FD8
:102CB000917060FFE3C026813781F701318720875B
:102CC000992309F4DEC024813581F70133872287F7
:102CD000823009F4DBC0833009F4DAC0813009F4B2
:102CE000D3C088E48A87F701858D968D90FF03C055
:102CF0002A8520582A8791FF04C02A8530E423279B
:102D00002A8793FF04C02A8538E023272A87F70102
:102D1000278D30A180FF00C12431F8E63F0709F07C
:102D2000B9C09A85892F88728A871F82892F8595D5
:102D30008074282F2260892F90E095958795807266
:102D40009927822B88878BE38987AE01495F5F4F84
:102D500063E086EB90E00E9472112AE230E0F70116
:102D600030A727A38BE290E092A781A74CE250E026
:102D700054A743A736A725A730AB27A792AB81ABB3
:102D800094AB83ABAE01465F5F4F61E086E390E0BA
:102D90000E9472118A8590E0F70194A383A3F70142
:102DA000868980FF1CC0858D968D92FD18C087A1F5
:102DB00090A521A532A530A727A392A781A785A515
:102DC00096A521A932A936A725A792AB81AB87A5E5
:102DD00090A923A934A930AB27A794AB83ABF70103
:102DE0000285138501501109208531852150310953
:102DF00050E040E070E060E0C7010E943214F7014B
:102E000066817781878D90A120E08732F3E99F0763
:102E100009F420E2F701358D30FF39C119821A8299
:102E20007B836C831D822E83AE014F5F5F4F66E014
:102E300083E390E00E94721119821A82AE014F5F03
:102E40005F4F62E087E390E00E947211F701858D89
:102E500080FF07C050E040E060E083E190E00E9426
:102E600072112A960FB6F894DEBF0FBECDBFDF9168
:102E7000CF911F910F91FF90EF900895248135819C
:102E80001CCF2681378121CF88E22CCF88E92ACF39
:102E900088EF28CF273243E9340789F41F8281E382
:102EA00088878A8585958595859585958870898794
:102EB000AE01495F5F4F63E080EC90E04CCF23367A
:102EC00089E1380749F02138E4E93E0729F021314A
:102ED000F5E13F0709F041CF8A8587FF02C0816095
:102EE0008A878A8586FF02C082608A878A858F7377
:102EF000233649E1340731F0213884E9380721F4D9
:102F00008A858F728A8729CF2131354109F025CFF3
:102F10008A858F7E806CF6CF6A85862F062E000C00
:102F2000990B2339F7E73F0751F0A8F52435E1E085
:102F30003E0709F45CC02032F4E53F07A1F540E00C
:102F400052E0F70150A747A341E052E052A741A742
:102F500042E052E054A743A740E152E056A745A7FC
:102F600041E152E050AB47A742E152E052AB41ABE6
:102F700043E152E054AB43AB882790782632F3E923
:102F80003F0721F02032344509F071C067FD8460AD
:102F900060E071E36EC0263243E9340781F22930E4
:102FA000E5EB3E0761F220E230E0F70130A727A30E
:102FB00021E230E032A721A722E230E034A723A7A4
:102FC00020E530E036A725A721E530E030AB27A784
:102FD00022E530E032AB21AB23E530E034AB23AB6C
:102FE000BC0166277078776280E690E046C027E3F0
:102FF00030E0F70136A725A726E330E030AB27A75E
:1030000029E330E032AB21AB28E330E034AB23AB33
:1030100020E230E030A727A321E230E032A721A749
:1030200022E230E034A723A7F4E06F9FB00111241F
:1030300066277170882792708862682B792B81E0EF
:1030400090E00E94A3118A85682F70E075956795BE
:10305000759567956870772783FD70616063F701E8
:1030600074A363A383E090E00E94A31198CE60E074
:1030700072E6682B792B80E094E00E94A3116A85A8
:10308000F4E06F9FB001112466277170D8CF8339A7
:10309000F7E79F07D9F1F0F4803244E59407B1F1E6
:1030A0008338E7E79E0731F184359140F1F46150B0
:1030B000710981E390E00E94A31170E060E082E377
:1030C00090E00E94A31170E060E083E390E00E9432
:1030D000A311C7CE863223E99207C1F0893045EBB0
:1030E0009407A1F08532924911F3F70161A172A111
:1030F000626003C0F70161A172A181E690E00E94C5
:10310000A31170E060E08AE690E0E1CFF70161A1F1
:1031100072A1626081E094E00E94A31170E060E01F
:1031200084E094E0D4CFEF92FF920F931F93CF935C
:10313000DF931F92CDB7DEB78C010E94DC11109295
:10314000F9021092F8021093FD020093FC02013381
:1031500020E8120709F457C308F0CDC0033550E248
:10316000150709F4A6C308F065C0013195E11907F8
:1031700009F490C110F50939110509F453C350F44D
:1031800080E091E10130110579F01092E202109295
:10319000E1027DC1043541E0140709F46CC105303A
:1031A000154199F784E090E19093FB028093FA0235
:1031B00068ED70E08BEF9FE068C1013885E118078A
:1031C00009F486C3A0F4003225E1120709F4C8C24D
:1031D00006321541D1F683E194E09093FB0280938F
:1031E000FA023CE0E32EF12C0AEA1DE06AC102304B
:1031F00056E1150709F451C30336194131F681E050
:1032000080933E0283E59AE09093FB028093FA025A
:1032100080EE91E09093E4028093E30280E293E0F9
:103220009093E2028093E10223E5E22EF12C07E580
:103230001DE047C1093098E6190709F40BC300F5F2
:10324000053345E4140709F497C280F409321243A8
:1032500009F09BCF83E096E09093FB028093FA0203
:1032600090E4E92EF12C07E11DE02BC1003193E53C
:10327000190709F48CC20830144509F493CF85CF9F
:10328000093847E7140709F4B2C2A0F4043188E60C
:10329000180709F494C20338174709F076CF82E083
:1032A00091E19093FB028093FA0268E870E083ED6D
:1032B00090E1EBC0033927E7120709F43CC3063954
:1032C000174709F062CF83E094E09093FB0280936C
:1032D000FA0280EE91E09093E4028093E30280E4AE
:1032E00091E09093E2028093E1022DE0E22EF12C36
:1032F00007E81BE0E6C0083353E9150709F4E2C20A
:1033000008F04EC0053293E91907E1F160F5003984
:1033100040E9140709F483C2E0F40735134809F0C3
:1033200034CF83E094E19093FB028093FA0280EE25
:1033300091E09093E4028093E30280E491E0909323
:10334000E2028093E102A2E0EA2EF12C0DEB1CE0F8
:10335000B8C0023093E9190709F4B1C20032134929
:1033600009F420CF12CF093243E9140709F4ADC2A2
:1033700060F4073283E9180709F477C20832134969
:1033800009F003CF80E091E167C2013323E912071E
:1033900021F00533134909F0F8CE80E090E15CC2DA
:1033A000093854E91507C8F5073884E9180708F003
:1033B000AAC2013894E9190709F4A2C290F4005492
:1033C00013490230110508F0E0CE83E194E09093B8
:1033D000FB028093FA0255E6E52EF12C04E11CE095
:1033E00070C00638144909F0D0CE83E094E0909381
:1033F000FB028093FA0280EE91E09093E4028093C6
:10340000E30280E491E09093E2028093E1023BE3E7
:10341000E32EF12C04E91BE054C0093055EB1507ED
:1034200009F489C2A0F401319CEA190709F444C2E5
:103430000530154B09F0A9CE88E090E19093FB028E
:103440008093FA0260EB70E08FE79EE01EC00530CB
:1034500045EC140789F383E19EE00115134E09F052
:1034600094CE9093FB028093FA0263E0E62EF12C57
:1034700009E71CE026C082E090E19093FB02809374
:10348000FA026CE970E087EF91E10E94CD1310E041
:1034900000E017C083E090E09093FB028093FA0273
:1034A00080EE91E09093E4028093E30280E491E067
:1034B0009093E2028093E10253E0E52EF12C0CEBB5
:1034C0001DE02091FB02822F82958F7090E0817029
:1034D00099279093FF028093FE020115110581F058
:1034E00069E070E083E59BE00E942611B701C80106
:1034F0000E94261166E070E08DE49BE00E94261198
:1035000060E08DED92E00E94441660E08DED92E067
:103510000E94EF138091FC029091FD02883894493B
:1035200009F016C110923D0220EE3FEF50E040E05E
:1035300070E060E08DED92E00E94BA15F090080313
:10354000E09009038091FA0280FF03C08EE2F82E1A
:10355000E12C8091FC029091FD028230964119F499
:103560000EE2F02EE12C10E000E030E020E050E030
:1035700040E070E060E08DED92E00E9432148091B6
:10358000FA0280FD10C070E060E080910403909129
:1035900005030E94A31170E060E080910603909102
:1035A00007030E94A3114398429885B18C7F9E2DFA
:1035B0009370892B85B99BB193705E2D5C7FE52E4E
:1035C000E92AEBB84198419A85B18C7F9F2D937081
:1035D000892B85B99BB193708F2D8C7FF82EF92A9A
:1035E000FBB84198419A429A84B18C7F84B98AB1E0
:1035F00083708AB92091FA023091FB028091FC021B
:103600009091FD0226FD0EC0409A40984098409847
:1036100043B149B1409A20FD05C0893842E1940781
:1036200009F09CC18131954139F4409A4098409805
:10363000409883B189B1409AB90164707727409A64
:1036400040984098409824FFA6C193B189B19370E7
:103650008C7F982B409A409A40984098409843B16C
:1036600089B143708C7F482B409A409A409840988B
:10367000409883B1E9B083705E2D5C7F852B409AC2
:1036800050E0672B09F472C1E82EF12CFE2CEE24D9
:10369000EE2488EFF82213E0440F551F1A95E1F746
:1036A000407E5770E42AF52A969596959695E92AD4
:1036B00080913D02882399F0C70135E09695879562
:1036C0003A95E1F780729927A701569547954F7172
:1036D0005527842B952B50ECE522E82AF92A409AAD
:1036E000439A84B1836084B98AB18C6F8AB920FD12
:1036F00014C00091E7021091E802015011092091D5
:10370000E5023091E6022150310950E040E070E0DE
:1037100060E08DED92E00E9432148FE1E8168FEFA9
:10372000F806B1F486E08983AE014F5F5F4F61E038
:103730008AE390E00E9472118091FA029091FB025C
:103740008F7E9093FB028093FA0281E080933D028A
:103750000F90DF91CF911F910F91FF90EF900895FF
:1037600083E194E09093FB028093FA0246E0E42E1A
:10377000F12C06EB1DE0A5CE80E090E19093FB02DA
:103780008093FA026CE970E08BE591E17ECE83E1F3
:103790009EE09093FB028093FA0280EE91E090937A
:1037A000E4028093E30280E491E09093E20280934C
:1037B000E10282E0E82EF12C05E11DE082CE83E0FB
:1037C00094E09093FB028093FA0280EE91E0909354
:1037D000E4028093E30280E491E09093E20280931C
:1037E000E10203E0E02EF12C02E11DE06ACE83E16C
:1037F00094E09093FB028093FA0211E4E12EF12C05
:1038000001ED1CE05ECE83E194E19093FB02809396
:10381000FA02B2E1EB2EF12C0FEB1CE052CE83E169
:1038200094E181CD83E194E19093FB028093FA02CD
:1038300080EE91E09093E4028093E30280E491E0D3
:103840009093E2028093E102FDE1EF2EF12C00EA79
:103850001CE037CE82E091E19093FB028093FA0264
:103860006CEC70E08FE29FE010CE83E094E09093E8
:10387000FB028093FA0280E991E09093E402809346
:10388000E30280EF90E09093E2028093E102EEE1A8
:10389000EE2EF12C02E81CE014CE83E094E090932D
:1038A000FB028093FA0276E0E72EF12C0CE71CE095
:1038B00008CE87E194E1D5CD83E194E1D2CD83E0D8
:1038C00094E0CFCD83E194E0CCCD83E096E1C9CD07
:1038D00083E194E09093FB028093FA0280EE91E002
:1038E0009093E4028093E30280E491E09093E202FB
:1038F0008093E10245E4E42EF12C0FEC1BE0E1CDD6
:1039000087E094E0E7CF83E194E09093FB0280931B
:10391000FA0280EE91E09093E4028093E30280E467
:1039200091E09093E2028093E1029BE2E92EF12C78
:103930000CE51BE0C6CD80E090E19093FB02809304
:10394000FA0260EC70E08FEB9DE00E94CD1380E9FD
:1039500091E09093E4028093E30299CD409A4098DD
:103960004098409843B149B1409A5CCEE92EF12C81
:10397000FE2CEE24EE2498EFF922A3E0440F551F0D
:10398000AA95E1F7407E5770E42AF52A8695869538
:103990008695E82A8DCEE3B099B1409A409A409836
:1039A0004098409883B149B183704C7F842B409AF2
:1039B0004E2D4370E42E9C7FE92AFE2CE82E23FF37
:1039C00003C0F826EF24FE24672B09F471CEC7014B
:1039D000807E9770A701452F5527469546954695B9
:1039E000842B952BFE2CEE24FF0CFF0CFF0CE82AF9
:1039F000F92A5ECEEF92FF920F931F93DC01ED91B7
:103A0000FC9100A0F1A1E02D780101E010E0099502
:103A10001F910F91FF90EF900895EF92FF920F93F7
:103A20001F93DC01ED91FC9100A0F1A1E02D780144
:103A3000890121E030E009951F910F91FF90EF90EF
:103A40000895089590E080E00895EF92FF920F931B
:103A50001F93DC011A960D911C911B9718962D91BE
:103A60003C911997ED91FC9100A0F1A1E02D7B0113
:103A700050E040E070E060E009951F910F91FF90E9
:103A8000EF9008950E946723FB0101900020E9F761
:103A90003197AF01461B570BDC01ED91FC91028081
:103AA000F381E02D0994CF93DF930E94620AEC0129
:103AB00069E571E080E492E00E94441D8C0F9D1F37
:103AC000DF91CF9108958F929F92AF92BF92EF9224
:103AD000FF920F931F93CF93DF93CDB7DEB7A197DC
:103AE0000FB6F894DEBF0FBECDBF7C01FA01CB014B
:103AF00019A2223008F42AE08E010F5D1F4F822E9A
:103B0000912CB12CA12CBF01A50194010E943F234F
:103B1000F901CA016A300CF5605DD8016E938D0120
:103B2000232B242B252B79F790E080E0109721F0B0
:103B3000BD01C7010E94441DA1960FB6F894DEBFD7
:103B40000FBECDBFDF91CF911F910F91FF90EF90EE
:103B5000BF90AF909F908F900895695CDECFCF9219
:103B6000DF92EF92FF920F931F93CF93DF93EC01BD
:103B70006A017B01E881F9810190F081E02D6DE21D
:103B800009958C0144275527BA014C195D096E0926
:103B90007F092AE0CE010E94631D800F911FDF91F3
:103BA000CF911F910F91FF90EF90DF90CF900895EC
:103BB000AB01770F660B770B77FD0C94AF1D2AE0F6
:103BC0000C94631D009729F0BC018DED92E00C94DC
:103BD000441D90E080E008951F93CF93DF9385ED1F
:103BE0008093BC008091C5019091C601A091C7014E
:103BF000B091C8010796A11DB11D23E0B695A79508
:103C0000979587952A95D1F72091BC0024FD03C094
:103C100010920D0252C04091C5015091C6016091B1
:103C2000C7017091C801452B462B472B69F30097BC
:103C3000A105B10541F025E32A95F1F700000197B0
:103C4000A109B109E1CF8091C401C1E0C093C301D2
:103C5000882399F1D091B8001091BA008091BC00EE
:103C60008A7B8093BC0060E082E10E949D0A60E054
:103C700083E10E949D0A10920D02C0930F021092E0
:103C80000E0261E082E10E949D0A61E083E10E94F0
:103C90009D0A8091B9008E7F8093B9008091B90010
:103CA0008D7F8093B90088E48093B80085E4809389
:103CB000BC001093BA00D093B800DF91CF911F9150
:103CC00008951F920F920FB60F9211242F933F93D6
:103CD0004F935F936F937F938F939F93AF93BF9314
:103CE000EF93FF9380E492E00E94F309FF91EF913C
:103CF000BF91AF919F918F917F916F915F914F9104
:103D00003F912F910F900FBE0F901F9018951F920B
:103D10000F920FB60F9211242F938F939F93EF93CF
:103D2000FF93E0915002F09151028081E0915602A0
:103D3000F091570282FD1BC09081809159028F5FE4
:103D40008F7320915A02821741F0E0915902F0E0FE
:103D5000E05CFD4F958F80935902FF91EF919F9109
:103D60008F912F910F900FBE0F901F90189580810B
:103D7000F4CF1F920F920FB60F9211242F933F93FF
:103D80008F939F93AF93BF938091340290913502AC
:103D9000A0913602B09137023091330223E0230F15
:103DA0002D3758F50196A11DB11D20933302809344
:103DB000340290933502A0933602B093370280917B
:103DC000380290913902A0913A02B0913B020196DB
:103DD000A11DB11D8093380290933902A0933A023D
:103DE000B0933B02BF91AF919F918F913F912F91E3
:103DF0000F900FBE0F901F90189526E8230F029684
:103E0000A11DB11DD2CF1F920F920FB60F92112498
:103E10002F933F934F935F936F937F938F939F93D2
:103E2000AF93BF93EF93FF938091B900887F803663
:103E300009F44AC0F0F5883209F4A5C018F58031BC
:103E400009F499C0B8F4882309F4F5C0883009F45E
:103E500092C0FF91EF91BF91AF919F918F917F9110
:103E60006F915F914F913F912F910F900FBE0F90E7
:103E70001F901895883109F486C0803251F78093DD
:103E80000C0214C0803409F49BC040F48033B9F3B1
:103E90008833F9F680930C0285ECAEC0803509F4C6
:103EA00083C0883509F494C0883499F60E94EC1DCB
:103EB000D0CF883909F48AC038F5883729F050F412
:103EC000883611F0803729F683E080930D02109236
:103ED0000B0255C0883809F479C0803919F0803850
:103EE00009F0B7CF80910B02803208F06FC0E091EB
:103EF0000B0281E08E0F80930B028091BB00F0E0FB
:103F0000E551FE4F80833BC0803B39F0D0F4803ACE
:103F100009F477C0883A09F09CCF84E080930D02C1
:103F20001092EA011092E901F0E0E0E00995809139
:103F3000E90181110FC081E08093E9011092C9016C
:103F400009C0803C09F4A8CF883C09F4A5CF883B80
:103F500009F07FCFE091EA0181E08E0F8093EA01C2
:103F6000F0E0E753FE4F80818093BB009091EA011F
:103F70008091E90129C0809132028093BB0085ECD9
:103F80008093BC0066CF90913102809130029817E7
:103F900058F5E091310281E08E0F80933102F0E01C
:103FA000E05FFD4F8081E9CFE091310281E08E0F2B
:103FB000809331028091BB00F0E0E05FFD4F808391
:103FC00090913102809130029817C8F285E8D8CFDD
:103FD000E091310281E08E0F809331028091BB002D
:103FE000F0E0E05FFD4F808380910F0281115ECF92
:103FF00081E080930E0284EA8093BC0010920D024F
:1040000028CF85EC8093BC0010920D0280910B02AA
:10401000803230F4E0910B02F0E0E551FE4F108267
:1040200060910B0270E08BEE91E0F0E0E0E009952A
:1040300010920B020ECF10920C0238CFE0E4F2E0A7
:104040001382128288EE93E0A0E0B0E0848395832F
:10405000A683B7838FE191E09183808385EC90E024
:104060009587848784EC90E09787868780EC90E042
:10407000918B808B81EC90E0938B828B82EC90E033
:10408000958B848B86EC90E0978B868B118E128EAD
:10409000138E148EEDEDF2E01382128220EF30E0E9
:1040A0003583248380E491E097838683318720875A
:1040B00093878287168A158614861786168681E06E
:1040C000858B848B2FEF3FEF338B228B318B208BB3
:1040D000878B108E128E118E81E391E09183808305
:1040E0000895CF93DF93CDB7DEB768970FB6F894F6
:1040F000DEBF0FBECDBF789484B5826084BD84B529
:10410000816084BD85B5826085BD85B5816085BDD2
:1041100080916E00816080936E001092810080918A
:104120008100826080938100809181008160809312
:104130008100809180008160809380008091B10037
:1041400084608093B1008091B00081608093B00062
:1041500080917A00846080937A0080917A008260F6
:1041600080937A0080917A00816080937A008091B8
:104170007A00806880937A001092C100E09150022A
:10418000F091510282E08083E0914C02F0914D0267
:104190001082E0914E02F0914F028FEC80831092DA
:1041A0005802E0915402F091550286E08083E0913C
:1041B0005202F0915302808180618083E09152022B
:1041C000F0915302808188608083E0915202F091E7
:1041D0005302808180688083E0915202F091530203
:1041E00080818F7D80830E94B9126C018FE19BE0FA
:1041F0000E94531D81EF9AE00E94531D80EF9AE0C8
:104200000E94531D84ED9AE00E94620AA60170E0AC
:1042100060E020E180E492E00E94631D69E571E0C6
:1042200080E492E00E94441D83ED9AE00E94531DB9
:104230008BEB9AE00E94620A2AE043E050E060E0E3
:1042400070E080E492E00E94631D89EB9AE00E9496
:10425000620A2AE040E050E0BA0180E492E00E9465
:10426000631D87EB9AE00E94620A2AE040E050E07A
:10427000BA0180E492E00E94631D69E571E080E488
:1042800092E00E94441D86EB9AE00E94531D84E058
:10429000C816D80631F580E99AE00E94531D86E6DB
:1042A0009AE00E94531D83E39AE00E94531D88E127
:1042B0009AE00E94531D8EEF99E00E94531D8EECF0
:1042C00099E00E94531D82EA99E00E94531D85E700
:1042D00099E00E94531D80E599E00E94531DC6019C
:1042E0001DC093EDC916D906D1F78AE299E00E9464
:1042F000531D85E199E00E94620A20E141E854E9FA
:1043000060E070E080E492E00E94631D69E571E086
:1043100080E492E00E94441D81E894E90E94931891
:1043200084E199E00E94531D8091E5029091E6029C
:10433000892B09F045C08BEF98E00E94531D81ED59
:1043400098E00E94531D8AEA98E00E94531D8CE871
:1043500098E00E94531D81E798E00E94531D80E77A
:1043600098E00E94531D8BE498E00E94531D8FE259
:1043700098E00E94531D89E098E00E94531D8AED49
:1043800097E00E94531D8AEA97E00E94531D83E93B
:1043900097E00E94531D82E997E00E94531D85E635
:1043A00097E00E94531D85E397E00E94531D8EE025
:1043B00097E00E94531D86ED96E00E94531DFFCFAB
:1043C00089EC96E00E94620A6091E5027091E60233
:1043D00080E492E00E94D81D85EC96E00E94620A7B
:1043E0004091E7025091E802052E000C660B770B16
:1043F00077FF3CC180E492E00E94AF1D69E571E067
:1044000080E492E00E94441D84EC96E00E94531DDB
:104410008CE996E00E94531D8AE696E00E94531DA7
:1044200080E396E00E94531D82E096E00E94531DB7
:104430008CED95E00E94531D8BED95E00E94531D7D
:104440008EEA95E00E94531D42E0342E58E2C52EBC
:10445000D12C2224239460E0462E60E0562E88E082
:10446000E3E0F1E0DE01519601900D928A95E1F7CB
:1044700088E0EBE0F1E0DE01199601900D928A955B
:10448000E1F788E0E3E1F1E0DE01119601900D92A1
:104490008A95E1F70E94B9123C0110913C02612F0C
:1044A0008DED92E00E9444168090E5029090E60225
:1044B000A090E702B090E802E12FF0E0EE0FFF1FBE
:1044C00081E090E08C0F9D1FE80FF91F60817181E2
:1044D0008DED92E00E94251DEE24EA94FE2C8501CC
:1044E000940150E040E070E060E08DED92E00E94C9
:1044F0009F0E0054110994012054310940E250E00C
:1045000060E270E08DED92E00E949F0E3092F10229
:104510003092F2021092F0021092EF021092EE022C
:104520001092ED02D092EA02C092E902D092EC021F
:10453000C092EB028CE591E00E94E21DA30170E0C5
:1045400060E020E18DED92E00E94631D93ED69161D
:10455000790621F482E691E00E94E21DD092EA02FF
:10456000C092E90286E490E09093EC028093EB0223
:10457000E0913C02F0E0EE0FFF1F81E090E08C0F35
:104580009D1FE80FF91F808991890E94E21DD0923A
:10459000EA02C092E90284E690E09093EC028093F4
:1045A000EB02B4018DED92E00E94D81D87E691E008
:1045B0000E94E21DB5018DED92E00E94D81D8FEFA3
:1045C0009FEF9093F0028093EF029093EE0280931E
:1045D000ED02D092EA02C092E90282E890E0909364
:1045E000EC028093EB02E0913C02F0E0EE0FFF1F43
:1045F00081E090E08C0F9D1FE80FF91F8085918569
:104600000E94E21DD092EA02C092E90280EA90E0A4
:104610009093EC028093EB022092F1022092F2023E
:104620008BE691E00E94E21D2AE04CE251E060E05E
:1046300070E08DED92E00E94631D80913C028F5FDF
:104640008430D0F480933C0268E873E180E090E02D
:104650000E940E0B4114510409F401CF0E94DF099E
:10466000882309F4FCCE0E940000F9CE2AE080E401
:1046700092E00E94631DC2CE10923C02E5CFA1E2FF
:104680001A2EAA1BBB1BFD010DC0AA1FBB1FEE1FCC
:10469000FF1FA217B307E407F50720F0A21BB30B17
:1046A000E40BF50B661F771F881F991F1A9469F793
:1046B00060957095809590959B01AC01BD01CF01EF
:1046C0000895EE0FFF1F0590F491E02D099481E00D
:1046D00090E0F8940C946C23F894FFCFFF83577FFD
:1046E00001880192019F01AD01B201B801BC011F17
:1046F00000E00700F8108400000000150A7509A208
:10470000097D0AD309B109C50900000000CD0D7566
:1047100009221D211DBA15680B72104A1066105A25
:10472000107910680B4416EF130D1DFA1CC71425E1
:104730001DFE0E9F0E0D0A0049443D307800207783
:104740002F6F00207820004D4355465249454E4476
:104750005F4B42565F485F203D2000504F525452FD
:10476000414954004C414E44534341504500504F41
:104770005254524149545F524556004C414E4453A5
:10478000434150455F52455600424C554500475203
:0E47900045454E005245440047524159000035
:107E0000112484B714BE81FFF0D085E080938100F7
:107E100082E08093C00088E18093C10086E0809377
:107E2000C20080E18093C4008EE0C9D0259A86E02C
:107E300020E33CEF91E0309385002093840096BBD3
:107E4000B09BFECF1D9AA8958150A9F7CC24DD24C4
:107E500088248394B5E0AB2EA1E19A2EF3E0BF2EE7
:107E6000A2D0813461F49FD0082FAFD0023811F036
:107E7000013811F484E001C083E08DD089C08234E0
:107E800011F484E103C0853419F485E0A6D080C0E4
:107E9000853579F488D0E82EFF2485D0082F10E0AE
:107EA000102F00270E291F29000F111F8ED06801E7
:107EB0006FC0863521F484E090D080E0DECF843638
:107EC00009F040C070D06FD0082F6DD080E0C81688
:107ED00080E7D80618F4F601B7BEE895C0E0D1E017
:107EE00062D089930C17E1F7F0E0CF16F0E7DF06D8
:107EF00018F0F601B7BEE89568D007B600FCFDCFD4
:107F0000A601A0E0B1E02C9130E011968C91119780
:107F100090E0982F8827822B932B1296FA010C0160
:107F200087BEE89511244E5F5F4FF1E0A038BF0790
:107F300051F7F601A7BEE89507B600FCFDCF97BE46
:107F4000E89526C08437B1F42ED02DD0F82E2BD052
:107F50003CD0F601EF2C8F010F5F1F4F84911BD097
:107F6000EA94F801C1F70894C11CD11CFA94CF0C13
:107F7000D11C0EC0853739F428D08EE10CD085E9AC
:107F80000AD08FE07ACF813511F488E018D01DD067
:107F900080E101D065CF982F8091C00085FFFCCF94
:107FA0009093C60008958091C00087FFFCCF809118
:107FB000C00084FD01C0A8958091C6000895E0E648
:107FC000F0E098E1908380830895EDDF803219F02E
:107FD00088E0F5DFFFCF84E1DECF1F93182FE3DFCA
:107FE0001150E9F7F2DF1F91089580E0E8DFEE27F6
:047FF000FF270994CA
:027FFE00040479
:00000001FF
