:100000000C9450010C9481010C9481010C94810199
:100010000C9481010C9481010C9481010C94810158
:100020000C9481010C9481010C9481010C94810148
:100030000C9481010C9481010C9481010C94810138
:100040000C9481010C9481010C9481010C94810128
:100050000C9481010C9481010C9481010C946B111E
:100060000C9481010C9435110C940B110C948101AA
:100070000C9481010C9481010C9481010C948101F8
:100080000C9481010C9481010C9481010C948101E8
:100090000C9481010C9481010C9481010C948101D8
:1000A0000C9481010C9481010C9481010C948101C8
:1000B0000C9481010C9481010C9481010C948101B8
:1000C0000C9481010C9481010C9481010C948101A8
:1000D0000C9481010C9481010C9481010C94810198
:1000E0000C9481010C94E5050C9486150C948E15E6
:1000F0000C94E4010C94A2150C9494150C949704A0
:100100000C94F3010C9407050C94FF040C94C9099A
:100110000C94110B0C9474070C947A130C946F15B7
:100120000C9403050C949C150C94B7010C94980442
:100130000C9415020C9417050C9407020C946B1583
:100140000C94960A0C9480150C944D020C94731523
:100150000C9467150C9498150C947C150C94DA0883
:100160000C941E050C94BB080C9476150C94A615E3
:100170000C94140E0C949A020C94B5110C948A15DC
:100180000C9404090C947F130C94AE040C94B304E7
:100190000C94F2050C944C0600000A0B02090C0D9D
:1001A0000E0807030401000000000000000000002A
:1001B000000000000000000000000000000000003F
:1001C00000000000121110000000000000000000FC
:1001D000000000000000000000000000000000001F
:1001E0002200250028002B002E00310034000201DF
:1001F0000000050108010B01000021002400270078
:100200002A002D0030003300010100000401070125
:100210000A0105050505070508080808020202028B
:100220000A0A080804040404010101010101010192
:100230000303030303030303040707070C0C0C0C5D
:100240000C0C0C0C02020202060606060606060646
:100250000B0B0B0B0B0B0B0B0102102020080810D3
:100260002040102040800201020108040201010226
:1002700004081020408080402010080402018004FF
:10028000020180402010080402010804020101025A
:100290000408102040800102040810204080B5119D
:1002A00011241FBECFEFD1E2DEBFCDBF00E00CBFF7
:1002B00012E0A0E0B2E0E0E3F0E300E00BBF02C038
:1002C00007900D92AA3BB107D9F724E0AAEBB2E060
:1002D00001C01D92A934B207E1F711E0C0E5D1E0F9
:1002E00000E006C021970109802FFE010E94EC1753
:1002F000CF34D10780E00807A9F70E9440120C9480
:1003000016180C9400008CBD9DBD089520E3FC01DF
:1003100020833296862F82958F706F706A3030F40A
:10032000605D6293682F8111F5CF0895695CF9CF04
:1003300090E0FC01E85AFD4F24918E5E9D4FFC0138
:100340008491882399F090E0880F991FFC01E85070
:10035000FE4FA591B491FC01E252FE4F859194911C
:100360008FB7F894EC91E22BEC938FBF0895AF9286
:10037000BF92CF92DF92EF92FF920F931F93CF9392
:10038000DF936C017B018B01040F151FEB015E01F4
:10039000AE18BF08C017D10759F06991D601ED9189
:1003A000FC910190F081E02DC6011995892B79F718
:1003B000C501DF91CF911F910F91FF90EF90DF90DA
:1003C000CF90BF90AF900895FC01538D448D252FA1
:1003D00030E0842F90E0821B930B541710F0CF96DF
:1003E000089501970895FC01918D828D981761F011
:1003F000A28DAE0FBF2FB11D5D968C91928D9F5F28
:100400009F73928F90E008958FEF9FEF0895FC0106
:10041000918D828D981731F0828DE80FF11D858DB9
:1004200090E008958FEF9FEF0895FC01918D228D4C
:10043000892F90E0805C9F4F821B91098F739927D1
:1004400008958AE693E00E94150221E0892B09F4C1
:1004500020E0822F0895FC01A48DA80FB92FB11DB3
:10046000A35ABF4F2C91848D90E001968F739927EA
:10047000848FA689B7892C93A089B1898C918370C8
:1004800080648C93938D848D981306C00288F389C1
:10049000E02D80818F7D80830895EF92FF920F93EE
:1004A0001F93CF93DF93EC0181E0888F9B8D8C8D20
:1004B00098131AC0E889F989808185FF15C09FB714
:1004C000F894EE89FF896083E889F98980818370D7
:1004D000806480839FBF81E090E0DF91CF911F9186
:1004E0000F91FF90EF900895F62E0B8D10E00F5FA7
:1004F0001F4F0F731127E02E8C8D8E110CC00FB67D
:1005000007FCFACFE889F989808185FFF5CFCE0114
:100510000E942B02F1CFEB8DEC0FFD2FF11DE35A62
:10052000FF4FF0829FB7F8940B8FEA89FB89808197
:100530008062CFCFCF93DF93EC01888D8823B9F011
:10054000AA89BB89E889F9898C9185FD03C08081DE
:1005500086FD0DC00FB607FCF7CF8C9185FFF2CF5B
:10056000808185FFEDCFCE010E942B02E9CFDF9184
:10057000CF91089580E090E0892B29F00E9421021C
:1005800081110E94000080E090E0892B49F080E01A
:1005900090E0892B29F00E94000081110E94000048
:1005A00080E090E0892B49F080E090E0892B29F0F1
:1005B0000E94000081110E94000080E090E0892BE1
:1005C00049F080E090E0892B29F00E940000811121
:1005D0000C94000008953FB7F8948091BF02909169
:1005E000C002A091C102B091C20226B5A89B05C06D
:1005F0002F3F19F00196A11DB11D3FBFBA2FA92FA2
:10060000982F8827BC01CD01620F711D811D911D9E
:1006100042E0660F771F881F991F4A95D1F708950A
:100620008F929F92AF92BF92CF92DF92EF92FF9202
:100630004B015C010E94EB026B017C010E94EB020A
:100640006C197D098E099F09683E734081059105EB
:10065000A8F321E0821A9108A108B10888EEC80E1B
:1006600083E0D81EE11CF11C81149104A104B104A3
:1006700029F7FF90EF90DF90CF90BF90AF909F90C1
:100680008F9008952FB7F8946091BB027091BC02CF
:100690008091BD029091BE022FBF0895FC01208180
:1006A0002EBD9B012150310941F051810DB407FE4F
:1006B000FDCF4EB55EBD4193F5CF61507109860FF8
:1006C000971F0DB407FEFDCF2EB5FC0120830895C2
:1006D000E091C402F091C50280819091C302892B00
:1006E00080830895E091C402F091C50290818091C9
:1006F000C30280958923808308958EBD00000DB4C8
:1007000007FEFDCF8EB50895AF92BF92CF92DF92D4
:10071000EF92FF920F931F93CF93DF9300D000D0FF
:100720001F921F92CDB7DEB78C017B016A018091C9
:1007300069038333E1F45801A40EB51EA016B10677
:1007400009F46FC00E94720380EF0E947D03812F25
:100750000E947D03802F0E947D030F5F1F4FF701D2
:1007600081917F010E947D030E946803E7CF5B01B6
:10077000A40EB51E8433C1F40E94720319830A8348
:100780008D2D80688B83CC8264E070E0CE01019671
:100790000E944E03AE14BF0409F441C0F7018191D9
:1007A0007F010E947D03F6CF0E9472030F3F110567
:1007B00009F028F419820A8384E08B830CC017FDAA
:1007C00017C019820A8333E0169507953A95E1F729
:1007D000007E0C600B8386E0C816D104A0F5F701FB
:1007E000DE011496EA15FB0599F081918D93FACFFD
:1007F000C80126E0969587952A95E1F7807E1983B2
:100800000A830115104C10F48461D7CF8C61D5CFC9
:10081000B6016D5F7F4FCE0101960E944E030E948C
:100820006803C60128960FB6F894DEBF0FBECDBF91
:10083000DF91CF911F910F91FF90EF90DF90CF90BC
:10084000BF90AF90089563E070E0CE0101960E94E2
:100850004E03F70181917F010E947D03AE14BF0416
:10086000C1F7DDCFCF93DF931F92CDB7DEB789837A
:1008700041E050E0BE016F5F7F4F90E080E00E945A
:1008800084030F90DF91CF91089590E02091690348
:10089000233339F40C96982F990F990F990F80E014
:1008A00008954896F8CFDA01E091C702F0E0FE2FF4
:1008B000EE27E60FF71F90E0982F8827A901BD01CA
:1008C0008E0F9F1F0C948403CF93DF931F921F9270
:1008D000CDB7DEB779836A8322E030E0AE014F5FA7
:1008E0005F4F64E070E00E9453040F900F90DF911F
:1008F000CF910895CF93DF931F92CDB7DEB72091AC
:10090000C70230E0322F2227260F371F90E0982FA2
:100910008827498341E050E0BE016F5F7F4F820F1F
:10092000931F0E9484030F90DF91CF910895089543
:10093000CF93DF931F92CDB7DEB76983DC01ED91D2
:10094000FC910280F381E02D41E050E0BE016F5F39
:100950007F4F19950F90DF91CF910895FC01818D04
:10096000928D08950895DF92EF92FF920F931F9357
:10097000CF93DF931F921F92CDB7DEB7FB01DC014F
:1009800057961C921E9256972281211109C02381ED
:10099000211106C02481211103C02581222369F180
:1009A0004115510551F17A018F01FC01D08C80E590
:1009B00091E00E948301A8014E5F5F4F24E030E088
:1009C0006CE070E08D2D0E945304F982EA8222E0EF
:1009D00030E0AE014F5F5F4F60E170E08D2D0E940F
:1009E000530481E090E00F900F90DF91CF911F9121
:1009F0000F91FF90EF90DF90089580E0F3CFFC011E
:100A0000848595850895FC0184899589089522E55A
:100A100032E0FC0131832083FB01408951896289E6
:100A20007389FC0142835383648375830895DC01D9
:100A3000ED91FC91048CF58DE02D199490E080E00F
:100A40000895AF92BF92CF92DF92EF92FF920F93F1
:100A50001F93CF93DF9300D01F92CDB7DEB78C01E9
:100A60006B017A01809169038333E9F45B016801CA
:100A7000C40ED51EC016D106A9F10E9472038FE0E4
:100A80000E947D03812F0E947D03802F0E947D03A1
:100A90000F5F1F4F80E00E947D03F50181935F018E
:100AA0000E946803E7CF843369F50E9472031983BB
:100AB0000A838F2D8F778B83EC8264E070E0CE0108
:100AC00001960E944E03A70170E060E0C6010E94FB
:100AD0000818E114F10421F0B701C6010E944E0389
:100AE0000E946803C7010F900F900F900F90DF9145
:100AF000CF911F910F91FF90EF90DF90CF90BF901B
:100B0000AF9008950E9472030F3F110509F030F471
:100B100019820A831B8263E070E0D1CF17FD0BC0FE
:100B200019820A8333E0169507953A95E1F7007E1E
:100B300008600B83F0CFC80126E0969587952A952B
:100B4000E1F7807E19830A830115104C18F4806147
:100B50008B83E1CF8861FCCFCF93DF931F92CDB71A
:100B6000DEB72091C70230E0322F2227260F371F31
:100B700090E0982F882741E050E0BE016F5F7F4FE3
:100B8000820F931F0E94210589810F90DF91CF91E1
:100B90000895CF93C82F462F61E070E00E947A0439
:100BA00061E070E08C2F0E94AC058111F9CFCF91EC
:100BB0000895CF93C82F80E591E00E94830160E102
:100BC00070E08C2FCF910C94C905CF93DF93EC018B
:100BD000888D883020F40E94D90588E0888FDF91C5
:100BE000CF910895CF93FC01C08D80E591E00E94E4
:100BF000830160E270E08C2F0E94C90562E070E022
:100C00008C2F0E94AC0584FD16C062E070E08C2F32
:100C10000E94AC0583FF0AC048E162E070E08C2FBF
:100C20000E947A0480E090E0CF91089580E591E001
:100C30000E948301E3CF40E162E070E08C2F0E94CC
:100C40007A0481E0F0CFCF93DF931F92CDB7DEB768
:100C500041E050E0BE016F5F7F4F90E080E00E9476
:100C6000210589810F90DF91CF910895CF93DF9374
:100C7000C4E1D0E00E942306882361F061E070E0C7
:100C800080E090E00E9410032197A1F780E0DF91BF
:100C9000CF91089581E0FBCF1F93CF93DF931F92F5
:100CA000CDB7DEB7FC01108D183020F5818D928D07
:100CB000892B01F180E591E00E948301812F0E9440
:100CC000450427E0129FF0011124EF5CFC4F2281C4
:100CD0003381377041E050E0BE016F5F7F4F820F7C
:100CE000931F0E942105898190E00F90DF91CF91A1
:100CF0001F9108958FEF9FEFF8CFDA01E091C702BF
:100D0000F0E0FE2FEE27E60FF71F90E0982F8827E0
:100D1000A901BD018E0F9F1F0C9421058F929F92F8
:100D2000AF92BF92CF92DF92EF92FF920F931F93F9
:100D3000CF93DF93CDB7DEB760970FB6F894DEBFE1
:100D40000FBECDBF7C0190916903911115C018E0D1
:100D5000812F60960FB6F894DEBF0FBECDBFDF9136
:100D6000CF911F910F91FF90EF90DF90CF90BF90A8
:100D7000AF909F908F90089508E0933309F404E0BA
:100D80006B0180E591E00E9483019E012F5F3F4F40
:100D90005901490110E063E070E0812F0E94AC0529
:100DA000F40181934F018823C1F01F5F0113F3CF3A
:100DB00000E0F50181915F018D3149F0883139F012
:100DC0008A51823020F00F5F1013F3CFC0CF60E163
:100DD00070E0802F0E94C905102FA12EB12C83EE48
:100DE00093E00197F1F742E870E060E0812F0E9404
:100DF0007A044FEF62E070E0812F0E947A04B6011E
:100E0000C114D10491F480910602909107020196D9
:100E10008115F0EC9F0708F464C09093070280935B
:100E200006026091060270910702812F0E946404FD
:100E300086E0ECE0F2E0DE01199601900D928A95D1
:100E4000E1F7F70183818F778C8784818D87858196
:100E50008E87A7014E5F5F4F24E030E06CE070E0CA
:100E6000812F0E945304DF86C88A22E030E0AE0161
:100E7000415F5F4F60E170E0812F0E94530426E0E4
:100E800030E0AE01475F5F4F66E070E0812F0E9467
:100E9000530461E070E0812F0E94C90527E02A9D7C
:100EA000C0012B9D900D11249C012F5C3C4F7901BA
:100EB000F9011182108222E030E0AE01415F5F4F04
:100EC00068E270E0812F0E947D068F8598899827BF
:100ED00089279827F70193838283168215821482CB
:100EE00037CF80E090EC99CFCF92DF92EF92FF92D4
:100EF0000F931F93CF93DF9300D000D0CDB7DEB711
:100F00008C016B017A01FC01808D883010F40E9405
:100F1000D90582E592E09A838983F60182819381E3
:100F2000A481B5818B839C83AD83BE83B701CE0141
:100F300001960E948E06F801808F8830A0F4F58615
:100F4000E486128E118E81E026960FB6F894DEBFED
:100F50000FBECDBFDF91CF911F910F91FF90EF900A
:100F6000DF90CF90089580E0EFCFFF920F931F9313
:100F7000CF93DF931F921F92CDB7DEB7F82E22E0FA
:100F800030E0AE014F5F5F4F66E270E00E947D0689
:100F900009811A8110270127102722E030E0AE01D5
:100FA0004F5F5F4F66E270E08F2D0E947D06898162
:100FB0009A819827892798270817190749F4C801A3
:100FC0000F900F90DF91CF911F910F91FF90089597
:100FD0008C01E3CF4F925F927F928F929F92AF925C
:100FE000BF92CF92DF92EF92FF920F931F93CF9316
:100FF000DF931F921F92CDB7DEB7782E6B014A01A7
:10100000A82EB12C27E0829FC0011124FC01EF5CC7
:10101000FC4F7F010081118180E591E00E948301F6
:101020000815190554F4872D0E94B507F70126818C
:101030008C01021B1109118300830115110529F58B
:1010400063E070E0872D0E94AC05843159F088235D
:1010500049F001E010E08C3111F410E000E011954E
:1010600001951109C8010F900F90DF91CF911F9149
:101070000F91FF90EF90DF90CF90BF90AF909F9037
:101080008F907F905F904F900895801691060CF49A
:10109000840187E08A9DF0018B9DF00D1124EF5CA7
:1010A000FC4FE280F380C114D10451F12701F7E035
:1010B0005F22872D0E944504840D951D20916903B0
:1010C000273309F453C09801240D351D21303840D1
:1010D00008F44CC020E038E0490184189508A401C8
:1010E000B6010E9421052601480C591C6801C81848
:1010F000D908872D0E944504A601B2010E9421054E
:10110000E00EF11E87E08A9DF0018B9DF00D112409
:10111000EF5CFC4FF382E28220813181201B310B96
:10112000318320838681800F912F911D8A3F910505
:1011300010F4232BF1F487E08A9DF0018B9DF00DD4
:101140001124EF5CFC4F1682F982EA8222E030E043
:10115000AE014F5F5F4F68E270E0872D0E9453043D
:1011600060E470E0872D0E94C9057CCFA801B6011C
:10117000C5CF868377CFCF93DF93FC01218D328D4E
:101180002115310529F48FEF9FEFDF91CF9108955D
:10119000EC01808D4217530708F0A9010E94EA076D
:1011A0001816190684F7298D3A8D281B390B3A8FAA
:1011B000298FEBCF0F931F93CF93DF931F92CDB760
:1011C000DEB7FC01218D328D232B41F48FEF9FEF91
:1011D0000F90DF91CF911F910F9108958C0141E005
:1011E00050E0BE016F5F7F4FFC01808D0E94EA07D7
:1011F000181619065CF7F801818D928D0197928F70
:10120000818F898190E0E4CF3F924F925F926F92FD
:101210007F928F929F92AF92BF92CF92DF92EF9286
:10122000FF920F931F93CF93DF931F921F92CDB71F
:10123000DEB75C014B01342E452EFC0166887788B1
:10124000508C80E591E00E94830122E030E0AE0105
:101250004F5F5F4F60E270E0852D0E947D06C98080
:10126000DA80DC24CD24DC2422E030E0AE014F5FC4
:101270005F4F60E270E0852D0E947D0689819A8132
:10128000982789279827C816D90609F079C0E52C30
:10129000F12C67E0569EF0011124EF5CFC4FD582E3
:1012A000C482032D142DC016D10608F4860122E055
:1012B00030E0AE014F5F5F4F64E270E0852D0E9429
:1012C0007D0689819A81982789279827680E791E3B
:1012D0009301377040916903433309F053C088E0AC
:1012E000E80EF11CFE2CEE24FF0CFF0CFF0CC901D4
:1012F0008E0D9F1D473309F449C0A901400F511FAE
:101300004130584008F442C060E078E06B01C21AF6
:10131000D30AA601B4010E948403A8014C195D09F7
:10132000B4016C0D7D1DC7010E948403600E711E07
:1013300079826A8222E030E0AE014F5F5F4F64E263
:1013400070E0852D0E945304F50186899789800FEE
:10135000911F978B868BC8010F900F90DF91CF91D3
:101360001F910F91FF90EF90DF90CF90BF90AF90C3
:101370009F908F907F906F905F904F903F900895D7
:101380006C0172CFE0E1EE0EF11CACCFA801B4010C
:10139000CBCF8F929F92AF92BF92CF92DF92EF927C
:1013A000FF920F931F93CF93DF9300D000D000D014
:1013B0001F92CDB7DEB76C015B01FC01808D8830D8
:1013C00010F40E94D90580916903811117C088E04B
:1013D000F601808F80E02A960FB6F894DEBF0FBE2C
:1013E000CDBFDF91CF911F910F91FF90EF90DF90D4
:1013F000CF90BF90AF909F908F90089508E0833377
:1014000009F404E080E591E00E9483019E012F5FD2
:101410003F4F4901790110E063E070E0812F0E94A5
:10142000AC05F70181937F018823C1F01F5F011391
:10143000F3CFF12CF40181914F018D3149F08831C6
:1014400039F08A51823020F0F3941F11F3CFBFCFCF
:1014500060E170E08F2D0E94C9051F2DE12EF12C57
:1014600083EE93E00197F1F742E070E060E0812FB6
:101470000E947A044FEF62E070E0812F0E947A04AC
:10148000B501A114B10489F480910602909107027C
:1014900001968115F0EC9F07D0F19093070280939D
:1014A00006026091060270910702812F0E94640477
:1014B00061E070E0812F0E94C90527E02E9DC001E8
:1014C0002F9D900D11249C012F5C3C4F7901F90157
:1014D0001182108222E030E0AE01475F5F4F68E288
:1014E00070E0812F0E947D0689859A85982789273B
:1014F0009827F70193838283168215821482F6015E
:10150000108FB586A486128E118E81E064CF80E0A4
:1015100090ECC3CFDC0182E592E08D939D9384E053
:10152000FB0101900D928A95E1F70895DF92EF9209
:10153000FF920F931F93CF93DF9300D000D01F92A1
:101540001F92CDB7DEB78C01D80159964D915C91B1
:101550005A974115510551F0ED91FC91048CF58D90
:10156000E02D70E060E0C8011995EECFF801D08C55
:10157000F7E0DF9EC00111249C012F5C3C4F7901F4
:10158000D9018D919C91892B59F148E050E0BE0121
:101590006F5F7F4FF801808D0E94EA0718161906C9
:1015A00094F5D801509684E0FE01319601900D9299
:1015B0008A95E1F78D8190E0982F88272E81820F00
:1015C000911DF801958B848B8F81282F30E0322F6D
:1015D00022278885820F932F911D928F818F13C0B0
:1015E00080E591E00E9483018D2D0E94B507D7010F
:1015F00016962C911697821B91098D939C93892B9B
:1016000021F690E080E028960FB6F894DEBF0FBE7A
:10161000CDBFDF91CF911F910F91FF90EF90DF90A1
:1016200008956F927F928F929F92AF92BF92CF92C6
:10163000DF92EF92FF920F931F93CF93DF93CDB77B
:10164000DEB7EC970FB6F894DEBF0FBECDBF4C01EE
:101650008B013A0182E592E09A8389831C861B867E
:1016600048EE53E060E070E04D875E876F87788BCF
:1016700026E132E03A872987988F8F8B198E1A8E50
:101680001B8E1C8E28E029A399AB88AB1AAA1BAA33
:101690001CAA1DAA8091270490912804A0912904D6
:1016A000B0912A048EA39FA3A8A7B9A78B839C837C
:1016B000AD83BE8318861F82F80120E090E080E0B1
:1016C0006AE03191332309F47AC040ED430F4A3088
:1016D00008F064C0689FA001699F500D1124CA01E1
:1016E000C097830F911D37FD9A958F3F910549F360
:1016F00040F34B815C816D817E81809133049091B8
:101700003404A0913504B0913604481759076A078C
:101710007B0709F428C20E9442036F7077277C5F21
:10172000CE0109960E94C909813009F01FC282E5E5
:1017300092E09DA38CA38B819C81AD81BE818EA301
:101740009FA3A8A7B9A745E350E0BE016C5D7F4FFA
:10175000CE0109960E94B304892B09F04EC010E017
:1017600000E0CE0109960E94E5050130110559F10E
:10177000C801EC960FB6F894DEBF0FBECDBFDF9167
:10178000CF911F910F91FF90EF90DF90CF90BF907E
:10179000AF909F908F907F906F9008953E3209F0A8
:1017A000A8CF233009F4A5CFA2E3B0E0AC0FBD1F52
:1017B000A20FB11D8C932F5F90E080E082CF233089
:1017C00009F097CF8DABD401ED91FC910488F58998
:1017D000E02D82E592E09DA38CA38AA99BA9ACA9E8
:1017E000BDA98EA39FA3A8A7B9A7A301BE016C5D45
:1017F0007F4FC40119958C01BBCF0E9442037887AB
:101800006F8342E050E0BE01695F7F4FCE010996D1
:101810000E94040981E090E09DA38CA342E050E087
:10182000BE016C5D7F4FCE0109960E94040980E0E5
:1018300091E09DA38CA342E050E0BE016C5D7F4F20
:10184000CE0109960E9404091DA21CA242E050E0AC
:10185000BE016C5D7F4FCE0109960E94040942E0F3
:1018600050E0BE016C5D7F4FCE0109960E940409D5
:1018700042E050E0BE016C5D7F4FCE0109960E94B0
:1018800004097801D8018C91882311F18701F801AE
:1018900081916F01882311F08E32C1F45801AE1886
:1018A000BF081A141B0484F4AEAA41E050E0BE0144
:1018B0006A5C7F4FCE0109960E940409A501B70119
:1018C000CE0109960E9404097601DCCF8601DFCFA4
:1018D0001EAA41E050E0BE016A5C7F4FCE0109962E
:1018E0000E94040900E011E01DA30CA342E050E0B7
:1018F000BE016C5D7F4FCE0109960E9404091DA3B5
:101900000CA342E050E0BE016C5D7F4FCE01099612
:101910000E940409CE0109960E94F205892B09F460
:101920001ECF83E0E82EF12CD7C04B815C816D8106
:101930007E81898D9A8DAB8DBC8D481759076A07BA
:101940007B0709F00AC18D8D9E8DC59709F005C1F1
:101950008AA19BA10DEF1FEF0C970CF4B4C04CE0D3
:1019600050E0BE016C5D7F4FCE0109960E94BB081E
:101970008EA19FA19827892798279BAF8AAF4F8177
:1019800058852CA13DA14217530709F0E9C097FFE4
:10199000E7C08F7092700BEF1FEF892B09F093C097
:1019A000AAA4BBA4BA24AB24BA240AEF1FEFA11443
:1019B000B10409F488C010E000E088A599A5982733
:1019C000892798270817190708F541E050E0BE015C
:1019D0006A5C7F4FCE0109960E94BB084EA9442342
:1019E00039F050E070E060E0CE0109960E94BB083B
:1019F0008EA98111EACF44E050E070E060E0CE01B2
:101A000009960E94BB080F5F1F4FD7CFD12CC12C66
:101A100041E050E0BE01645C7F4FCE0109960E9418
:101A2000BB084CAD842F807C09F074C0442339F08E
:101A300050E070E060E0CE0109960E94BB088CADDA
:101A40008111E6CF42E050E0BE01685C7F4FCE01DD
:101A500009960E94BB0842E050E0BE016A5C7F4FDD
:101A6000CE0109960E94BB0844E050E070E060E0BF
:101A7000CE0109960E94BB0842E050E0BE01665CC0
:101A80007F4FCE0109960E94BB0888AD99AD4AAD43
:101A90005BAD8115914009F047C00EA91FA9102721
:101AA000012710270130110509F03EC041155440AF
:101AB00009F04DC044E050E0BE016E5C7F4FCE01A6
:101AC00009960E94BB08F1E0EF1AF10809F449CE2B
:101AD0000F3F100709F045CE0E9442035B016C01E5
:101AE000CE0109960E94960A181619060CF41DCF0D
:101AF0000E9442036A197B098C099D096938734168
:101B00008105910538F562E370E080E090E00E9485
:101B10001003E6CF41E050E070E060E0CE010996AE
:101B20000E94BB081CAE8BCF54274527542770E07A
:101B300060E0CE0109960E94BB08EFEFCE1ADE0AE4
:101B4000AC14BD0409F064CF06EF1FEFBCCF07EF64
:101B50001FEFB9CF0FEF1FEFB6CF0EEF1FEFB3CFD1
:101B60000CEF1FEFB0CF0EEF1FEF02CE10E000E042
:101B7000FFCDFB0101900020E9F73197AF01461B33
:101B8000570BDC01ED91FC910280F381E02D19945B
:101B90008F929F92AF92BF92EF92FF920F931F93FB
:101BA000CF93DF93CDB7DEB7A1970FB6F894DEBF22
:101BB0000FBECDBF7C01FA01CB0119A2223008F47F
:101BC0002AE08E010F5D1F4F822E912CB12CA12C8B
:101BD000BF01A50194010E94BB17F901CA016A3037
:101BE0000CF5605DD8016E938D01232B242B252BE2
:101BF00079F790E080E0109721F0BD01C7010E94C5
:101C0000B90DA1960FB6F894DEBF0FBECDBFDF9120
:101C1000CF911F910F91FF90EF90BF90AF909F9049
:101C20008F900895695CDECF8F929F92AF92BF92A2
:101C3000CF92DF92EF92FF920F931F93CF93DF9398
:101C40007C01EB016C0182E0C80ED11C4701E5E08C
:101C50008E0E911C10E000E0F60141916F0150E002
:101C600070E060E02AE0CE010E94C80D5C01E881CE
:101C7000F9810190F081E02D6EE2CE0119958A0D77
:101C80009B1D080F191FC814D90431F7F7014581AE
:101C900050E070E060E02AE0CE010E94C80D800FA5
:101CA000911FDF91CF911F910F91FF90EF90DF90E7
:101CB000CF90BF90AF909F908F9008953F924F929A
:101CC0005F926F927F928F929F92AF92BF92CF92CC
:101CD000DF92EF92FF920F931F93CF93DF93CDB7D5
:101CE000DEB7EA970FB6F894DEBF0FBECDBF7C011A
:101CF0002A013B0169010E9442034B015C018701FB
:101D00000D5B1F4FC8010E94960A181619069CF019
:101D10000E944203681979098A099B0946165706E9
:101D20006806790608F466C162E370E080E090E03E
:101D30000E941003E7CF42E250E0BE016F5F7F4F89
:101D4000C8010E94BB0889818230D1F0312C832DDB
:101D5000EA960FB6F894DEBF0FBECDBFDF91CF91EC
:101D60001F910F91FF90EF90DF90CF90BF90AF90B9
:101D70009F908F907F906F905F904F903F900895CD
:101D8000F801848995898334910501F76D817E81FD
:101D90008F8198850E94F4174B015C01F6018082C7
:101DA0009182A282B38246E050E0B701685F7F4F24
:101DB000CE014D960E94FB17892B41F6F7018081D9
:101DC0009181A281B38188169906AA06BB0608F400
:101DD000BDCF84819581A681B78188159905AA0513
:101DE000BB0508F4B3CF89899A89AB89BC898687FA
:101DF0009787A08BB18B4EEC50E070E060E0C8019B
:101E00000E94BB08312CC701829698AB8FA7F701BF
:101E1000B696FAABE9AB08969CAB8BAB67019AE13F
:101E2000C90ED11CBD96FEABEDABC701429698AF73
:101E30008FABFD97FAAFE9AF4701FEE18F0E911C22
:101E4000F801818D928D181619060CF080CFC8010B
:101E50000E94DA088333910509F4B2C014F5813089
:101E6000910509F464C044F4892B51F3C8010E9420
:101E7000DA08AC01552775C08330910509F462C0BA
:101E80000697A1F7C8010E94DA08B82E44E050E096
:101E9000B401C8010E94BB08EB2DE450FF0BAF0159
:101EA00060C08A33910509F45FC084F585339105DC
:101EB000B1F1C697D9F6C8010E94DA085C01B601F3
:101EC000CE0189960E948A0A8BA59CA5ADA5BEA5C8
:101ED000892B8A2B8B2BB1F0EDA9FEA94080518074
:101EE00062807380B601CE0183960E948A0A8DA11A
:101EF0009EA1AFA1B8A5A501481659066A067B06A2
:101F000009F0B8CF44E050E0B60118C08B3391051A
:101F100009F440C08F3F910509F492CFA7CFC801C3
:101F20000E94DA08C8010E94DA08382E89CFC80159
:101F30000E94DA0844E050E06FA978ADC8010E9421
:101F4000BB087ECFC8010E94DA08B82E44E050E0FA
:101F500069AD7AADC8010E94BB088B2D8450990BE6
:101F6000AC0170E060E0EACFC8010E94DA0844E00A
:101F700050E069A97AA9C8010E94BB08F70166A1CF
:101F800077A180A591A50E94F41766A377A380A7E7
:101F900091A756CFC8010E94DA0844E050E06BA92F
:101FA0007CA9C8010E94BB08F70162A573A584A59E
:101FB00095A50E94F41762A773A784A795A740CFA1
:101FC000C8010E94DA0844E050E06FA578A9C80172
:101FD0000E94BB08F70162A173A184A195A10E9490
:101FE000F41762A373A384A395A366A777A780AB16
:101FF00091AB26CF33243A94AACE7F928F929F92B0
:10200000AF92BF92CF92DF92EF92FF920F931F9306
:10201000CF93DF93CDB7DEB7A6970FB6F894DEBFA8
:102020000FBECDBF8C01762E942E852E20E2A22EDF
:10203000CE0101967C01DC01EA2D1D92EA95E9F7BB
:102040006801F3E4CF0ED11C82E592E09AA389A344
:102050008FEF8BA38CA38DA38EA343E450E0BE012E
:102060006F5D7F4FC6010E94B304019609F4BFC0A3
:1020700081E089838A8386E0B82EBB821C82D801E6
:1020800014966D917D918D919C9117970E94F417F4
:102090006D837E838F83988789869A8680E890E017
:1020A0009C878B874CE150E0B701C6010E94040970
:1020B000FE0137968AE1DF011D928A95E9F7480112
:1020C000B8E08B0E911CF401D70101900D92BA94E7
:1020D000E1F740E150E0B701C6010E940409F701B1
:1020E0001192AA94E9F796E0A92EB12C40E250E0B3
:1020F000B701C6010E940409F1E0AF1AB108B1F7B7
:1021000083E6898392E89A8393E59B838C8385E3B6
:102110008D8381E08E837F829DE3988797E0998706
:102120008A8786E0F401DE011B9601900D928A9564
:10213000E1F78CE0898B8A8B64E572E0CE014396EF
:102140000E940F18D8011B966C91CE0149960E94EF
:102150008601F8016485CE014B960E948601D80164
:102160001D966C91CE014D960E9486014EE150E085
:10217000B701C6010E940409B3E07B121EC082E3CE
:10218000898384E08A83F80196859B8397859C8365
:1021900090899D8391899E8396E39F838887828D12
:1021A0008987838D8A87848D8B87858D8C874CE08A
:1021B00050E0B701C6010E94040987E3898386E0E5
:1021C0008A8391E09B8393E09C838D838FE08E8351
:1021D0008AE38F838BE388878FEF898749E050E01C
:1021E000B701C6010E940409C6010E94F205A69625
:1021F0000FB6F894DEBF0FBECDBFDF91CF911F9118
:102200000F91FF90EF90DF90CF90BF90AF909F9095
:102210008F907F9008951F920F920FB60F92112406
:102220000BB60F922F933F934F935F936F937F93D0
:102230008F939F93AF93BF93EF93FF938AE693E0BF
:102240000E942B02FF91EF91BF91AF919F918F91CF
:102250007F916F915F914F913F912F910F900BBEA6
:102260000F900FBE0F901F9018951F920F920FB6F0
:102270000F9211240BB60F922F938F939F93EF938E
:10228000FF93E0917A03F0917B038081E0918003DA
:10229000F091810382FD1DC09081809183038F5F47
:1022A0008F7320918403821741F0E0918303F0E063
:1022B000E659FC4F958F80938303FF91EF919F9197
:1022C0008F912F910F900BBE0F900FBE0F901F900C
:1022D00018958081F2CF1F920F920FB60F921124A2
:1022E0002F933F938F939F93AF93BF938091BB02A4
:1022F0009091BC02A091BD02B091BE023091BA0291
:1023000023E0230F2D3758F50196A11DB11D209311
:10231000BA028093BB029093BC02A093BD02B0931B
:10232000BE028091BF029091C002A091C102B09103
:10233000C2020196A11DB11D8093BF029093C002FD
:10234000A093C102B093C202BF91AF919F918F91B0
:102350003F912F910F900FBE0F901F90189526E878
:10236000230F0296A11DB11DD2CFEAE6F3E013823E
:10237000128288EE93E0A0E0B0E084839583A68388
:10238000B78380E492E09183808385EC90E0958729
:10239000848784EC90E09787868780EC90E0918B2F
:1023A000808B81EC90E0938B828B82EC90E0958B1C
:1023B000848B86EC90E0978B868B118E128E138E19
:1023C000148EE7E0F4E082E592E09183808312824C
:1023D000138214821582EDE0F4E0918380831282EF
:1023E000138214821582E3E1F4E0918380831282E8
:1023F000138214821582E9E1F4E0918380831282D2
:10240000138214821582EFE1F4E0918380831282BB
:10241000138214821582EBE2F4E0918380831282AE
:10242000138214821582E5E2F4E0918380831282A4
:10243000138214821582E1E3F4E091838083128297
:10244000138214821582E7E3F4E091838083128281
:10245000138214821582E3E4F4E091838083128274
:10246000138214821582EDE3F4E09183808380EC83
:10247000828388EA838381E084838EE08583089564
:10248000CF93DF9300D000D000D01F92CDB7DEB73E
:10249000789484B5826084BD84B5816084BD85B53F
:1024A000826085BD85B5816085BD80916E0081604B
:1024B00080936E00109281008091810082608093F1
:1024C00081008091810081608093810080918000F3
:1024D0008160809380008091B10084608093B1001E
:1024E0008091B00081608093B00080919100826003
:1024F0008093910080919100816080939100809100
:1025000090008160809390008091A1008260809310
:10251000A1008091A10081608093A1008091A00022
:1025200081608093A00080912101826080932101CD
:10253000809121018160809321018091200181603F
:102540008093200180917A00846080937A0080914A
:102550007A00826080937A0080917A008160809313
:102560007A0080917A00806880937A001092C1008E
:10257000E0917A03F0917B0382E08083E09176031F
:10258000F09177031082E0917803F09179038FEC5A
:10259000808310928203E0917E03F0917F0386E0B6
:1025A0008083E0917C03F0917D0380818061808352
:1025B000E0917C03F0917D03808188608083E091CD
:1025C0007C03F0917D03808180688083E0917C03AF
:1025D000F0917D0380818F7D80836BE572E08AE6D8
:1025E00093E00E94B90D6AE772E08AE693E00E94E8
:1025F000B90D8091290381112AC010921103109204
:10260000100388EE93E0A0E0B0E080931203909373
:102610001303A0931403B093150386E192E0909303
:102620000F0380930E0382E592E090931D03809345
:102630001C0310921E0310921F031092200310928D
:10264000210388E08093260381E0809329038BECAB
:1026500092E09093CA028093C9028091C8028111CE
:10266000D2C060E372E080E090E00E9410031FB7E8
:10267000F8948091C60281115FC047E452E0FA01EC
:1026800084912DE832E0F9019491E82FF0E0EE0F0B
:10269000FF1FE850FE4FA591B4918C91982309F04B
:1026A0003CC0EDECF1E08491F9012491FA019491A0
:1026B000992309F432C0882311F181508231F8F452
:1026C000E82FF0E08827E859FC4E8F4F0C94EC1768
:1026D0006F1573157A1367156B157F1376157C15B7
:1026E000801586158A158E15941598157F139C15DF
:1026F000A215A615809180008F7780938000E92F26
:10270000F0E0EE0FFF1FE252FE4FA591B4918FB79C
:10271000F8949C91292B2C938FBF85E30E949801FC
:102720008CB580618CBD8CB580648CBD84E30E94C7
:10273000980183E30E9498018091C6028F5F809385
:10274000C6021FBFECE1F2E0E491F0E0EE0FFF1FE4
:10275000E252FE4F859194919093C5028093C402FA
:10276000E2E6F2E0E491E093C3028AE00E9498017D
:102770000E94680380E591E00E94830184E38093D6
:10278000690380E80E9432040E943606882309F417
:10279000E1C188E00E9432040E942306883009F0DB
:1027A000D9C180E10E9432040E942306803109F0E1
:1027B000D1C180E00E9432040E942306182F8111AB
:1027C000C9C141E050E0BE016F5F7F4F8FE190E0F3
:1027D0000E9421058981833009F0BCC180E4809387
:1027E000C70242E06EE170E0812F0E947A0442E06D
:1027F0006FE170E0812F0E947A041F5F183089F723
:1028000081E08093C80280E591E00E94830146E068
:1028100050E060E072E089E090E00E94840382E58D
:1028200092E09A8389831B821C821D821E8244E06F
:1028300050E0BE016D5F7F4F8FE090E00E94840307
:102840000091C9021091CA02D80192961D921D9260
:102850001D921C929597F80116A217A210A611A618
:102860009A961D921D921D921C929D9780E69AEE5B
:10287000A0E0B0E086AB97ABA0AFB1AF80EA9FE03D
:10288000A0E0B0E082AF93AFA4AFB5AF3E9684E1D5
:10289000DF011D928A95E9F786E0E0E0F2E0D801D9
:1028A000189601900D928A95E1F7F801EE5BFF4FC3
:1028B000FA87E98710820E9431172FEC37E040E059
:1028C00050E00E948917DC01CB010196A11DB11DCA
:1028D000F80184839583A683B78380839183A28341
:1028E000B3835801F3E4AF0EB11CC5010E94E505A6
:1028F00064E470E0C5010E94C909882309F493C10A
:102900000E9442032B013C0148EEC42E43E0D42E2A
:10291000E12CF12C52E0252E912C812CA985BA8531
:102920008C918330B9F1811185C1F8018481958141
:10293000A681B7810196A11DB11D84839583A683CD
:10294000B7830E9442036419750986099709A70194
:1029500096010E94BB17A90161E0C8010E94FD0F0A
:1029600081E0A985BA858C93F1E08F169104B1F2CC
:102970000E9442036419750986099709D801D69601
:102980002D913D914D915C91D997261737074807B6
:10299000590710F6C5010E94E505F801848195816B
:1029A000A681B7810196A11DB11D84839583A6835D
:1029B000B7830E944203F801FE966083718382838D
:1029C00093838A94892809F02EC180E591E00E94C2
:1029D00083010091C9021091CA02B801625F7F4F62
:1029E000CE0101960E948A0A44E050E0BE016D5F6C
:1029F0007F4F8FE090E00E948403B8016A5E7F4FB2
:102A0000CE0101960E948A0A44E050E0BE016D5F4B
:102A10007F4F81E090E00E948403B8016E5E7F4F9B
:102A2000CE0101960E948A0A44E050E0BE016D5F2B
:102A30007F4F85E090E00E948403B801625E7F4F83
:102A4000CE0101960E948A0A8B819C81AD81BE8154
:102A50008093270490932804A0932904B0932A0418
:102A60000E94EB027F738091060290910702682713
:102A7000792770930702609306026DE772E08AE699
:102A800093E00E94B90D82E592E09A8389831B82CC
:102A90001C821D821E8280E591E00E94830144E039
:102AA00050E0BE016D5F7F4F8FE090E00E942105F6
:102AB0006AE673E0CE0101960E94140E6AE772E0A6
:102AC0008AE693E00E94B90D0E94BA02FDCF809180
:102AD00080008F7D12CE80918000877F0ECE84B5DE
:102AE0008F7784BD0CCE84B58F7DFBCF8091B000F5
:102AF0008F778093B00003CE8091B0008F7DF9CFA7
:102B0000809190008F7780939000F9CD8091900014
:102B10008F7DF9CF80919000877FF5CF8091A000C5
:102B20008F778093A000EBCD8091A0008F7DF9CFAF
:102B30008091A000877FF5CF809120018F778093CF
:102B40002001DDCD809120018F7DF9CF8091200182
:102B5000877FF5CF87E38093690380E80E94320482
:102B60000E943606882329F188E00E9432040E94E0
:102B700023068830F1F480E10E9432040E9423068B
:102B8000182F8031B1F480E00E9432040E942306A5
:102B900081110FC041E050E0BE016F5F7F4F89E3BC
:102BA00090E00E9421058981843019F41093C702B6
:102BB00027CE83E38093690380E80E9432040E9459
:102BC0003606882371F180E10E9432040E942306B8
:102BD000803139F582E10E9432040E94230682315D
:102BE00001F580E00E9432040E942306811119C081
:102BF00084E08093C70215E5188741E050E0BE01EC
:102C0000685F7F4F8BE190E00E9484031F8341E067
:102C100050E0BE01695F7F4F8AE190E00E9484032B
:102C2000EFCD1092690361E972E08AE693E00E94B9
:102C3000B90D44CF8430F9F4F80184819581A681DF
:102C4000B7810196A11DB11D84839583A683B783A7
:102C50000E9442036419750986099709A701960124
:102C60000E94BB17A90163E0C8010E94FD0FA9855E
:102C7000BA852C9279CE813059F5F80142AD53AD29
:102C800064AD75AD9E012F5F3F4FC8010E945E0E7F
:102C9000382EF2E08F1392C089819A81AB81BC817A
:102CA000F80184839583A683B7830E944203641945
:102CB000750986099709A70196010E94BB17A9010A
:102CC00063E0C8010E94FD0FA985BA853C924CCEF5
:102CD000823009F049CEF80142AD53AD64AD75AD17
:102CE0009E012F5F3F4FC8010E945E0E382EF5E017
:102CF0008F135DC0E3E0A985BA85EC93F80182A14A
:102D000093A1A4A1B5A1892B8A2B8B2B41F484E834
:102D100093E0A0E0B0E082A393A3A4A3B5A3F8013D
:102D200086A197A1A0A5B1A5892B8A2B8B2B61F435
:102D300082A193A1A4A1B5A1B695A79597958795D2
:102D400086A397A3A0A7B1A7F80182A593A5A4A5E0
:102D5000B5A5892B8A2B8B2BA9F482A193A1A4A1C1
:102D6000B5A1AC01BD0123E07695679557954795D0
:102D70002A95D1F7841B950BA60BB70B82A793A7B7
:102D8000A4A7B5A7F80186A197A1A0A5B1A586A77C
:102D900097A7A0ABB1AB82A593A5A4A5B5A582AB1F
:102DA00093ABA4ABB5AB88248394912CDDCDF6E036
:102DB0008F1304C0A985BA851C92D6CDBFEF3B12F4
:102DC000D3CDE985FA851082CFCD8F929F92AF92B5
:102DD000BF92CF92DF92EF92FF92CF93DF93EC01FD
:102DE000688179818A819B816115710581059105D1
:102DF00021F464E279ED8BE597E02DE133EF41E0DA
:102E000050E00E94891749015A019B01AC01A7EAD1
:102E1000B1E40E94A8176B017C01ACEEB4EFA501F0
:102E200094010E94B617C60ED71EE81EF91EF7FEC3
:102E300006C081E0C81AD108E10880E8F80AC88213
:102E4000D982EA82FB82C701B6019F77DF91CF91D9
:102E5000FF90EF90DF90CF90BF90AF909F908F90BA
:102E600008958F929F92AF92BF92CF92DF92EF928E
:102E7000FF92609108027091090280910A0290917C
:102E80000B02611571058105910521F464E279ED6C
:102E90008BE597E02DE133EF41E050E00E94891788
:102EA00049015A019B01AC01A7EAB1E40E94A817AD
:102EB0006B017C01ACEEB4EFA50194010E94B61742
:102EC000C60ED71EE81EF91EF7FE06C081E0C81A1E
:102ED000D108E10880E8F80AC0920802D0920902FD
:102EE000E0920A02F0920B02C701B6019F77FF90B1
:102EF000EF90DF90CF90BF90AF909F908F9008950C
:102F0000609308027093090280930A0290930B0267
:102F10000895052E97FB1EF400940E94A01757FDFC
:102F200007D00E94BB1707FC03D04EF40C94A017E7
:102F300050954095309521953F4F4F4F5F4F0895E5
:102F400090958095709561957F4F8F4F9F4F089515
:102F50000E94DD17A59F900DB49F900DA49F800D3A
:102F6000911D11240895B7FF0C94A8170E94A8176B
:102F7000821B930B0895A1E21A2EAA1BBB1BFD0115
:102F80000DC0AA1FBB1FEE1FFF1FA217B307E40748
:102F9000F50720F0A21BB30BE40BF50B661F771FA0
:102FA000881F991F1A9469F7609570958095909580
:102FB0009B01AC01BD01CF010895A29FB001B39F59
:102FC000C001A39F700D811D1124911DB29F700D32
:102FD000811D1124911D0895EE0FFF1F881F8BBFC7
:102FE0000790F691E02D199469279627692778278D
:102FF000872778270895FB01DC0104C08D9101909B
:10300000801921F441505040C8F7881B990B08954E
:10301000DC0101C06D9341505040E0F70895FB0181
:10302000DC0101900D920020E1F70895F894FFCFA4
:10303000DEADBEEFFEED00C00100000001005E004D
:10304000000000000000980404091E059704AE0467
:10305000DA084C06C9097407E505B304110BF2053B
:10306000960ABB08170507050305FF0400000000CA
:103070004D02B701E4019A021502F30107020000B4
:103080000000140E57495A6E657400496E697469E0
:10309000616C697A652045746865726E6574207725
:1030A00069746820444843503A000D0A00202044C7
:1030B0004843502061737369676E656420495020EE
:1030C000004661696C656420746F20636F6E666989
:1030D000677572652045746865726E6574207573D6
:0A30E000696E672044484350000069
:00000001FF
