:100000000C94ED040C941E050C941E050C941E0516
:100010000C941E050C941E050C941E050C941E05D4
:100020000C941E050C941E050C941E050C941E05C4
:100030000C941E050C941E050C941E050C941E05B4
:100040000C941E050C941E050C941E050C941E05A4
:100050000C941E050C941E050C941E050C94DC36A5
:100060000C941E050C94A6360C947C360C941E053C
:100070000C941E050C941E050C941E050C941E0574
:100080000C941E050C941E050C941E050C941E0564
:100090000C941E050C941E050C941E050C941E0554
:1000A0000C941E050C941E050C941E050C941E0544
:1000B0000C941E050C941E050C941E050C941E0534
:1000C0000C941E050C941E050C941E050C941E0524
:1000D0000C941E050C941E050C941E050C941E0514
:1000E0000C941E050C94941D0C9478060C94931C8F
:1000F0000C94941F0C946C160C9408180C94FD1F0F
:100100000C9484050C9426370C94A1060C94AB0631
:100110000C940D130C9476050C9455160C94D5097B
:100120000C9423270C9436160C9453050C944D16FE
:100130000C943A120C94BD060C94B9060C9451160A
:100140000C94A2120C94C2140C9436200C94240526
:100150000C947E060C9442160C94B3060C941C0866
:100160000C9432280C9493060C9454230C9425057B
:100170000C949D060C9497060C9446220C94D92856
:100180000C94AE280C9432160C9486060C944516EA
:100190000C942C080C947D260C9444120C9420058D
:1001A0000C941B240C9486250C94A5060C94AF0685
:1001B0000C94DB1F0C948A060C94C9230C946923BD
:1001C0000C9482060C94BE2C0C9402280C94BF094B
:1001D0000C94C02B0C942F250C94B8060C94B114DD
:1001E0000C9440160C948D060C9462050C94260514
:1001F0000C94661C0C94332C0C94A63E0C94851D18
:100200000C94E4270C945E260C94EB090C94F609EC
:100210000C9465160C94FC070C94DF140C940429C0
:100220000C9409060C94AF1F0C94BC050C94A726E3
:100230003C2F666F726D3E003E003C696E707574B7
:1002400020747970653D7375626D69742076616C98
:1002500075653D003E003C666F726D206163746998
:100260006F6E3D003C2F7461626C653E003C2F74E4
:10027000723E003C2F74643E003C62723E00203EA1
:1002800020003C62723E003C746420616C69676EC1
:100290003D63656E74657220206267636F6C6F7278
:1002A0003D463031303130203E003C746420616C7A
:1002B00069676E3D63656E74657220206267636F67
:1002C0006C6F723D463046304630203E003C7464D0
:1002D00020616C69676E3D63656E74657220206293
:1002E00067636F6C6F723D463031303130203E00B5
:1002F0003C746420616C69676E3D63656E74657201
:1003000020206267636F6C6F723D46304630463026
:10031000203E003C74723E003C7461626C65207348
:1003200074796C653D77696474683A3130302520A2
:10033000626F726465723D313E004F5554505554A2
:10034000203C2F74683E203C2F74723E203C2F745A
:1003500061626C653E003C74723E203C74682061B2
:100360006C69676E3D63656E746572203E003C7417
:1003700061626C65207374796C653D77696474683B
:100380003A3130302520626F726465723D313E0033
:100390003C2F7461626C653E003C2F74723E003CE1
:1003A0002F74643E003C62723E00203E20003C629E
:1003B000723E005D2000205B00203E20003C746403
:1003C00020616C69676E3D63656E746572202062A2
:1003D00067636F6C6F723D463046304630203E009A
:1003E0003C746420616C69676E3D63656E74657210
:1003F00020206267636F6C6F723D46303630363056
:10040000203E003C746420616C69676E3D63656EDC
:1004100074657220206267636F6C6F723D46303680
:10042000303630203E003C746420616C69676E3D5C
:1004300063656E74657220206267636F6C6F723DD6
:10044000463046304630203E003C74723E003C74DC
:1004500061626C65207374796C653D77696474685A
:100460003A3130302520626F726465723D313E0052
:10047000494E505554203C2F74683E203C2F7472D6
:100480003E203C2F7461626C653E003C74723E20DD
:100490003C746820616C69676E3D63656E7465725B
:1004A000203E003C7461626C65207374796C653D1C
:1004B00077696474683A3130302520626F72646500
:1004C000723D313E003C62723E003C62723E003C36
:1004D0002F613E3C62723E003E003C6120687265C6
:1004E000663D3F53484F5746494C45533D003C6895
:1004F000722077696474683D313030252073697AE1
:10050000653D3420636F6C6F723D3030303046464D
:100510003E0D0A00203E203C2F666F726D3E20206B
:100520003C62723E0054542069643D6D696E75747E
:10053000657320206D696E3D3130206D61783D33EB
:1005400030302076616C75653D003C696E70757465
:1005500020747970653D6E756D626572206E616D97
:10056000653D4C4C003A3C2F6C6162656C3E00204E
:100570002020003E206D696E7574692064692061D9
:1005800074746976617A696F6E65206D61737369E1
:100590006D612064656C6C61206C75636520283129
:1005A0002D3330302920496420003C666F726D3E47
:1005B0003C6C6162656C20666F723D6C616D706948
:1005C00064003C68722077696474683D313030257E
:1005D0002073697A653D3420636F6C6F723D4646C7
:1005E000303030303E0D0A003C6872207769647408
:1005F000683D313030252073697A653D3420636F62
:100600006C6F723D3030464630303E0D0A003C2F54
:1006100074723E3C2F7461626C653E003C2F7472B4
:100620003E3C74723E003C2F74723E3C74723E003D
:100630003C2F74723E3C74723E003C74723E003C2F
:100640007461626C65207374796C653D22776964AE
:1006500074683A20313030252220626F72646572EE
:100660003D2230223E3C74626F64793E003C6872E9
:100670002077696474683D313030252073697A656C
:100680003D3420636F6C6F723D3030303046463EF3
:100690000D0A003C7461626C65207374796C653D71
:1006A00077696474683A3130302520626F7264650E
:1006B000723D313E203C74723E3C74682077696420
:1006C00074683D3130302520616C69676E3D63652B
:1006D0006E7465723E204F544120416374697665A3
:1006E000203C2F74683E203C2F74723E203C2F74B7
:1006F00061626C653E203C68722077696474683D75
:10070000313030252073697A653D3420636F6C6F1A
:10071000723D4646303030303E20003C2F623E0075
:100720003C2F74723E3C2F7461626C653E003C2F1E
:1007300074683E003C74682077696474683D3530A5
:100740002520616C69676E3D63656E7465723E005D
:100750003C2F74683E003C74723E203C74682077E5
:10076000696474683D35302520616C69676E3D634E
:10077000656E7465723E003C7461626C65207374D2
:10078000796C653D77696474683A31303025206250
:100790006F726465723D313E003C62207374796C07
:1007A000653D666F6E742D73697A653A3130707885
:1007B0003E003C626F64793E003C2F7469746C6546
:1007C0003E3C2F686561643E003C68746D6C3E3C45
:1007D000686561643E3C7469746C653E003C21440C
:1007E0004F43545950452048544D4C3E0052656685
:1007F000726573683A20303B75726C3D2F00436F11
:100800006E6E656374696F6E3A20636C6F7365001A
:10081000436F6E74656E742D547970653A207465FB
:1008200078742F68746D6C00485454502F312E31F9
:1008300020323030204F4B003C2F626F64793E00F5
:100840007C3C3E5E2B3D3F2F5B5D3B2C2A225C00B7
:1008500000002100240027002A002D003000330072
:1008600001010000040107010A0100002200250027
:1008700028002B002E003100340002010000050189
:1008800008010B01000020002300260029002C0095
:100890002F003200000100000301060109010505D7
:1008A0000505070508080808020202020A0A0808E6
:1008B0000404040401010101010101010303030314
:1008C00003030303040707070C0C0C0C0C0C0C0CA3
:1008D0000202020206060606060606060B0B0B0BB4
:1008E0000B0B0B0B010210202008081020401020D9
:1008F00040800201020108040201010204081020E4
:1009000040808040201008040201800402018040E1
:10091000201008040201080402010102040810204A
:100920004080010204081020408000000A0B0209E8
:100930000C0D0E0807030401000000000000000079
:1009400000000000000000000000000000000000A7
:100950000000000000001211100000000000000064
:100960000000000000000000000000000000000087
:10097000474554202F6768656C66612F74696D6503
:100980002E70687020485454502F312E31200D0A9B
:10099000486F73743A207777772E6D646D65636363
:1009A0006F2E69740D0A436F6E74656E742D5479E1
:1009B00070653A20746578742F68746D6C0D0A4305
:1009C0006F6E6E656374696F6E3A20636C6F7365EA
:1009D0000D0A0D0A00002637A63E11241FBECFEFD8
:1009E000D1E2DEBFCDBF00E00CBF14E0A0E0B2E07A
:1009F000E0E1F4E800E00BBF02C007900D92AC33D9
:100A0000B107D9F72AE0ACE3B4E001C01D92AD38DC
:100A1000B207E1F714E0CCEED4E000E006C0219785
:100A20000109802FFE010E947B3FCB3ED10780E071
:100A30000807A9F70E94E1380C94F6410C940000D5
:100A4000FC01818D928D089508950895AF92BF9213
:100A5000CF92DF92EF92FF920F931F93CF93DF938A
:100A60006C017B018B01040F151FEB015E01AE18B9
:100A7000BF08C017D10759F06991D601ED91FC91DB
:100A80000190F081E02DC6011995892B79F7C501F8
:100A9000DF91CF911F910F91FF90EF90DF90CF905A
:100AA000BF90AF900895FC01538D448D252F30E009
:100AB000842F90E0821B930B541710F0CF9608956B
:100AC00001970895FC01918D828D981761F0A28D98
:100AD000AE0FBF2FB11D5D968C91928D9F5F9F735E
:100AE000928F90E008958FEF9FEF0895FC01918D14
:100AF000828D981731F0828DE80FF11D858D90E081
:100B000008958FEF9FEF0895FC01918D228D892F1D
:100B100090E0805C9F4F821B91098F739927089505
:100B20008FEA97E00E94840521E0892B09F420E0F8
:100B3000822F0895FC01A48DA80FB92FB11DA35ACF
:100B4000BF4F2C91848D90E001968F739927848FED
:100B5000A689B7892C93A089B1898C918370806410
:100B60008C93938D848D981306C00288F389E02DB1
:100B700080818F7D80830895EF92FF920F931F9362
:100B8000CF93DF93EC0181E0888F9B8D8C8D981340
:100B90001AC0E889F989808185FF15C09FB7F8944C
:100BA000EE89FF896083E889F98980818370806498
:100BB00080839FBF81E090E0DF91CF911F910F91E3
:100BC000FF90EF900895F62E0B8D10E00F5F1F4FF2
:100BD0000F731127E02E8C8D8E110CC00FB607FC01
:100BE000FACFE889F989808185FFF5CFCE010E948F
:100BF0009A05F1CFEB8DEC0FFD2FF11DE35AFF4F5E
:100C0000F0829FB7F8940B8FEA89FB89808180621C
:100C1000CFCFCF93DF93EC01888D8823B9F0AA89D9
:100C2000BB89E889F9898C9185FD03C0808186FDA7
:100C30000DC00FB607FCF7CF8C9185FFF2CF8081F6
:100C400085FFEDCFCE010E949A05E9CFDF91CF91CC
:100C5000089580E090E0892B29F00E949005811191
:100C60000E94000080E090E0892B49F080E090E055
:100C7000892B29F00E94000081110E94000080E071
:100C800090E0892B49F080E090E0892B29F00E94C8
:100C9000000081110E94000080E090E0892B49F063
:100CA00080E090E0892B29F00E94000081110C94D3
:100CB000000008958150823108F05AC0E82FF0E01A
:100CC0008827EA59F94F8F4F0C947B3F86068A0696
:100CD00078067E068206B8068D06930697069D0660
:100CE000A106A506AB06AF06B806B306B906BD0653
:100CF000809180008F77809380000895809180009C
:100D00008F7DF9CF80918000877FF5CF84B58F7775
:100D100084BD089584B58F7DFBCF8091B0008F771F
:100D20008093B00008958091B0008F7DF9CF8091BD
:100D300090008F77809390000895809190008F7D30
:100D4000F9CF80919000877FF5CF8091A0008F77B9
:100D50008093A00008958091A0008F7DF9CF8091AD
:100D6000A000877FF5CF809120018F7780932001AD
:100D70000895809120018F7DF9CF80912001877F98
:100D8000F5CFCF93DF93282F30E0F901E65DF64FE2
:100D90008491F901EC51F74FD491F901E256F74FE4
:100DA000C491CC23A1F081110E945A06EC2FF0E0EF
:100DB000EE0FFF1FEC57F74FA591B491EC91ED2387
:100DC00081E090E009F480E0DF91CF91089580E028
:100DD00090E0FACF1F93CF93DF93282F30E0F901F3
:100DE000E65DF64F8491F901EC51F74FD491F9018A
:100DF000E256F74FC491CC23A9F0162F81110E941F
:100E00005A06EC2FF0E0EE0FFF1FE659F74FA591C1
:100E1000B4918FB7F894EC91111108C0D095DE23EE
:100E2000DC938FBFDF91CF911F910895DE2BF8CF18
:100E3000CF93DF9390E0FC01EC51F74F2491825661
:100E4000974FFC0184918823D1F090E0880F991F7F
:100E5000FC01E05BF74FA591B491FC01E659F74F17
:100E6000C591D49161110EC09FB7F8948C91E22F77
:100E7000E0958E238C932881E223E8839FBFDF9146
:100E8000CF9108958FB7F894EC91E22BEC938FBF3C
:100E9000F6CF3FB7F8948091540490915504A091F7
:100EA0005604B091570426B5A89B05C02F3F19F0F2
:100EB0000196A11DB11D3FBFBA2FA92F982F8827DA
:100EC000BC01CD01620F711D811D911D42E0660FB5
:100ED000771F881F991F4A95D1F708958F929F9287
:100EE000AF92BF92CF92DF92EF92FF924B015C01E3
:100EF0000E9449076B017C010E9449076C197D091A
:100F00008E099F09683E734081059105A8F321E091
:100F1000821A9108A108B10888EEC80E83E0D81E95
:100F2000E11CF11C81149104A104B10429F7FF9084
:100F3000EF90DF90CF90BF90AF909F908F900895EB
:100F40002FB7F8946091500470915104809152042D
:100F5000909153042FBF0895FC01DB0112968D91EF
:100F60009C9113979383828387E492E0918380839B
:100F700014968C911497848315968C91159785837C
:100F800016964D915D916D917C911997468357838B
:100F9000608771871A964D915D916D917C911D9737
:100FA00042875387648775871E964D915D916D9139
:100FB0007C91519746875787608B718B52968C91A5
:100FC0005297828B53964D915D916D917C9156977E
:100FD000438B548B658B768B57964D915D916D91BC
:100FE0007C915A97478B508F618F728F5B968D9152
:100FF0009C91948F838F0895DC015996ED91FC911B
:101000003097B9F083899489A589B689428553853B
:1010100064857585841B950BA60BB70B811520E89D
:101020009207A105B10538F08FEF9FE7A0E0B0E08F
:10103000089590E080E00895DC0159968D919C918F
:10104000009739F0DC01ED91FC910480F581E02DF1
:10105000199490E080E00895CF93DF931F92CDB76D
:10106000DEB76983DC01ED91FC910280F381E02D14
:1010700041E050E0BE016F5F7F4F19950F90DF9107
:10108000CF910895FC0120812EBD9B012150310993
:1010900041F051810DB407FEFDCF4EB55EBD4193C9
:1010A000F5CF61507109860F971F0DB407FEFDCF74
:1010B0002EB5FC0120830895E0914604F091470489
:1010C000808190914504892B80830895E0914604A6
:1010D000F091470490818091450480958923808315
:1010E00008958EBD00000DB407FEFDCF8EB50895A6
:1010F0008FEF0C9471080F931F93CF93DF93EC0144
:101100000E94A0078B010E9478088F3F69F00E941F
:10111000A007601B710B6C177D07A8F380E0DF91BF
:10112000CF911F910F91089581E0F9CFAF92BF92B7
:10113000CF92DF92EF92FF920F931F93CF93DF93A3
:1011400000D000D01F921F92CDB7DEB78C017B017B
:101150006A018091AB058333E1F45801A40EB51EFA
:10116000A016B10609F46FC00E94660880EF0E94C5
:101170007108812F0E947108802F0E9471080F5FF3
:101180001F4FF70181917F010E9471080E945C0846
:10119000E7CF5B01A40EB51E8433C1F40E9466083C
:1011A00019830A838D2D80688B83CC8264E070E084
:1011B000CE0101960E944208AE14BF0409F441C05A
:1011C000F70181917F010E947108F6CF0E946608A5
:1011D0000F3F110509F028F419820A8384E08B83FC
:1011E0000CC017FD17C019820A8333E016950795C6
:1011F0003A95E1F7007E0C600B8386E0C816D104B7
:10120000A0F5F701DE011496EA15FB0599F081912E
:101210008D93FACFC80126E0969587952A95E1F738
:10122000807E19830A830115104C10F48461D7CF96
:101230008C61D5CFB6016D5F7F4FCE0101960E94C4
:1012400042080E945C08C60128960FB6F894DEBFDB
:101250000FBECDBFDF91CF911F910F91FF90EF9007
:10126000DF90CF90BF90AF90089563E070E0CE0123
:1012700001960E944208F70181917F010E94710846
:10128000AE14BF04C1F7DDCFCF93DF931F92CDB76C
:10129000DEB7898341E050E0BE016F5F7F4F90E091
:1012A00080E00E9496080F90DF91CF91089590E022
:1012B0002091AB05233339F40C96982F990F990F91
:1012C000990F80E008954896F8CFDA01E09148043C
:1012D000F0E0FE2FEE27E60FF71F90E0982F88270B
:1012E000A901BD018E0F9F1F0C949608CF93DF9329
:1012F0001F921F92CDB7DEB779836A8322E030E078
:10130000AE014F5F5F4F60E170E00E9465090F9092
:101310000F90DF91CF910895CF93DF931F921F928B
:10132000CDB7DEB779836A8322E030E0AE014F5F4C
:101330005F4F64E070E00E9465090F900F90DF91AD
:10134000CF910895CF93DF931F92CDB7DEB7209151
:10135000480430E0322F2227260F371F90E0982FC5
:101360008827498341E050E0BE016F5F7F4F820FC5
:10137000931F0E9496080F90DF91CF910895CF930D
:10138000DF931F92CDB7DEB76983DC01ED91FC914D
:101390000280F381E02D41E050E0BE016F5F7F4F9E
:1013A00019950F90DF91CF910895CF93DF931F92FE
:1013B000CDB7DEB76983DC01ED91FC910280F3814A
:1013C000E02D41E050E0BE016F5F7F4F19950F9017
:1013D000DF91CF910895FC019485FB0184859813DA
:1013E00003C081E0983008F080E00895CF93DF9348
:1013F0001F92CDB7DEB76983DC01ED91FC910280CD
:10140000F381E02D41E050E0BE016F5F7F4F199501
:101410000F90DF91CF910895EF92FF920F931F935A
:10142000CF93DF938C017B01D0E0C0E0F701EC0F9C
:10143000FD1F6491662339F0C8010E94F609892BCB
:1014400011F02196F3CFCE01DF91CF911F910F9133
:10145000FF90EF900895E091AB05E353E53030F451
:10146000F0E0E65EFD4F808190E0089590E080E03E
:101470000895089561E0FC0184810E94EA0680914C
:10148000490481111092490408958CBD9DBD0895B1
:10149000CF93DF93EC0180914904811109C081E071
:1014A0008093490480914C0890914D080E94450A10
:1014B00060E08C81DF91CF910C94EA068F929F922D
:1014C000AF92BF92FF920F931F93CF93DF93EC01E4
:1014D000F62E49015A018E81882389F08F819885E3
:1014E0009C012F5F3F4F38872F838230924018F442
:1014F0000E947808F3CFCE010E943A0A1E82CE01E4
:101500000E94480A8CE291E00E947B088F2D806443
:101510000E94710808E110E0D501C401002E04C04A
:10152000B695A795979587950A94D2F70E9471086A
:1015300008501109083F8FEF180771F785E9FF2060
:1015400021F028E087E8F2128FEF0E94710810E086
:101550000E9478088A8787FF04C01F3F11F01F5F31
:10156000F7CFDF91CF911F910F91FF90BF90AF9078
:101570009F908F900895AF92BF92CF92DF92EF929B
:10158000FF920F931F93CF93DF93EC016901C80182
:10159000820F931F8130924050F58E81882379F01D
:1015A00088819981AA81BB8184179507A607B7070F
:1015B00031F48F819885C816D90608F042C0488357
:1015C00059836A837B838B85833039F089E0440FAC
:1015D000551F661F771F8A95D1F79A01AB0161E10C
:1015E000CE010E945E0A882389F083E08D83CE01BC
:1015F0000E943A0A80E0DF91CF911F910F91FF90F6
:10160000EF90DF90CF90BF90AF9008950E94A00719
:101610005B010E9478088A878F3F69F40E94A007C7
:101620006A197B096D327140A0F38FE08D83CE0182
:101630000E943A0ADCCF8E3F89F418861F8281E02F
:101640008E838F8198858C159D0550F40E947808B3
:101650008F819885019698878F83F3CF8DE0E6CFB1
:101660006701E00EF11E0E947808F60181936F0178
:10167000EE15FF05C1F78F819885080F191F188790
:101680000F838985882319F001151240A0F08E81FF
:10169000882389F08F8198859C012F5F3F4F388781
:1016A0002F838230924018F40E947808F3CFCE0145
:1016B0000E943A0A1E8281E09ECFCF92DF92EF9283
:1016C000FF920F93CF93DF93EC01690182E1411503
:1016D00051056105710599F08B85833039F089E0FA
:1016E000440F551F661F771F8A95D1F79A01AB01EA
:1016F00068E1CE010E945E0A882319F084E08D83A0
:101700002DC08EEF0E94710876018EEFD81AF70176
:1017100081917F010E947108EC14FD04C1F78FEFE5
:101720000E9471088FEF0E9471080E9478088A87D2
:101730008F71853071F4011116C0CE010E943A0AF2
:1017400081E0DF91CF910F91FF90EF90DF90CF90EC
:10175000089581E18D83CE010E943A0ACE010E9454
:101760003A0A80E0EECF88E592E00E947B08811182
:1017700002C085E1C4CF20E030E0A9016DE0CE01D8
:101780000E945E0A882311F084E1B9CF0E94780894
:101790008111FACFD2CF0F9340914B0450914C045A
:1017A00060914D0470914E0441155105610571051C
:1017B00099F0082F2FEA35E08091AD059091AE05A4
:1017C0000E945D0B882349F010924B0410924C0448
:1017D00010924D0410924E0481E00F9108950F93E2
:1017E000CF93C82F80914A04811105C0C1E08C2F8E
:1017F000CF910F91089540910002509101026091A4
:101800000202709103020C2F2FEA35E08091AD05A2
:101810009091AE050E945D0B811102C0C0E0E7CF40
:10182000CC2321F381E00E94CB0B8823B9F31092E3
:101830004A04DDCF8F929F92AF92BF92EF92FF92B8
:101840000F931F93CF934B015C01C42F8091000233
:1018500090910102A0910202B091030288159905AE
:10186000AA05BB0551F181E00E94EF0B81110BC06D
:1018700080E0CF911F910F91FF90EF90BF90AF90BC
:101880009F908F9008958FEAE82E85E0F82E00E073
:1018900012E030E020E0B501A4018091AD05909107
:1018A000AE050E94BB0A882319F380920002909231
:1018B0000102A0920202B092030240914A044C2B12
:1018C00040934A0481E0D5CFCF93DF93EC016E853E
:1018D0007F858889998941E00E941A0C882351F0FC
:1018E0008A8920E2829FC001112481559A4FDF919D
:1018F000CF91089590E080E0FACF8F929F92AF92BF
:10190000BF92CF92DF92EF92FF92CF932EE438E016
:101910003093AE052093AD05882309F46DC040E0F7
:1019200060E070E0CB010E941A0C81110BC080E0D6
:10193000CF91FF90EF90DF90CF90BF90AF909F90AE
:101940008F90089580916D078F7789F7809179073F
:1019500090917A07A0917B07B0917C07843691051E
:10196000A105B10520F3C0907507D0907607E090EF
:101970007707F0907807C114D104E104F104B9F2BB
:1019800040E0C701B6010E941A0C882381F28091C1
:10199000BA059091BB058115924049F6A091BF050B
:1019A000AA2329F26091BD057091BE0561157105EC
:1019B00009F4BDCF2091BC05222309F4B8CFA09330
:1019C0006C0820935E0890E080E030E0E1E0F0E019
:1019D000C82FAF01082E02C0440F551F0A94E2F72A
:1019E0002417350769F041E0480F019689309105C9
:1019F00079F7409367089BCFC12CD12C7601C0CFDB
:101A0000809367082091C5053091C60550E040E0FD
:101A10002115310541F42091D3053091D405409131
:101A2000D5055091D60520935F0830936008409308
:101A300061085093620846015701860E971EA11C4B
:101A4000B11C80926D0890926E08A0926F08B092BF
:101A50007008E091C005F091C105F0937308E09320
:101A60007208B0E00E943F3FDC01CB01880D991D58
:101A7000AA1DBB1D8093740890937508A0937608E7
:101A8000B093770825E0EE0FFF1F2A95E1F7E150AC
:101A9000FE4FEF2FFF27E6958E0F9F1FA11DB11D53
:101AA0008093680890936908A0936A08B0936B08C4
:101AB0008090C2059090C305B12CA12C8114910493
:101AC00041F48090CF059090D005A090D105B090C2
:101AD000D205C81AD90AEA0AFB0AC80CD91CEA1CA2
:101AE000FB1C04C0F694E794D794C794CA95D2F728
:101AF000C0926308D0926408E0926508F09266088C
:101B000085EFC8168FE0D806E104F10428F48CE0D4
:101B10008093710881E00CCF80E125EFC2162FEF92
:101B2000D206E104F104A0F38091DB059091DC057D
:101B3000A091DD05B091DE0580937408909375083F
:101B4000A0937608B093770880E2E2CF4F925F923D
:101B50006F927F928F929F92AF92BF92CF92DF92BD
:101B6000EF92FF920F931F93CF93DF93EC014230DC
:101B700051056105710590F480E0DF91CF911F91CF
:101B80000F91FF90EF90DF90CF90BF90AF909F901C
:101B90008F907F906F905F904F90089589859A8580
:101BA000AB85BC850196A11DB11D84179507A607BD
:101BB000B70710F3CB88DC88ED88FE888F898031E9
:101BC00009F042C0BB27A72F962F852F4801590146
:101BD0002A013B01C80ED91EEA1EFB1E809100029D
:101BE00090910102A0910202B0910302C816D90699
:101BF000EA06FB0699F58F898031C1F5B301A20190
:101C0000552766277727440F551F41555A4FFA012C
:101C10009182808280914A04816080934A048A89FB
:101C2000823080F08D819E81AF81B8858C0D9D1DA5
:101C3000AE1DBF1D80934B0490934C04A0934D04A4
:101C4000B0934E0481E099CFDB01CA01E7E0B6957D
:101C5000A79597958795EA95D1F7B8CF40E0C7014A
:101C6000B6010E941A0C8111C6CF86CFB301A20122
:101C70004F77552766277727440F551F440F551F69
:101C800041555A4FFA0180829182A282B382C2CF1B
:101C90008F929F92AF92BF92CF92DF92EF92FF927C
:101CA0000F931F93CF93DF93FC0181859285A385CA
:101CB000B4850196A11DB11D84179507A607B70726
:101CC00070F480E0DF91CF911F910F91FF90EF9022
:101CD000DF90CF90BF90AF909F908F9008958388B2
:101CE0009488A588B6888789803189F5BB27A72F76
:101CF000962F852FE9016A017B018F01BC01CD017F
:101D0000680D791D8A1D9B1D809000029090010234
:101D1000A0900202B090030286169706A806B906A4
:101D200001F5F8018789803111F5DD24EE24FF24C7
:101D3000F601EE0FFF1FE155FA4F80819181B0E06F
:101D4000A0E088839983AA83BB8381E0BBCFDB01BA
:101D5000CA01C7E0B695A79597958795CA95D1F71B
:101D6000C9CF40E00E941A0C8111DBCFAACFE894C2
:101D7000C7F8DD24EE24FF24F601EE0FFF1FEE0F5F
:101D8000FF1FE155FA4F80819181A281B381BF701D
:101D9000D8CF4F925F926F927F92AF92BF92CF92C5
:101DA000DF92EF92FF920F931F93CF93DF9300D0B8
:101DB0001F92CDB7DEB78C0149835A836B837C8336
:101DC0005901C12CD12C7601412C82E0582E612C76
:101DD000712C49815A816B817C819E012F5F3F4F1D
:101DE000C8010E94480E882339F1F8018585A301B6
:101DF000920104C0220F331F441F551F8A95D2F74A
:101E0000DA01C901C80ED91EEA1EFB1E49815A819A
:101E10006B817C818789803111F188EF9FEFAFEF73
:101E2000BFE0481759076A077B0798F2F501C0829F
:101E3000D182E282F38281E00F900F900F900F9099
:101E4000DF91CF911F910F91FF90EF90DF90CF9096
:101E5000BF90AF907F906F905F904F90089588EF04
:101E60009FEFA0E0B0E0DDCFCF93DF93FC012581B1
:101E7000222321F080E0DF91CF910895EC01809141
:101E80007108803159F582E08583178A108E118E92
:101E9000128E8091720890917308B0E0A0E025E066
:101EA000880F991FAA1FBB1F2A95D1F7838B948B8C
:101EB000A58BB68B8AE598E09C8F8B8F81E08C8315
:101EC0001E821F82188619861A861B861C861D860E
:101ED0001E861F86188A198A1A8ACDCF803251F63B
:101EE00083E085834091740850917508609176086D
:101EF00070917708478B508F618F728F9F012D5E95
:101F00003F4F8AE598E00E94C90E8111D3CFB2CF2E
:101F10008F929F92AF92BF92CF92DF92EF92FF92F9
:101F20000F931F93CF93DF93EC018D8181110EC02E
:101F300080E0DF91CF911F910F91FF90EF90DF90A4
:101F4000CF90BF90AF909F908F9008950B891C8980
:101F50002D893E89041715072607370748F34A01DC
:101F60005B01823031F48A869B86AC86BD8681E037
:101F7000E0CF81149104A104B10449F41E821F82B0
:101F8000188619861A861B861C861D86F0CF0A8540
:101F90001B852C853D85EB8DFC8D858590E0099614
:101FA000B901A8014150510961097109082E04C005
:101FB00076956795579547950A94D2F77501640110
:101FC000E1E0CE1AD108E108F10804C0F694E794E4
:101FD000D794C7948A95D2F7C416D506E606F706B5
:101FE00020F0012B022B032B11F58F89988DA98DE1
:101FF000BA8D8E839F83A887B9878E010A5F1F4F92
:10200000C114D104E104F10409F4ADCF4E815F8124
:102010006885798598018B8D9C8D0E94480E91E092
:10202000C91AD108E108F1088111EACF81CFC41A99
:10203000D50AE60AF70AE1CF3F924F925F926F927C
:102040007F928F929F92AF92BF92CF92DF92EF9248
:10205000FF920F931F93CF93DF93CDB7DEB72C97EB
:102060000FB6F894DEBF0FBECDBF5C01DC015B96FE
:102070008D909C905C9716964D905D906D907C90A5
:102080001997411451046104710409F468C0BFEF49
:102090004B1A5B0A6B0A7B0A312CF401818592850D
:1020A000A385B4859C01AD012F5F3F4F4F4F5F4F1C
:1020B00029873A874B875C87730162011D821E82E4
:1020C0001F821886F40181859285A385B4852D81B0
:1020D0003E814F815885281739074A075B0708F06A
:1020E00056C089859A85AB85BC858C159D05AE0546
:1020F000BF0550F482E0C82ED12CE12CF12C92E0E7
:10210000492E512C612C712C9E012F5F3F4FB7013E
:10211000A601C4010E94480E8823C9F189819A81D1
:10212000AB81BC81892B8A2B8B2B09F126013701CE
:102130009FEF491A590A690A790A2D813E814F8118
:1021400058852F5F3F4F4F4F5F4F2D833E834F8307
:1021500058873FEFC31AD30AE30AF30AB3CFF40157
:1021600040805180628073803324339496CFC414AE
:10217000D504E604F70409F70FEF1FEF2FEF3FE058
:10218000B701A601C4010E94A60D811119C080E00B
:102190002C960FB6F894DEBF0FBECDBFDF91CF9166
:1021A0001F910F91FF90EF90DF90CF90BF90AF9075
:1021B0009F908F907F906F905F904F903F90089589
:1021C000D50116964D915D916D917C9119974115B0
:1021D00051056105710539F097018601C4010E941E
:1021E000A60D8823A1F2D5011696CD92DD92ED922F
:1021F000FC921997332051F0D701C6010196A11D19
:10220000B11DF40180839183A283B383F501878993
:10221000908DA18DB28D892B8A2B8B2B39F48481E3
:10222000C78AD08EE18EF28E80688483F501848126
:102230008062848381E0ACCF2F923F924F925F9275
:102240006F927F928F929F92AF92BF92CF92DF92C6
:10225000EF92FF920F931F93CF93DF93EC015B01FB
:102260002A018D81811115C08FEF9FEFDF91CF91F2
:102270001F910F91FF90EF90DF90CF90BF90AF90A4
:102280009F908F907F906F905F904F903F902F9096
:1022900008958C8180FFE8CF0B891C892D893E89A8
:1022A0004A855B856C857D85C201B0E0A0E0680150
:1022B0007901C41AD50AE60AF70AC816D906EA0649
:1022C000FB0618F42801441A550A42011E0126E0B3
:1022D000220E311C8114910409F4B3C04A855B8538
:1022E0006C857D856A0181E0D8228B8D9C8D8A0169
:1022F0009B01E9E03695279517950795EA95D1F763
:10230000ED81E230E1F5FC01628D738D848D958D58
:10231000600F711F821F931F612C22E0722E6C18B8
:102320007D088614970408F434012C8126FD04C02E
:102330006114F2E07F0671F4009100021091010235
:102340002091020230910302061717072807390768
:1023500009F053C040E00E941A0C882309F484CF8E
:10236000C60181559A4FD5019C01260D371DFC01F0
:102370002E173F0709F460C041914D93F9CFFC013E
:1023800074807A947022C114D10471F471100CC05D
:10239000452B462B472B39F58F89988DA98DBA8D02
:1023A0008E839F83A887B987EB8DFC8D6E817F819B
:1023B000888599856250710981099109258504C034
:1023C000660F771F881F991F2A95D2F706851785F4
:1023D00020893189600F711F821F931F670D711D46
:1023E000811D911D99CF4E815F816885798591010D
:1023F0000E94480E8111D8CF37CF75018301960115
:10240000AB01BC018091AD059091AE050E94BB0A65
:10241000882309F429CFA60CB71C8A859B85AC8537
:10242000BD85860D971DA11DB11D8A879B87AC8731
:10243000BD87861897084ECF281B390BA20EB31EF6
:10244000ECCFC20113CFCF93DF931F92CDB7DEB78E
:1024500041E050E0BE016F5F7F4F0E941C11019769
:1024600031F4898190E00F90DF91CF9108958FEF43
:102470009FEFF9CFFC01818D928D009711F00C94A4
:1024800023128FEF9FEF08950F931F93CF93DF9346
:10249000EC01898D9A8D10E000E0009799F00E9480
:1024A00023128C010F3F100769F0898D9A8DFC0172
:1024B00042855385648575854150510961097109CB
:1024C0000E94880FC801DF91CF911F910F9108954D
:1024D0001F93CF93DF93FC012581222371F1162FE7
:1024E000EC01848187FF1EC0CF010E94640CFC01B7
:1024F000892B19F18D81823040F48B899C89AD89BB
:10250000BE89848F958FA68FB78F8F89988D938F73
:10251000828F8F89988DA98DBA8DB58BA48B8C8174
:102520008F778C83111103C08C818F7E8C83812FD8
:10253000DF91CF911F910C94EF0B80E0DF91CF9151
:102540001F910895FF920F931F93CF93DF93EC0198
:102550008D81813041F090E080E0DF91CF911F913B
:102560000F91FF9008958C8181FFF5CF82FD1BC0F4
:102570000091AD051091AE05C8010E94480A0E9465
:102580007808F82EC8010E943A0A8FEFF812E3CFBC
:102590008C8185FF1BC060E0CE010E9468128C8197
:1025A0008F7D8C83D8CF4B895C896D897E898A85A4
:1025B0009B85AC85BD8584179507A607B707C1F233
:1025C000CE010E94880F8111D3CFC5CF40914B041B
:1025D00050914C0460914D0470914E04452B462B54
:1025E000472B21F080E00E94CB0BB5CF80618C831C
:1025F0002A853B85317080E092E0821B930BADCF42
:10260000CF93DF93EC0161E00E946812882311F000
:102610001D8281E0DF91CF910895FC01818D928D23
:10262000009719F061E00C94681208952F923F9280
:102630004F925F926F927F928F929F92AF92BF92D2
:10264000CF92DF92EF92FF920F931F93CF93DF937E
:1026500000D01F921F92CDB7DEB77C015B01342EF4
:102660005D83DC0115968C911597813009F0CEC001
:1026700014962C9021FECAC022FCB4C0C32CDD806D
:1026800022947FE027222094B22DB1702B2ED70107
:102690001A964D915D916D917C911D97C114D10455
:1026A00009F428C15B968D919C915C97FC01748024
:1026B0007A948A019B0169E03695279517950795CD
:1026C0006A95D1F770228A011170711020C001152E
:1026D0001105E9F416964D915D916D917C911997D4
:1026E000411551056105710509F099C057968D9105
:1026F0009D910D90BC91A02D0097A105B10509F009
:10270000B0C0C7010E941C10882309F47FC080E07C
:1027100092E0801B910B46018C159D0508F44C013D
:10272000D7015B964D915C915C9716968D919D912A
:102730000D90BC91A02D0297A109B109FA01258540
:1027400004C0880F991FAA1FBB1F2A95D2F7468580
:10275000578560897189840F951FA61FB71F9C013B
:10276000AD01270D311D411D511D29013A01811473
:1027700032E0930609F07BC0809100029091010243
:10278000A0910202B091030284159505A605B70534
:1027900059F48FEF9FEFDC018093000290930102C8
:1027A000A0930202B0930302022D9501B301A2018E
:1027B0008091AD059091AE050E945D0B882331F1AB
:1027C0009EEFB91AC818D908F70182859385A485A8
:1027D000B585880D991DA11DB11D82879387A4879A
:1027E000B58755CFF70143895489658976898285F4
:1027F0009385A485B585481759076A077B0709F4AF
:102800003DCFC7010E94880F811138CF81E090E051
:10281000D70113969C938E93129780E007C09E0178
:102820002F5F3F4F0E94480E811102C090E079C097
:1028300089819A81AB81BC81F701238D348DF901A7
:10284000278948EF5FEF60E070E0203121F048EF2A
:102850005FEF6FEF7FE084179507A607B70708F0D3
:1028600050CFF70186839783A087B18750CF01159A
:10287000110599F5D7011A964D915D916D917C9155
:102880001D9753968D919D910D90BC91A02D481749
:1028900059076A077B0708F181E00E94EF0B882344
:1028A00009F4B4CF409200025092010260920202F9
:1028B0007092030280914A04816080934A04C801A7
:1028C00081559A4FD5019C01280D391DFC012E1709
:1028D0003F0759F04D914193FACF41E0C301B20156
:1028E0000E941A0C8111EBCF91CF281B390BA20E3D
:1028F000B31E68CFF70183899489A589B6898417A7
:102900009507A607B70738F48481438B548B658BF2
:10291000768B80688483F701848183FD1AC0832DC0
:102920009D810F900F900F900F900F90DF91CF919E
:102930001F910F91FF90EF90DF90CF90BF90AF90DD
:102940009F908F907F906F905F904F903F902F90CF
:10295000089561E0C7010E946812882309F456CFE8
:10296000DECFCF93DF931F92CDB7DEB7698341E00F
:1029700050E0BE016F5F7F4F0E9416130F90DF91F2
:10298000CF910895CF93DF93EC01E98DFA8D3097C5
:1029900049F481E090E09B838A8390E080E0DF91BE
:1029A000CF91089513821282898D9A8D0E941613F9
:1029B000E98DFA8D22813381232B59F7F0CFFF92D5
:1029C0000F931F93CF93DF93EB01FC01178A168AB5
:1029D0002A81211109C02B81211106C02C812111CE
:1029E00003C02D81222301F141155105E9F08A012F
:1029F000FC01F08C80E591E00E94450AAE014E5F3B
:102A00005F4F24E030E06CE070E08F2D0E9465099C
:102A1000B8018F2D0E94760981E090E0DF91CF917F
:102A20001F910F91FF90089580E0F7CFCF93CFB71C
:102A3000F89480914404811127C0E3EDF8E084917B
:102A4000E9E1F9E09491E82FF0E0EE0FFF1FE05B81
:102A5000F74FA591B491EC91E92321F461E085E36E
:102A60000E94EA0661E085E30E9418078CB5806148
:102A70008CBD8CB580648CBD61E084E30E94180736
:102A800061E083E30E941807809144048F5F809384
:102A90004404CFBFCF910895CF93DF93FB012281F0
:102AA0003381DC0113963C932E9312974481558118
:102AB0006681778114964D935D936D937C93179700
:102AC000408551856285738518964D935D936D930E
:102AD0007C931B971C96EF012C969C01275E3F4F21
:102AE00049914D93A217B307D9F7218D328DFC017F
:102AF000328F218FDF91CF910895CF92DF92EF92A5
:102B0000FF920F931F93CF93DF93082F10E092E172
:102B1000899FE0011124CD5CD64F8981982F917057
:102B200081FD4CC0992399F08E7F826089830E9439
:102B3000A007CA80DB80EC80FD80DC01CB018C0D1E
:102B40009D1DAE1DBF1D8E839F83A887B98782E11F
:102B5000809FF001819FF00D1124ED5CF64F918173
:102B6000292F30E0B9017595679543E03595279594
:102B70004A95E1F7262720FF18C0828523856170DA
:102B8000222321F09695917061E069270E94EA0660
:102B900082E1809FF001819FF00D1124ED5CF64FE2
:102BA000818181FF23C088608183DF91CF911F9154
:102BB0000F91FF90EF90DF90CF900895992339F017
:102BC0001E821F82188619868C7F8983C0CF0E943F
:102BD000A007CE80DF80E884F984C616D706E80611
:102BE000F90608F0B4CF89818D7FEFCF877FDCCFE6
:102BF000CF93DF9392E1899FE0011124CD5CD64F02
:102C000088818E3079F48A858F3F61F061E00E947F
:102C100018078B8560E0811161E08A85DF91CF9193
:102C20000C94EA06DF91CF910895CF93DF939FE054
:102C3000899FE0011124CB52D64F88818E3079F4E0
:102C40008B818F3F61F060E00E94180761E08B810B
:102C50000E94EA068B81DF91CF910C94C106DF912F
:102C6000CF910895FC01768765870895DC01ED9189
:102C7000FC91068CF78DE02D199591E08927089538
:102C8000862F089581E08627089521E0FC01848540
:102C9000883008F020E0822F0895FC018485958516
:102CA0000895FC018489958908952BEA32E0FC019E
:102CB00031832083FB014089518962897389FC013A
:102CC00042835383648375830895DC01ED91FC9105
:102CD000048CF58DE02D199490E080E008958F929A
:102CE0009F92AF92BF92CF92DF92EF92FF920F939B
:102CF0001F93CF93DF9300D01F92CDB7DEB7FC01B7
:102D00008581813091F080E00F900F900F900F90AF
:102D1000DF91CF911F910F91FF90EF90DF90CF90B7
:102D2000BF90AF909F908F900895848181FFEBCFEB
:102D300083899489A589B689892B8A2B8B2B09F4E1
:102D40005FC07F0140E050E0BA01CF010E94880FD0
:102D50008823C9F2F701C38CD48C8788908CA18C0E
:102D6000B28C82E090E0A0E0B0E0F6018083918335
:102D7000A283B3839E012F5F3F4FB501A401C6011B
:102D80000E94480E882309F4BECF00E010E09801AD
:102D9000B501A401C6010E94A60D882309F4B3CF92
:102DA00089809A80AB80BC80F6018789803119F1D7
:102DB00088EF9FEFAFEFBFE088169906AA06BB0623
:102DC000C8F2F701178A108E118E128E138A148A98
:102DD000158A168A84818068848361E0C7010E9415
:102DE0006812882309F48FCF40E050E0BA01C70190
:102DF0000E94880F89CF88EF9FEFA0E0B0E0DCCF82
:102E000081E082CFCF92DF92EF92FF921F93CF9318
:102E1000DF93EC0180E2689FF0011124E155FA4F45
:102E20009385917161F0842F827449F080E0DF9185
:102E3000CF911F91FF90EF90DF90CF900895142FC6
:102E40006A8B8091000290910102A0910202B091E0
:102E500003028E879F87A88BB98BC488D588F12CF5
:102E6000E12C7601DD24CC24CF8AD88EE98EFA8E2F
:102E7000828D938DB0E0A0E0AC01BD014C295D29AD
:102E80006E297F294F8B588F698F7A8F8385887140
:102E900011F5848D958DA68DB78D8B8B9C8BAD8B0D
:102EA000BE8B81E08D83812F8F708C831E821F8269
:102EB000188619861A861B861C861D8681E016FFD9
:102EC000B6CFCE01DF91CF911F91FF90EF90DF90B1
:102ED000CF900C946F16803109F0A8CF9E012D5E23
:102EE0003F4F8B8D9C8D0E94C90E882309F49ECF85
:102EF00084E0D8CF0E949041FB0101900020E9F7C7
:102F00003197AF01461B570BDC01ED91FC9102801C
:102F1000F381E02D1994CF93DF93BC0188E199E010
:102F20000E940C0AEC016DEB72E088E199E00E94CE
:102F30007C178C0F9D1FDF91CF910895CF93DF9366
:102F4000D0E0C0E0009731F0BC0188E199E00E9438
:102F50007C17EC016DEB72E088E199E00E947C1730
:102F60008C0F9D1FDF91CF9108958F929F92AF920A
:102F7000BF92EF92FF920F931F93CF93DF93CDB742
:102F8000DEB7A1970FB6F894DEBF0FBECDBF7C01B0
:102F9000FA01CB0119A2223008F42AE08E010F5D5C
:102FA0001F4F822E912CB12CA12CBF01A5019401A1
:102FB0000E944A3FF901CA016A300CF5605DD801F0
:102FC0006E938D01232B242B252B79F790E080E045
:102FD000109721F0BD01C7010E947C17A1960FB682
:102FE000F894DEBF0FBECDBFDF91CF911F910F913F
:102FF000FF90EF90BF90AF909F908F900895695C85
:10300000DECF462F50E070E060E02AE00C94B51768
:103010008F929F92AF92BF92CF92DF92EF92FF92E8
:103020000F931F93CF93DF937C01EB016C0182E040
:10303000C80ED11C4701E5E08E0E911C10E000E0A7
:10304000F60161916F01CE010E9401185C01E881D7
:10305000F9810190F081E02D6EE2CE0119958A0D83
:103060009B1D080F191FC814D90451F7F70165817A
:10307000CE010E940118800F911FDF91CF911F9107
:103080000F91FF90EF90DF90CF90BF90AF909F9007
:103090008F900895AC01990F660B770B2AE088E1B9
:1030A00099E00C94B517CF93DF93FC01248135810F
:1030B0004217530788F4C081D181FB01608171817F
:1030C000CE01840F951F0E94DC41009729F08C1BD4
:1030D0009D0BDF91CF9108958FEF9FEFFACF50E0D6
:1030E00040E0BC0185EE98E00C945318FC0124816B
:1030F0003581232B39F421E0FB018081882349F0BD
:1031000020E007C0808191810E94BD4121E0892B90
:10311000B9F7822F08950F931F93CF93DF938C01FC
:10312000EB01FC01808191810097E1F06881798158
:1031300061157105A9F0428153812C813D814217AF
:10314000530770F00E94C6418C819D81F8019583E0
:1031500084831D821C82DF91CF911F910F9108956E
:103160000E94264088819981F801918380838A8119
:103170009B81938382838C819D8195838483198233
:1031800018821B821A82E5CFCF93DF93EC018881EE
:103190009981009711F00E942640198218821D82A1
:1031A0001C821B821A82DF91CF910895FC018081DD
:1031B0009181009711F00C9426400895CF93DF93EE
:1031C000EC01898D9A8D009741F00E940013898D42
:1031D0009A8D0E9426401A8E198EDF91CF91089504
:1031E0000F931F93CF93DF93EC0188819981009710
:1031F00059F02A813B812617370730F081E0DF91B3
:10320000CF911F910F9108958B016F5F7F4F0E94A7
:10321000AF40009759F0998388831B830A832C81E0
:103220003D81232B59F7FC011082E8CF80E0E7CFE6
:10323000EF92FF920F931F93CF93DF938C017B014B
:10324000EB0109900020E9F72197C61BD70BBE01BF
:103250000E94F018811109C0C801DF91CF911F9120
:103260000F91FF90EF900C94C418F801D583C4839C
:10327000B70180819181DF91CF911F910F91FF90D4
:10328000EF900C94C6410F931F93CF93DF93CDB76C
:10329000DEB761970FB6F894DEBF0FBECDBF8C01CD
:1032A000CB01F801118210821382128215821482DE
:1032B0004AE0BE016F5F7F4F0E94153FBE016F5F06
:1032C0007F4FC8010E94181961960FB6F894DEBFAF
:1032D0000FBECDBFDF91CF911F910F910895EF9257
:1032E000FF920F931F93CF93DF936115710541F404
:1032F00080E0DF91CF911F910F91FF90EF900895A3
:1033000041155105B1F07B01EC010C811D81040FC9
:10331000151FB8010E94F018882351F328813981C4
:103320008C819D81B701820F931F0E94C6411D832E
:103330000C8381E0DECFEF92FF920F931F93CF9328
:10334000DF93EC017B01198218821B821A821D8295
:103350001C82FB0101900020E9F731978F01061BC9
:10336000170BB8010E94F018811109C0CE01DF913E
:10337000CF911F910F91FF90EF900C94C4181D8373
:103380000C83B70188819981DF91CF911F910F91B3
:10339000FF90EF900C94C641AF92BF92CF92DF9214
:1033A000EF92FF920F931F93CF93DF936C015B011A
:1033B0007A0189012417350720F48F2D7901042F14
:1033C000182F6FEB72E0C6010E949B19D50114966D
:1033D000CD91DC91EC16FD06E0F40C171D0708F406
:1033E000E801D501ED91FC911197EC0FFD1F1081C3
:1033F00010826D917C916E0D7F1DC6016115710566
:10340000A1F00E941819F50180819181C80FD91F80
:103410001883C601DF91CF911F910F91FF90EF901C
:10342000DF90CF90BF90AF9008950E94C418EBCF6B
:103430002F923F924F925F927F928F929F92AF9284
:10344000BF92CF92DF92EF92FF920F931F93CF9391
:10345000DF9300D000D000D01F921F92CDB7DEB70F
:103460007C01DC0115968C91811115C0FE0131960D
:10347000CE010C966F0130E231938E179F07E1F772
:10348000DA0130E087E09D91B92E992329F19E322F
:1034900039F48A3011F480E0DFC038E08AE0F3CFFD
:1034A000E0E4F8E04491442321F031969413FACFFC
:1034B000F2CF831780F34FED490F4E3560F74FE998
:1034C000490F4A3118F440EEB42EB90EF601E30F5D
:1034D000F11DB0823F5FD7CF89818032E1F2722E39
:1034E0008B01FB01838D948DD7015C969C938E9309
:1034F0005B971682178210861186128613861486B1
:103500001586F80182859385A485B58543895489FC
:103510006589768984179507A607B70708F04DC017
:1035200025E0B695A795979587952A95D1F7F82F19
:10353000FF70AF2ED80115968C91823008F4ABCF76
:10354000C8010E94231297FDA6CFF80182859385BA
:10355000A485B5854F96A11DB11D82879387A48749
:10356000B587F0E2AF9EB001112461557A4F611525
:10357000710509F490CFDB018C91882341F0853EE1
:1035800009F058C0BB2029F0BB24B394BACFB110C6
:103590000EC0F701A28A8091000290910102A091D1
:1035A0000202B091030286879787A08BB18BDB0163
:1035B0008C918111E9CFBB24B394872D8271823124
:1035C00009F069CFBB2009F45FC0C7010E94640CF9
:1035D000009709F460CF20E2FC0111922A95E9F7E7
:1035E0002BE0F601DC0101900D922A95E1F721E232
:1035F00038E2DC0151963C932E93509740E058E01E
:103600001F965C934E931E9753963C932E9352971E
:1036100059963C932E93589757965C934E93569792
:1036200081E00E94EF0B882309F435CF472DF70185
:1036300062890FC04BE050E0C6010E949541892B82
:1036400009F05FCF872D8073472D6A2D803309F4F1
:1036500022CFC7010E9402172B960FB6F894DEBF47
:103660000FBECDBFDF91CF911F910F91FF90EF90D3
:10367000DF90CF90BF90AF909F908F907F905F90A2
:103680004F903F902F900895F8018581823009F482
:1036900002CFC8010E941C10882309F4FCCED80177
:1036A0005B96ED91FC915C9716968D909D90AD90F8
:1036B000BC901997B2E08B1A9108A108B1088585D2
:1036C00004C0880C991CAA1CBB1C8A95D2F786855D
:1036D0009785A089B189880E991EAA1EBB1E848178
:1036E00014012501280E311C411C511C8214930425
:1036F000A404B50409F1E1E02E1A3108410851088B
:1037000081E00E94EF0B882309F4C5CEEFEAF5E0D3
:1037100011928FEA97E08E179F07D1F7209200024F
:1037200030920102409202025092030280914A04B8
:10373000816080934A04DACFD8015B96ED91FC91C9
:10374000258580E092E0A0E0B0E004C0880F991FDA
:10375000AA1FBB1F2A95D2F7F801438954896589AE
:103760007689840F951FA61FB71F838B948BA58B1B
:10377000B68BD70152961C928FEA95E02CCF7F92A0
:103780008F929F92AF92BF92CF92DF92EF92FF9271
:103790000F931F93CF93DF93CDB7DEB7C754D109F3
:1037A0000FB6F894DEBF0FBECDBF5C0119A218A200
:1037B00087E492E09F8F8E8F1BA21C821B829A83CC
:1037C00089831E82912C812C7E018EE1E80EF11CF2
:1037D00008E718E0C401F401E054FD4F20812F32C6
:1037E00009F40196DC01A054BD4FFE01FB9630E0C8
:1037F00020E06F014D914F3249F0442339F001969A
:103800002F5F3F4F41932C303105A1F72C0D3D1D0B
:10381000F9011082FC01E054FD4F20812F3209F4A0
:1038200001964C01FC01E054FD4F708041E07110A5
:1038300040E030E020E0B601C801F50119958111A2
:103840001EC0F8E008371F07B1F480E0C95BDF4F06
:103850000FB6F894DEBF0FBECDBFDF91CF911F91A1
:103860000F91FF90EF90DF90CF90BF90AF909F901F
:103870008F907F900895C8010E940013E6CF7720B3
:1038800089F021E0A601B801C7010E94181AD82EBC
:1038900088E00837180779F0C8010E940013D1109A
:1038A0000FC0D3CFE8E008371E0719F0C8010E9407
:1038B000001381E0CBCFDD2041F28E010F5F1F4F5F
:1038C000902F812F8701E92EF82E84CF1F93CF935D
:1038D000DF93CDB7DEB76D970FB6F894DEBF0FBE9E
:1038E000CDBFAB011C821B8227E432E03A832983DF
:1038F0001E8221E0BC01CE0101960E94181A11E03F
:1039000081110CC010E0812F6D960FB6F894DEBFC8
:103910000FBECDBFDF91CF911F910895CE010196CB
:103920000E940013F0CFCF93DF93CDB7DEB76D9732
:103930000FB6F894DEBF0FBECDBF442399F1AB01A3
:10394000BC011C821B8287E492E09A8389831E82D9
:1039500022E0CE0101960E94181A81110EC090E05B
:1039600081E0911101C080E06D960FB6F894DEBF42
:103970000FBECDBFDF91CF910895CE0101960E9479
:103980006F16882361F3CE0101960E94640C0097A4
:1039900031F325EEFC0120831E8281E00E94EF0BB3
:1039A000982FDECF81E0E0CFAF92BF92CF92DF922F
:1039B000EF92FF920F931F93CF93DF9300D01F924C
:1039C000CDB7DEB78C016B017A018091AB058333F3
:1039D000E9F45B016801C40ED51EC016D106A9F139
:1039E0000E9466088FE00E947108812F0E94710872
:1039F000802F0E9471080F5F1F4F80E00E947108A6
:103A0000F50181935F010E945C08E7CF843369F57B
:103A10000E94660819830A838F2D8F778B83EC822F
:103A200064E070E0CE0101960E944208A70170E0B8
:103A300060E0C6010E94AB41E114F10421F0B7013E
:103A4000C6010E9442080E945C08C7010F900F90B7
:103A50000F900F90DF91CF911F910F91FF90EF90FA
:103A6000DF90CF90BF90AF9008950E9466080F3FFF
:103A7000110509F030F419820A831B8263E070E0BB
:103A8000D1CF17FD0BC019820A8333E01695079535
:103A90003A95E1F7007E08600B83F0CFC80126E07D
:103AA000969587952A95E1F7807E19830A830115FB
:103AB000104C18F480618B83E1CF8861FCCF1F9399
:103AC000CF93DF931F92CDB7DEB7182F80E591E03B
:103AD0000E94450A812F0E94570927E0129FF0019A
:103AE0001124ED59FA4F22813381377041E050E0C3
:103AF000BE016F5F7F4F820F931F0E94D41C89818C
:103B00000F90DF91CF911F910895FC01808D883037
:103B100040F4218D328D232B21F00E945F1D90E017
:103B200008958FEF9FEF0895CF93DF93FC012485D5
:103B3000283028F08FEF9FEFDF91CF910895EC01AF
:103B40000190F081E02D0084F185E02D1995892BFD
:103B500089F38C850E945F1D90E0EECFCF93DF93B9
:103B60001F92CDB7DEB741E050E0BE016F5F7F4FDF
:103B70000E94D41C89810F90DF91CF91089590E02D
:103B800080E00C94AE1DCF93DF93C4E1D0E00E949F
:103B9000BF1D882361F061E070E080E090E00E944A
:103BA0006E072197A1F780E0DF91CF91089581E022
:103BB000FBCF1F93CF93DF931F921F92CDB7DEB73A
:103BC00060E372E080E090E00E946E070E941615AC
:103BD00080910402282F30E0F901E256F74FE4917A
:103BE000F0E0EE0FFF1FE659F74F459154915093C7
:103BF000470440934604F901EC51F74FE491E093F8
:103C0000450461E00E9418070E945C0880E591E08D
:103C10000E94450A84E38093AB0580E80E94440932
:103C20000E94C31D882391F188E00E9444090E94EC
:103C3000BF1D883059F580E10E9444090E94BF1DD4
:103C4000803121F580E00E9444090E94BF1D182F99
:103C500081111CC08FE190E00E94AE1D8330B1F451
:103C600080E48093480442E06EE170E0812F0E947E
:103C7000A20942E06FE170E0812F0E94A2091F5F5C
:103C8000183089F781E08093AC0564C087E38093A6
:103C9000AB0580E80E9444090E94C31D8823F9F007
:103CA00088E00E9444090E94BF1D8830C1F480E171
:103CB0000E9444090E94BF1D182F803181F480E0CA
:103CC0000E9444090E94BF1D811109C089E390E050
:103CD0000E94AE1D843019F410934804D3CF83E3BF
:103CE0008093AB0580E80E9444090E94C31D88238D
:103CF00071F180E10E9444090E94BF1D803139F5B5
:103D000082E10E9444090E94BF1D823101F580E0DA
:103D10000E9444090E94BF1D811119C084E0809354
:103D2000480415E51A8341E050E0BE016E5F7F4F05
:103D30008BE190E00E949608198341E050E0BE01BB
:103D40006F5F7F4F8AE190E00E9496089BCF1092B0
:103D5000AB0580E00F900F90DF91CF911F910895F8
:103D6000CF92DF92EF92FF92CF93DF93CDB7DEB782
:103D7000C254D1090FB6F894DEBF0FBECDBFFC010F
:103D8000428153816481758123964CAF5DAF6EAFE4
:103D90007FAF239781E023968FAF23972396CCACF8
:103DA000DDACEEACFFAC2397CBAADCAAEDAAFEAA51
:103DB0004DA75EA76FA778AB88ABCDA4DEA4EFA418
:103DC000F8A8CFA2D8A6E9A6FAA68EABCBA8DCA805
:103DD000EDA8FEA8C9A2DAA2EBA2FCA22BEA32E06F
:103DE0003C8B2B8B9FEF9D8B9E8B9F8B188E3E87E2
:103DF0002D878AA7CFA0D8A4E9A4FAA4CF86D88A11
:103E0000E98AFA8A8CA389A19AA1ABA1BCA189876E
:103E10009A87AB87BC873A8329834B835C836D8306
:103E20007E838091AC05882309F443C080E591E04E
:103E30000E94450A46E050E068E072E089E090E0C8
:103E40000E94960844E050E0BE016D5F7F4F8FE016
:103E500090E00E94960844E050E0BE01615F7F4F11
:103E600081E090E00E94960844E050E0BE016B5E65
:103E70007F4F85E090E00E94960881E08C878985DD
:103E80009A85AB85BC858093B7089093B808A093BA
:103E9000B908B093BA08CE5BDF4F0FB6F894DEBF17
:103EA0000FBECDBFDF91CF91FF90EF90DF90CF900D
:103EB00008950E94D91D882371F3B8CF209148043A
:103EC00030E0322F2227620F731F90E0982F88274F
:103ED000860F971F0C94AE1DCF93C82F462F61E01D
:103EE00070E00E94A20961E070E08C2F0E945E1FCA
:103EF0008111F9CFCF910895CF93C82F80E591E03C
:103F00000E94450A68E070E08C2FCF910C946C1FE2
:103F1000CF93C82F80E591E00E94450A60E170E0F0
:103F20008C2FCF910C946C1FCF93DF93EC01888D75
:103F3000883020F40E94881F88E0888FDF91CF911D
:103F4000089563E070E00C945E1FCF93C82F80E566
:103F500091E00E94450A8C2FCF910C94A11FEF9203
:103F6000FF920F931F93CF93DF937C018091AB055A
:103F7000D4E0833309F0D8E00BE915E0C0E0F801A4
:103F8000219131918F01F70184819581281739079B
:103F900029F0CF5FDC13F3CF80E006C08C2F0E94A6
:103FA000A51F8431B1F781E0DF91CF911F910F916F
:103FB000FF90EF900895CF93DF93EC018C858830CC
:103FC000D0F40E94A51F843189F0882379F08831CC
:103FD00069F021E08C3159F4E881F9810084F185A0
:103FE000E02DCE01199521E0892B09F420E0822FE4
:103FF000DF91CF91089580E0FBCFCF92DF92EF92D7
:10400000FF92CF93DF93EC018C85883068F40E9497
:104010007C1F0E94A0076B017C018C850E94A51F5C
:10402000811109C088E08C87DF91CF91FF90EF90DC
:10403000DF90CF90089561E070E080E090E00E9412
:104040006E070E94A007AB01BC014C195D096E0907
:104050007F098D859E85B0E0A0E0481759076A0763
:104060007B07D8F28C850E94881FDCCFCF93FC01A0
:10407000C08D80E591E00E94450A60E270E08C2FDF
:104080000E946C1F62E070E08C2F0E945E1F84FD16
:1040900016C062E070E08C2F0E945E1F83FF0AC092
:1040A00048E162E070E08C2F0E94A20980E090E07D
:1040B000CF91089580E591E00E94450AE3CF40E169
:1040C00062E070E08C2F0E94A20981E0F0CFCF92D5
:1040D000DF92EF92FF920F931F93CF93DF9300D065
:1040E00000D0CDB7DEB7E82EF12C9FE0899F80018C
:1040F00011240B52164FD80113968C9113971896D2
:104100009C91992309F47EC00E94C106F801228186
:10411000892B09F07EC0216022838FE08E9D800173
:104120008F9D100D11240B52164FF801828180FFD4
:1041300079C082FF58C00E94A007D8011496CD9084
:10414000DD90ED90FC901797C616D706E806F906A5
:1041500008F049C012968C9112978B7F12968C931F
:1041600012971196EC91B2E1EB9FF0011124ED5CF6
:10417000F64F80818E3009F451C08093F6088BEAA7
:1041800092E09A8389838091F3089091F408A0913A
:10419000F508B091F6088B839C83AD83BE8348E716
:1041A00054E1BE016F5F7F4F87EF98E00E94DF14FC
:1041B0006DEC72E087EF98E00E947C17F801618156
:1041C00087EF98E00E94BF096FEC72E087EF98E0FC
:1041D0000E947C1787EF98E00E94362080913C0473
:1041E000816080933C0426960FB6F894DEBF0FBE24
:1041F000CDBFDF91CF911F910F91FF90EF90DF9096
:10420000CF9008950E94C106F8012281892B09F000
:1042100082CF2E7FD80112962C937FCF818181602F
:104220008183E1CF0E94A007605B7F4F8F4F9F4F3C
:10423000D80114966D937D938D939C931797129646
:104240008C911297846012968C93CDCF8091AC059F
:10425000882349F08091AB05843351F08733A9F06E
:1042600090E080E008950E94D91D8823C9F3F2CF21
:1042700080E591E00E94450A85E390E00E94AE1D32
:1042800085FD0DC082E090E0089580E591E00E94F8
:10429000450A8EE290E00E94AE1D80FFF3CF81E0E0
:1042A00090E00895DA01E0914804F0E0FE2FEE2757
:1042B000E60FF71F90E0982F8827A901BD018E0F08
:1042C0009F1F0C94D41C8F929F92AF92BF92CF925B
:1042D000DF92EF92FF920F931F93CF93DF93CDB7AF
:1042E000DEB760970FB6F894DEBF0FBECDBF7C017E
:1042F0009091AB05911115C018E0812F60960FB613
:10430000F894DEBF0FBECDBFDF91CF911F910F910B
:10431000FF90EF90DF90CF90BF90AF909F908F90E5
:10432000089508E0933309F404E06B0180E591E01F
:104330000E94450A9E012F5F3F4F5901490110E03D
:10434000812F0E94A11FF40181934F018823C1F0A6
:104350001F5F0113F5CF00E0F50181915F018D3101
:1043600049F0883139F08A51823020F00F5F101304
:10437000F3CFC2CF60E170E0802F0E946C1F102F3E
:10438000A12EB12CF501EE0FFF1FE556FA4F118259
:10439000108283EE93E00197F1F742E870E060E06D
:1043A000812F0E94A2094FEF62E070E0812F0E94EE
:1043B000A209B601C114D10491F480910602909132
:1043C000070201968115F0EC9F0708F45CC09093FA
:1043D0000702809306026091060270910702812F06
:1043E0000E948C0986E0E4E1F2E0DE01199601907A
:1043F0000D928A95E1F7F70183818F778C8784810D
:104400008D8785818E87A7014E5F5F4F24E030E066
:104410006CE070E0812F0E946509B601812F0E9437
:10442000760926E030E0AE01475F5F4F66E070E05E
:10443000812F0E94650961E070E0812F0E946C1F4E
:1044400027E02A9DC0012B9D900D11249C012D5920
:104450003A4F7901F9011182108222E030E0AE0179
:10446000415F5F4F68E270E0812F0E9452218F858B
:104470009889982789279827F70193838283168242
:10448000158214823ACF80E090ECA1CFCF92DF92D8
:10449000EF92FF920F931F93CF93DF9300D000D042
:1044A000CDB7DEB78C016B017A01FC01808D8830BD
:1044B00010F40E94881F8BEA92E09A838983F601A8
:1044C00082819381A481B5818B839C83AD83BE83DC
:1044D000B701CE0101960E946321F801808F8830D8
:1044E000A0F4F586E486128E118E81E026960FB632
:1044F000F894DEBF0FBECDBFDF91CF911F910F911A
:10450000FF90EF90DF90CF90089580E0EFCF7F9203
:104510008F929F92AF92BF92CF92DF92EF92FF92D3
:104520000F931F93CF93DF931F921F92CDB7DEB7E8
:10453000782E8B014A01590122E030E0AE014F5F35
:104540005F4F64E270E00E945221E980FA80FE240D
:10455000EF24FE24E00EF11E970137704091AB0569
:10456000072D10E0433309F042C0085F1F4F102FA2
:104570000027110F110F110FC901800F911F473331
:10458000C9F1A9014A0D5B1D4130584098F160E026
:1045900078E06B01C21AD30AA601B4010E94960802
:1045A000A5014C195D09B4016C0D7D1DC8010E9467
:1045B0009608EA0CFB1CF982EA8222E030E0AE01A8
:1045C0004F5F5F4F64E270E0872D0E9465090F9096
:1045D0000F90DF91CF911F910F91FF90EF90DF909F
:1045E000CF90BF90AF909F908F907F900895005F85
:1045F0001F4FBDCFA501B401DACFEF92FF921F93F9
:10460000CF93DF931F921F92CDB7DEB7182F22E012
:1046100030E0AE014F5F5F4F60E270E00E945221D8
:10462000E980FA80FE24EF24FE2422E030E0AE018F
:104630004F5F5F4F60E270E0812F0E9452218981BD
:104640009A81982789279827E816F90689F487E040
:10465000189FF0011124ED59FA4FF582E482C70149
:104660000F900F90DF91CF911F91FF90EF900895E1
:104670007C01DBCF1F93CF93DF93182F80E591E070
:104680000E94450A812F0E94FD22EC01812F0E9489
:10469000A11F873121F08C3111F0D0E0C0E0CE01B4
:1046A000DF91CF911F910895CF93DF93EC018C851B
:1046B000883060F40E94A51F873111F08C3131F4ED
:1046C0008C850E943A238115984088F3DF91CF9121
:1046D0000895FC018485883010F40C943A2390E00E
:1046E00080E00895CF92DF92EF92FF921F93CF93D5
:1046F000DF93182F7B01EA014130584010F0C0E0F1
:10470000D8E080E591E00E94450A812F0E94FD22B9
:104710006C01812F0E94A11F873111F08C3121F58E
:10472000CC16DD0670F380E591E00E94450A9E01FB
:10473000A70170E060E0812F0E94872260E270E0B4
:10474000812F0E946C1F62E070E0812F0E945E1F2B
:1047500084FD0DC0812F0E94A11F8823B9F080E540
:1047600091E00E94450AEFCFD0E0C0E0DCCF40E10D
:1047700062E070E0812F0E94A209CE01DF91CF910B
:104780001F91FF90EF90DF90CF900895D0E0C0E0B0
:10479000F4CF0F931F93CF93DF938C01EA01FC01B9
:1047A0008485883048F40E947223892B39F481E093
:1047B00090E0F80193838283D0E0C0E0CE01DF91E6
:1047C000CF911F910F910895FC0144815581608123
:1047D000718188E199E00C94C9230F931F93CF93C3
:1047E000DF938C01EB0166E572E088E199E00E94BD
:1047F0000C0AC8010E94E42364E572E088E199E0B4
:104800000E940C0A6AE372E088E199E00E940C0AB7
:10481000CE010E94E42368E372E088E199E00E94FF
:104820000C0A60E372E088E199E0DF91CF911F917B
:104830000F910C940C0A9F92AF92BF92CF92DF928D
:10484000EF92FF920F931F93CF93DF938C015B0145
:10485000942EE52EFC01C688D788F08C80E591E087
:104860000E94450A8F2D0E94FD22C92DDE2D8C1736
:104870009D0708F4EC019E01A501B6018F2D0E9451
:104880008722F801868997898C0F9D1F978B868BCD
:10489000CE01DF91CF911F910F91FF90EF90DF90AC
:1048A000CF90BF90AF909F900895FF920F931F936A
:1048B000CF93DF931F921F92CDB7DEB7F82E22E081
:1048C00030E0AE014F5F5F4F66E270E00E94522120
:1048D00009811A8110270127102722E030E0AE015C
:1048E0004F5F5F4F66E270E08F2D0E9452218981F9
:1048F0009A819827892798270817190749F4C8012A
:104900000F900F90DF91CF911F910F91FF9008951D
:104910008C01E3CF1F93CF93DF93182F87E0189F6D
:10492000E0011124CD59DA4F88819981009761F413
:1049300080E591E00E94450A812F0E9455242E8136
:10494000821B910999838883DF91CF911F910895EC
:104950009F92AF92BF92CF92DF92EF92FF920F930E
:104960001F93CF93DF93EC017B018091AB05811105
:1049700021C01B821A8288EE93E0A0E0B0E08C8315
:104980009D83AE83BF838DE792E09983888388E01F
:104990008C8788EE93E09E878D87CE01DF91CF9143
:1049A0001F910F91FF90EF90DF90CF90BF90AF904D
:1049B0009F90089534E0932E833311F028E0922ED7
:1049C0008BE9C82E85E0D82E10E098E0B92EA12CF6
:1049D000D6012D913D916D01F701848195812817B4
:1049E000390791F4812F0E94A51F082F873111F0FC
:1049F0008C3139F5812F0E948A24892B59F50C318D
:104A000019F4812F0E947C1F1F5F9112E1CFA1102A
:104A100008C0D701ED91FC910084F185E02DC7011C
:104A200019951B821A8288EE93E0A0E0B0E08C8397
:104A30009D83AE83BF838DE792E099838883BC8694
:104A4000A8CF843149F08111DFCFF601329711826E
:104A50001082DACFB12ED8CFAA24A394D5CF8F92CB
:104A60009F92AF92BF92CF92DF92EF92FF920F93FD
:104A70001F93CF93DF93CDB7DEB72F970FB6F89480
:104A8000DEBF0FBECDBF5C014B017A018091AB054B
:104A90008823C9F104E0833309F008E0B501CE01B1
:104AA00001960E94A8248BE9C82E85E0D82E10E03C
:104AB000F601219131916F01F501848195812817CB
:104AC000390751F4812F0E94A51F873129F4A701CE
:104AD000B401812F0E9472231F5F0113E9CFC70128
:104AE0002F960FB6F894DEBF0FBECDBFDF91CF91EA
:104AF0001F910F91FF90EF90DF90CF90BF90AF90FC
:104B00009F908F900895F12CE12CE9CFFC018485D2
:104B1000883010F40C948A2490E080E008954F923D
:104B20005F927F928F929F92AF92BF92CF92DF92CD
:104B3000EF92FF920F931F93CF93DF931F921F92D9
:104B4000CDB7DEB7782E6B014A01A82EB12C27E035
:104B5000829FC0011124FC01ED59FA4F7F010081B1
:104B6000118180E591E00E94450A0815190554F469
:104B7000872D0E945524F70126818C01021B110903
:104B8000118300830115110519F5872D0E94A11FBE
:104B9000843159F0882349F001E010E08C3111F4A0
:104BA00010E000E0119501951109C8010F900F90D8
:104BB000DF91CF911F910F91FF90EF90DF90CF90F9
:104BC000BF90AF909F908F907F905F904F9008958F
:104BD000801691060CF4840187E08A9DF0018B9D7C
:104BE000F00D1124ED59FA4FE280F380C114D10485
:104BF00051F12701F7E05F22872D0E945709840DAC
:104C0000951D2091AB05273309F453C09801240D5D
:104C1000351D2130384008F44CC020E038E049010F
:104C200084189508A401B6010E94D41C2601480CE2
:104C3000591C6801C818D908872D0E945709A60178
:104C4000B2010E94D41CE00EF11E87E08A9DF001A3
:104C50008B9DF00D1124ED59FA4FF382E2822081F1
:104C60003181201B310B318320838681800F912F6E
:104C7000911D8A3F910510F4232BF1F487E08A9D62
:104C8000F0018B9DF00D1124ED59FA4F1682F98237
:104C9000EA8222E030E0AE014F5F5F4F68E270E0F1
:104CA000872D0E94650960E470E0872D0E946C1FCB
:104CB0007CCFA801B601C5CF868377CFCF93DF9392
:104CC000FC01218D328D2115310529F48FEF9FEFE5
:104CD000DF91CF910895EC01808D4217530708F0C2
:104CE000A9010E948F251816190684F7298D3A8D7F
:104CF000281B390B3A8F298FEBCF0F931F93CF933C
:104D0000DF931F92CDB7DEB7FC01218D328D232BAF
:104D100041F48FEF9FEF0F90DF91CF911F910F9193
:104D200008958C0141E050E0BE016F5F7F4FFC01B0
:104D3000808D0E948F25181619065CF7F801818D69
:104D4000928D0197928F818F898190E0E4CFCF93EC
:104D5000DF931F92CDB7DEB741E050E0BE016F5F39
:104D60007F4FFC0184850E948F251816190634F4A4
:104D7000898190E00F90DF91CF9108958FEF9FEFA1
:104D8000F9CF0F931F93CF93DF93EC010E94A007FD
:104D9000688779878A879B87CE010E94A72697FF1D
:104DA00015C00E94A007088519852A853B85601BD0
:104DB000710B820B930B0C811D812E813F8160173B
:104DC00071078207930740F38FEF9FEFDF91CF9139
:104DD0001F910F910895CF92DF92EF92FF920F9360
:104DE0001F93CF93DF931F921F92CDB7DEB78C0135
:104DF0006B01E42E6FEB72E00E949B19C6010E94CA
:104E0000C1260E2C000CFF0897FD11C0E816F9060C
:104E100071F089831A8241E050E0BE016F5F7F4FDD
:104E2000C8010E946F19C6010E94C126EDCFC801BA
:104E30000F900F90DF91CF911F910F91FF90EF9006
:104E4000DF90CF900895FC018485883010F40C9495
:104E50008F2590E080E008958F929F92AF92BF924D
:104E6000CF92DF92EF92FF920F931F93CF93DF9336
:104E700000D000D000D01F92CDB7DEB79091AB0527
:104E8000911115C018E0812F2A960FB6F894DEBF55
:104E90000FBECDBFDF91CF911F910F91FF90EF908B
:104EA000DF90CF90BF90AF909F908F90089528E0B3
:104EB000F22E933311F494E0F92E6B01082F80E564
:104EC00091E00E94450A9E012F5F3F4F5901490121
:104ED00010E0812F0E94A11FF40181934F018823CC
:104EE000C1F01F5FF112F5CFF12CF50191915F0137
:104EF0009D3149F0983139F09A51923020F0F39475
:104F00001F11F3CFBFCF60E170E08F2D0E946C1FA7
:104F10001F2DE12EF12CF701EE0FFF1FE556FA4F82
:104F20001182108283EE93E00197F1F7402F70E039
:104F300060E0812F0E94A2094FEF62E070E0812FB4
:104F40000E94A209B601CD2889F4809106029091B1
:104F5000070201968115F0EC9F0798F190930702E4
:104F6000809306026091060270910702812F0E94D1
:104F70008C0961E070E0812F0E946C1F27E02E9D5C
:104F8000C0012F9D900D11249C012D593A4F79019C
:104F9000F9011182108222E030E0AE01475F5F4FDD
:104FA00068E270E0812F0E94522189859A859827B6
:104FB00089279827F70193838283168215821482AA
:104FC00062CF80E090ECCACF0F931F93CF93DF9313
:104FD000EC018B01888D883010F40E94881FB80185
:104FE00082E00E942C27888F883050F41D870C8720
:104FF0001A8E198E81E0DF91CF911F910F91089544
:1050000080E0F9CF0F931F93CF938C01FC01648153
:10501000758181E20E942C27C82F8830F8F480E542
:1050200091E00E94450A8C2F0E94A11F833131F02C
:105030008C2FCF911F910F910C947C1F62E070E038
:105040008C2F0E946C1FF80184819581EC2FF0E079
:10505000EE0FFF1FE556FA4F91838083CF911F918A
:105060000F910895CF92DF92EF92FF921F93CF930B
:10507000DF93EC017B016A018C85883048F40E9443
:10508000A51F882319F08C850E947C1F88E08C87DF
:10509000F70182819381A481B5810097A105B105B3
:1050A00051F490E080E0DF91CF911F91FF90EF905D
:1050B000DF90CF9008958F3F9F4FAF4FBF4F89F341
:1050C00070E060E081E20E942C27182F8C878830E6
:1050D00040F780E591E00E94450AA7014E5F5F4FCF
:1050E00024E030E06CE070E0812F0E946509B60199
:1050F000812F0E94760964E070E0812F0E946C1F6E
:105100000E94A0076B017C018C850E94A51F87313E
:1051100011F18C3101F1882321F20E94A007AB012B
:10512000BC014C195D096E097F098D859E85B0E033
:10513000A0E084179507A607B70738F061E070E094
:1051400080E090E00E946E07DFCF8C850E94881F70
:1051500088E08C87A6CF81E090E0A5CF0F931F93C6
:10516000CF93DF931F921F92CDB7DEB7FC0124854A
:105170002830E0F48C0180E591E00E94450A22E0AD
:1051800030E0AE014F5F5F4F60E170E0F801848571
:105190000E94522189819A819827892798270F9008
:1051A0000F90DF91CF911F910F91089590E080E0D3
:1051B000F6CF0F931F93CF93DF931F921F92CDB71C
:1051C000DEB7FC0124852830E0F48C0180E591E015
:1051D0000E94450A22E030E0AE014F5F5F4F64E07D
:1051E00070E0F80184850E94522189819A81982774
:1051F000892798270F900F90DF91CF911F910F91E2
:10520000089590E080E0F6CF0F931F93CF93DF9344
:1052100000D000D01F921F92CDB7DEB78C01D8010D
:1052200059964D915C915A974115510551F0ED9168
:10523000FC91048CF58DE02D70E060E0C8011995BB
:10524000EECFF801808D0E948A24892BB1F148E0CD
:1052500050E0BE016F5F7F4FD80158968C910E943D
:105260008F2518161906F4F4D801509684E0FE0133
:10527000319601900D928A95E1F78D8190E0982FFB
:1052800088272E81820F911DF801958B848B8F8149
:10529000282F30E0322F22278885820F932F911DEF
:1052A000928F818F28960FB6F894DEBF0FBECDBFC8
:1052B000DF91CF911F910F91089590E080E0F2CFA0
:1052C0004F925F926F927F928F929F92AF92BF9216
:1052D000CF92DF92EF92FF920F931F93CF93DF93C2
:1052E000CDB7DEB763970FB6F894DEBF0FBECDBF64
:1052F0007C016B013A01FB0120E090E080E06AE074
:105300003191332309F461C040ED430F4A3008F076
:105310004DC0689FA001699F500D1124CA01C0971C
:10532000830F911D37FD9A958F3F910549F340F307
:10533000F70142815381648175818091C308909106
:10534000C408A091C508B091C608481759076A0754
:105350007B0709F40DC28701085F1F4F0E94A00759
:105360006F7077277C5FC8010E94E427813009F0C5
:1053700004C28BEA92E09A838983F7018281938148
:10538000A481B5818B839C83AD83BE8345E350E0CC
:10539000BE016F5F7F4FC8010E94DF14892BA9F502
:1053A000D12CC12CC8010E94941F17C03E3209F0B5
:1053B000BFCF233009F4BCCFD301A20FB11D129689
:1053C0008C932F5F90E080E09BCF233009F0B0CF2B
:1053D000F3018583CC24C394D12CC60163960FB608
:1053E000F894DEBF0FBECDBFDF91CF911F910F911B
:1053F000FF90EF90DF90CF90BF90AF909F908F90F5
:105400007F906F905F904F9008950E94A007F701E2
:105410007783668342E050E0B7016A5F7F4FC8013F
:105420000E941B2481E090E09A83898342E050E04F
:10543000BE016F5F7F4FC8010E941B2480E091E096
:105440009A83898342E050E0BE016F5F7F4FC801BD
:105450000E941B241A82198242E050E0BE016F5F55
:105460007F4FC8010E941B2442E050E0BE016F5FE5
:105470007F4FC8010E941B2442E050E0BE016F5FD5
:105480007F4FC8010E941B245601F60180818823AA
:1054900001F16501F60181912F01882311F08E320F
:1054A000B1F446018A189B081814190474F48D8607
:1054B00041E050E0BE01635F7F4FC8010E941B24A2
:1054C000A401B501C8010E941B245201DECF620174
:1054D000E1CF1D8641E050E0BE01635F7F4FC80110
:1054E0000E941B24C12CDD24D394DA82C98242E0BD
:1054F00050E0BE016F5F7F4FC8010E941B24DA821B
:10550000C98242E050E0BE016F5F7F4FC8010E9438
:105510001B24C8010E943620892B09F441CFF3E0F7
:10552000AF2EB12C230122E0420E511CD4C0F70152
:105530004281538164817581808D918DA28DB38D5F
:10554000481759076A077B0709F008C1848D958DB4
:10555000C59709F003C181A192A15DEFC52EDD249D
:10556000DA940C970CF4ADC04CE050E0BE016F5FD4
:105570007F4FC8010E945E268B819C8198278927D6
:1055800098279A8B898BF7014681578129813A8127
:105590004217530709F0E7C097FFE5C08F7092707C
:1055A0003BEFC32EDD24DA94892B09F08AC06F808B
:1055B00078847624672476242AEFC22EDD24DA94B8
:1055C0006114710409F47DC0D12CC12C8D819E81A0
:1055D000982789279827C816D906F8F441E050E0A3
:1055E000BE01635F7F4FC8010E945E264D85442344
:1055F00031F050E070E060E0C8010E945E268D85C9
:105600008111ECCF44E050E070E060E0C8010E94FE
:105610005E26FFEFCF1ADF0AD9CF912C812C41E013
:1056200050E0BE016D5E7F4FC8010E945E264B892F
:10563000842F807C09F06CC0442331F050E070E08E
:1056400060E0C8010E945E268B898111E8CF42E0AC
:1056500050E0BE01615F7F4FC8010E945E2642E0BC
:1056600050E0BE01635F7F4FC8010E945E2644E0A8
:1056700050E070E060E0C8010E945E2642E050E029
:10568000BE016F5E7F4FC8010E945E268F8598899C
:1056900049895A898115914009F043C0CD84DE843F
:1056A000DC24CD24DC2481E0C816D104D1F54115D9
:1056B000544009F04AC044E050E0B201C8010E94E1
:1056C0005E2621E0A21AB10809F46CCEFFEFCF16D6
:1056D000DF0609F067CE0E94A0073B014C01C8011C
:1056E0000E940429181619060CF421CF0E94A00765
:1056F0006619770988099909693873418105910507
:1057000048F562E370E080E090E00E946E07E7CF2A
:1057100041E050E070E060E0C8010E945E261B8A14
:1057200093CF54274527542770E060E0C8010E94BA
:105730005E26FFEF8F1A9F0A6814790409F06FCF75
:1057400096EFC92EDD24DA94BCCFE7EFCE2EDD2410
:10575000DA94B7CFCC24CA94DC2CB3CF6EEFC62E2C
:10576000DD24DA94AECF4CEFC42EDD24DA94A9CF39
:105770008EEFC82EDD24DA9430CED12CC12C2DCE64
:10578000CF92DF92EF92FF920F931F93CF93DF930D
:10579000CDB7DEB7AF970FB6F894DEBF0FBECDBF63
:1057A0007C016A010BEA12E01A8309831C861B86BE
:1057B00088EE93E0A0E0B0E08D879E87AF87B88B3E
:1057C00083E592E09A878987188F0F8B198E1A8E3E
:1057D0001B8E1C8E88E089A31BA70AA71CA61DA6EA
:1057E0001EA61FA68091B7089091B808A091B9088D
:1057F000B091BA088EA39FA3A8A7B9A78B839C8357
:10580000AD83BE8318861F82AE01465D5F4FCE0119
:1058100001960E94602981309105B1F4D701ED9184
:10582000FC910488F589E02D1DA30CA38CA59DA5F2
:10583000AEA5BFA58EA39FA3A8A7B9A7A601BE0129
:105840006C5D7F4FC7011995AF960FB6F894DEBF18
:105850000FBECDBFDF91CF911F910F91FF90EF90C1
:10586000DF90CF900895CF92DF92EF92FF920F9347
:105870001F93CF93DF93CDB7DEB7AF970FB6F894F2
:10588000DEBF0FBECDBF8C016B017A018BEA92E0C7
:105890009A8389831B821C821D821E821C861B8622
:1058A00048EE53E060E070E04D875E876F87788B4D
:1058B00023E532E03A872987988F8F8B198E1A8ECD
:1058C0001B8E1C8E28E029A39BA78AA71CA61DA6B9
:1058D0001EA61FA6D8011C968C91883060F40E94E9
:1058E000A51F882321F0F80184850E947C1F88E091
:1058F000D8011C968C938091B7089091B808A0911C
:10590000B908B091BA088EA39FA3A8A7B9A78B83A3
:105910009C83AD83BE8318861F82AE01465D5F4FB8
:10592000B601CE0101960E9460290097C1F0D8010E
:10593000ED91FC910684F785E02D8BEA92E09DA322
:105940008CA38CA59DA5AEA5BFA58EA39FA3A8A73C
:10595000B9A7A701BE016C5D7F4FC8011995AF962D
:105960000FB6F894DEBF0FBECDBFDF91CF911F9170
:105970000F91FF90EF90DF90CF900895EF92FF92FC
:105980000F931F93CF93DF9300D01F92CDB7DEB755
:105990008C017B01FB0184858830A8F08BEA92E0C2
:1059A000F801918380831282138214821582C801C8
:1059B0000F900F900F900F90DF91CF911F910F914B
:1059C000FF90EF90089580E591E00E94450A24E061
:1059D00030E0AE014F5F5F4F6CE070E0F70184850F
:1059E0000E9452218BEA92E0F801918380838981A1
:1059F0009A81AB81BC8182839383A483B583D7CF03
:105A0000EF92FF920F931F93CF93DF93EC017B01F3
:105A10008A011B821A8288EE93E0A0E0B0E08C83BA
:105A20009D83AE83BF8383E292E0998388838DE177
:105A300090E00E948A3F9A8F898F009779F02DE13C
:105A4000F701DC0101900D922A95E1F74CE050E05E
:105A5000B801CE010C960E94CD41188EDF91CF91F6
:105A60001F910F91FF90EF9008952F923F924F92C8
:105A70005F926F927F928F929F92AF92BF92CF92DE
:105A8000DF92EF92FF920F931F93CF93DF93CDB7E7
:105A9000DEB7C756D1090FB6F894DEBF0FBECDBF33
:105AA0005C013B01A6964FAFA69719A218A287E406
:105AB00092E09F8F8E8F1BA21C821B829A83898308
:105AC0001E824E018EE1880E911CC4010E94340F8B
:105AD00063018E010F5F1F4F240118016FE270E018
